:100000000C940E020C9436020C9436020C943602B8
:100010000C9436020C9436020C9436020C94360280
:100020000C9436020C9436020C9436020C94360270
:100030000C9436020C9436020C9436020C94360260
:100040000C9444340C9436020C94A1060C94DD06F6
:100050000C9436020C9436020C9436020C94360240
:100060000C9436020C9436028309830989098C09A1
:100070008F099209950998099B099E09A109A4096C
:10008000A709AA09AD09B009B309084AD73B3BCE75
:10009000016E84BCBFFDC12F3D6C74319ABD568387
:1000A0003DDA3D00C77F11BED9E4BB4C3E916BAA3F
:1000B000AABE000000803F05A84CCDB2D44EB9388E
:1000C00036A9020C50B9918688083CA6AAAA2ABE75
:1000D000000000803F0664EC1B3C04BC163E3BE580
:1000E000B93CC93C37C29E5A3D660498083EEA694D
:1000F000AAAA3E000000803FEAEB00EAEC00426F53
:100100006F74696E672075703AEDF2F2F2F2F2F2F6
:10011000F2F30057616974696E6720666F727C4DF7
:1001200041564C696E6B20686561727462656174DA
:10013000732E2E2E00C820202020202020202020BA
:100140002020C900C820202020202020202020207E
:1001500020C97C00D8202020202020202020202002
:1001600020D97C00C82020202020202020202020F2
:1001700020C97C00C82020202020202020202020F2
:1001800020C97C00050304057C1513141500426189
:100190007474657279207761726E696E67200020D1
:1001A00020205374616C6C2053706565642020209E
:1001B00000202020204F76657273706565642020D2
:1001C0002020001820209091200020202020202096
:1001D000BABBBCBDBE7C202020202020CACBCCCD09
:1001E000CE7C4172647543414D204F53442076329A
:1001F0002E31004368617220446F6E650A005265BB
:1002000061647920666F7220466F6E740A005570C3
:1002100064617465204368617253657400EEEEEEAC
:10022000EEEEEEEEEE00EEEEEEEEEEEEEE00EEEECA
:10023000EEEEEEEEF000EEEEEEEEEEF0F200EEEEB2
:10024000EEEEF0F2F200EEEEEEF0F2F2F200EEEE92
:10025000F0F2F2F2F200EEF0F2F2F2F2F200EFF26D
:10026000F2F2F2F2F200F1F2F2F2F2F2F200526580
:100270007175657374696E6720446174615374723B
:1002800065616D732E2E2E00454550524F4D206DE9
:10029000617070696E67206F757464617465642144
:1002A0007C55706461746520776974682074686532
:1002B000204F534420546F6F6C2E0000407A10F38F
:1002C0005A00A0724E18090010A5D4E80000E87684
:1002D00048170000E40B54020000CA9A3B000000DB
:1002E000E1F505000080969800000040420F0000F4
:1002F00000A08601000000102700000000E80300B5
:100300000000006400000000000A0000000000017E
:1003100000000000002C76D888DC674F0823DFC17E
:10032000DFAE59E1B1B796E5E3E453C63AE6519939
:100330007696E8E6C28426EB898C9B62ED407C6F62
:10034000FCEFBC9C9F40F2BAA56FA5F490055A2A19
:10035000F75C936B6CF9676DC11BFCE0E40D47FE25
:10036000F520E6B500D0ED902E030094357705001A
:1003700080841E080000204E0A000000C80C3333A1
:1003800033330F986E12831141EF8D2114893BE6B0
:100390005516CFFEE6DB18D1844B381BF77C1D9039
:1003A0001DA4BBE424203284725E228100C9F124A2
:1003B000ECA1E53D276E616E00696E6600000000ED
:1003C00000240027002A0000000000250028002B40
:1003D0000000000000230026002900040404040497
:1003E00004040402020202020203030303030301E2
:1003F00002040810204080010204081020010204B9
:10040000081020000000070002010000030406009D
:1004100000000000000000002108DA2C11241FBE9B
:10042000CFEFD8E0DEBFCDBF14E0A0E0B1E0E4E65E
:10043000F4E702C005900D92A035B107D9F716E098
:10044000A0E5B4E001C01D92AA37B107E1F714E0BE
:10045000CCE1D4E004C02297FE010E942C3AC831BE
:10046000D107C9F70E94CB350C94303A0C940000A8
:10047000283008F027E03327DA01990F311D87FD76
:10048000916000966105710539F432602E5F3D93ED
:1004900030E32A95E1F708959F3F30F080387105E9
:1004A000610509F03C5F3C5F3D93913008F0806846
:1004B000911DDF93CF931F930F93FF92EF92192F0C
:1004C000987F9695E92F96959695E90FFF27EB5E15
:1004D000FC4F99273327EE24FF24A701E70105905D
:1004E0000894079428F4360FE71EF81E491F511D83
:1004F000660F771F881F991F0694A1F70590079430
:1005000028F4E70EF81E491F561FC11D770F881FDC
:10051000991F661F0694A1F70590079428F4F80E1A
:10052000491F561FC71FD11D880F991F661F771FB0
:100530000694A1F70590079420F4490F561FC71F92
:10054000D81F990F661F771F881F0694A9F78491FB
:100550001095177041F0D695C79557954795F79424
:10056000E7941A95C1F7EBEBF2E0689415901591BA
:1005700035916591959105907FE27395E118F10AA7
:10058000430B560BC90BD009C0F7E10CF11E431FFA
:10059000561FC91FD01D7EF4703311F48A95E6CF23
:1005A000E894015030F0080F0AF40027021708F40D
:1005B000202F2395022F7A3328F079E37D932A9513
:1005C000E9F710C07D932A9589F60694979567956B
:1005D000379517951794E118F10A430B560BC90B81
:1005E000D00998F023957E9173957A3308F070E3E3
:1005F0007C932013B8F77E9170617D9330F08395E2
:1006000071E37D9370E32A95E1F71124EF90FF9059
:100610000F911F91CF91DF91992787FD90950895B4
:10062000FA01AA27283051F1203181F1E8946F9323
:100630006E7F6E5F7F4F8F4F9F4FAF4FB1E03ED0C9
:10064000B4E03CD0670F781F891F9A1FA11D680F67
:10065000791F8A1F911DA11D6A0F711D811D911D9A
:10066000A11D20D009F468943F912AE0269F11240F
:100670003019305D3193DEF6CF010895462F477073
:10068000405D4193B3E00FD0C9F7F6CF462F4F70CE
:10069000405D4A3318F0495D31FD4052419302D02C
:1006A000A9F7EACFB4E0A6959795879577956795D2
:1006B000BA95C9F700976105710508959B01AC01D2
:1006C0000A2E06945795479537952795BA95C9F7F9
:1006D000620F731F841F951FA01D0895CF93DF9392
:1006E000BC018230910510F462E070E0A0917806C0
:1006F000B0917906ED01E0E0F0E040E050E021C08B
:10070000888199818617970769F48A819B81309740
:1007100019F09383828304C09093790680937806BE
:10072000FE0134C06817790738F44115510519F0F6
:100730008417950708F4AC01FE018A819B819C0116
:10074000E9012097E9F641155105A9F1CA01861B77
:10075000970B049708F4BA01E0E0F0E02AC08D910D
:100760009C91119784179507F9F46417750781F424
:1007700012968D919C911397309719F093838283F1
:1007800004C09093790680937806FD0132964CC0A0
:10079000CA01861B970BFD01E80FF91F6193719346
:1007A00002978D939C9340C0FD01828193819C01AF
:1007B000D9011097A1F68091760690917706892B42
:1007C00041F48091D1029091D20290937706809368
:1007D00076064091D3025091D4024115510541F45F
:1007E0004DB75EB78091CF029091D002481B590B54
:1007F0002091760630917706CA01821B930B8617EB
:10080000970780F0AB014E5F5F4F8417950750F05C
:10081000420F531F5093770640937606F901619378
:10082000719302C0E0E0F0E0CF01DF91CF91089535
:10083000CF93DF93009709F450C0EC0122971B82FD
:100840001A82A0917806B0917906109709F140E0DC
:1008500050E0AC17BD0708F1BB83AA83FE012191CC
:100860003191E20FF31FAE17BF0779F48D919C9180
:100870001197280F391F2E5F3F4F39832883129617
:100880008D919C9113979B838A834115510571F437
:10089000D0937906C093780620C012968D919C91D2
:1008A0001397AD01009711F0DC01D3CFFA01D38388
:1008B000C28321913191E20FF31FCE17DF0769F454
:1008C00088819981280F391F2E5F3F4FFA013183AC
:1008D00020838A819B8193838283DF91CF910895C6
:1008E000FC010590615070400110D8F780959095FB
:1008F0008E0F9F1F0895FC01615070400190011000
:10090000D8F7809590958E0F9F1F0895FC01138254
:10091000128288EE93E0A0E0B0E084839583A68302
:10092000B78384EF92E0918380830895FC018089EE
:10093000803419F421E030E002C020E030E0C90149
:100940000895FC01818990E00895FC016487458742
:1009500066874787089580E090E0089580E090E002
:10096000089580E090E008950895EF92FF921F931C
:10097000CF93DF93162F7A0186E060E00E947735EF
:1009800086E596E060E00E94BE2C86E596E060E099
:100990000E94BE2C86E596E069E00E94BE2C86E5AA
:1009A00096E0612F0E94BE2CC0E0D0E0F701EC0F72
:1009B000FD1F108186E596E06AE00E94BE2C86E568
:1009C00096E06C2F0E94BE2C86E596E06BE00E94BC
:1009D000BE2C86E596E0612F0E94BE2C2196C63380
:1009E000D10521F786E596E068E00E94BE2C86E5F9
:1009F00096E060EA0E94BE2C86E596E060EA0E94DE
:100A0000BE2C85FDF9CF86E596E060E00E94BE2C05
:100A100086E596E06CE00E94BE2C86E061E00E94D4
:100A20007735DF91CF911F91FF90EF9008951F933D
:100A3000CF93DF93EC01162F86E060E00E947735BC
:100A400086E596E060E00E94BE2C112319F011307B
:100A500059F404C086E596E0688904C068896C6131
:100A600086E596E00E94BE2C86E061E00E94773524
:100A7000DF91CF911F910895EF92FF920F931F93F3
:100A80008EE1489F70011124E60EF11C86E060E0C3
:100A90000E94773506E516E0C80165E00E94BE2C8D
:100AA000C8016F2D0E94BE2CC80166E00E94BE2CBA
:100AB000C8016E2D0E94BE2C1F910F91FF90EF90E8
:100AC0000895EF92FF920F931F937C0106E516E0C5
:100AD000C80167E00E94BE2CC8016FEF0E94BE2CC7
:100AE00086E061E00E947735F70187858F5F878711
:100AF0001F910F91FF90EF900895EF92FF920F9347
:100B00001F93FC01E7848EE1E89E70011124868525
:100B1000E80EF11C86E060E00E94773506E516E0FD
:100B2000C80164E00E94BE2CC80163E00E94BE2C94
:100B3000C80165E00E94BE2CC8016F2D0E94BE2C2A
:100B4000C80166E00E94BE2CC8016E2D0E94BE2C1A
:100B50001F910F91FF90EF9008951F93CF93DF9314
:100B6000EC01162F6C3731F40E946105CE010E9412
:100B70007D050AC086E596E067E00E94BE2C86E50A
:100B800096E0612F0E94BE2C81E090E0DF91CF9132
:100B90001F9108950F931F9386E060E00E947735C0
:100BA00006E516E0C80164E00E94BE2CC80164E0BE
:100BB0000E94BE2C86E061E00E9477351F910F9164
:100BC00008951F93CF93DF93EC01188A16E0198BD9
:100BD00088E696E060E973E00E94A433813049F42E
:100BE00080E4888B88E0898B86E060E00E9477351E
:100BF00002C0188A198B86E060E00E947735DF9189
:100C0000CF911F9108951F93CF93DF93EC0186E05E
:100C100061E00E94383582E060E00E94383582E071
:100C200061E00E947735CE010E94E10586E060E038
:100C30000E94773586E596E06CEE0E94BE2C86E534
:100C400096E06FEF0E94BE2C182F86E596E060E0DC
:100C50000E94BE2C6889626086E596E00E94BE2CE8
:100C600062E370E080E090E00E949A3486E596E0CE
:100C70006CE60E94BE2C1F7E86E596E0612F0E94E6
:100C8000BE2C109251041092500417C06091500471
:100C900070915104605F86E596E00E94BE2C86E567
:100CA00096E060E00E94BE2C809150049091510427
:100CB0000196909351048093500480915004909138
:100CC00051040C971CF3CE0161E00E941705DF91DF
:100CD000CF911F910895CF92DF92EF92FF920F93E1
:100CE0001F93CF93DF938C016B017A01C0E0D0E0BA
:100CF0001CC0F601EC0FFD1F60810115110521F0EC
:100D00000130110589F405C0E0916906F0916A0689
:100D100004C0E0916B06F0916C06A081B1812D9129
:100D20003C91CF01F90109952196CE15DF0508F315
:100D3000DF91CF911F910F91FF90EF90DF90CF90B7
:100D400008951F920F920FB60F9211242F933F9385
:100D50004F938F939F93EF93FF934091C600209101
:100D60005706309158062F5F3F4F80915B06909158
:100D70005C06282339238091590690915A0628173A
:100D8000390779F08091570690915806E0915D06F9
:100D9000F0915E06E80FF91F4083309358062093C8
:100DA0005706FF91EF919F918F914F913F912F9116
:100DB0000F900FBE0F901F9018951F920F920FB6B5
:100DC0000F9211242F933F938F939F93EF93FF9351
:100DD000209161063091620680915F0690916006D5
:100DE00028173907E9F08091610690916206E09139
:100DF0006506F0916606E80FF91F80818093C600B2
:100E0000809161069091620601962091630630916F
:100E1000640682239323909362068093610610C038
:100E200020915F0630916006809161069091620684
:100E30002817390729F48091C1008F7D8093C10064
:100E4000FF91EF919F918F913F912F910F900FBE46
:100E50000F901F9018952F923F924F925F926F9232
:100E60007F928F929F92AF92BF92CF92DF92EF923A
:100E7000FF920F931F93DF93CF93CDB7DEB72E97DB
:100E80000FB6F894DEBF0FBECDBF0EE014E062E0F7
:100E9000E62E64E0F62E53E0C52ED12CCC0EDD1EDE
:100EA00042E4242E3AE0432E512C4C0E5D1E2FE0DE
:100EB000622E712C6C0E7D1E99E0892E912C8C0E69
:100EC0009D1E84E9382E5E010894A11CB11C20915E
:100ED000BF053091C005F8014081F7018081918103
:100EE0009C838B832D833E834F83F1E0F8878EEFC5
:100EF000898796E09A87909143069B878091EA02C2
:100F00008C878091EB028D872E869F5F909343069E
:100F10006FEF7FEFF2011CC021912627822F82956F
:100F2000807F822790E0382F2227AC01A3E0440F76
:100F3000551FAA95E1F724273527672F77276227C2
:100F40007327A4E095958795AA95E1F768277927F7
:100F5000E615F70509F7F6011AC081918627282FB3
:100F60002295207F282730E0722F6627C90143E0B1
:100F7000880F991F4A95E1F7682779276A277B2709
:100F8000B4E035952795BA95E1F762277327A72F27
:100F9000BB27E815F90509F7862F8325282F229509
:100FA000207F282730E0922F8827A90163E0440F93
:100FB000551F6A95E1F7842795278A279B2744E0E8
:100FC000359527954A95E1F78227932789839A8358
:100FD00080E090E0BF0146E050E00E946B0680E0B8
:100FE00090E0B60146E050E00E946B0680E090E0A1
:100FF000B50142E050E00E946B060F5F1F4FE2E038
:10100000F0E0EE0EFF1EF4E004311F0709F05FCFA1
:101010002E960FB6F894DEBF0FBECDBFCF91DF91F5
:101020001F910F91FF90EF90DF90CF90BF90AF9006
:101030009F908F907F906F905F904F903F902F90F8
:1010400008958F92AF92CF92EF92FF920F931F93DA
:1010500086ED94E060E045EC50E024EC30E000ECFC
:1010600010E0F1ECEF2EF12CCC24C394E8E9AE2E85
:1010700070E2872E0E94142D83EF94E00E94860474
:1010800010920605109207051092080510920905A6
:1010900010920A0510920B0510920C0510920D0586
:1010A00010920F0510920E05109205051F910F91D9
:1010B000FF90EF90CF90AF908F90089588E696E0E4
:1010C0006AE773E00E94A4338823E9F486E696E693
:1010D000A6E6B0E48093100590931105A093120545
:1010E000B093130580E090E0A0E8BFE3809314057F
:1010F00090931505A0931605B093170581E880938A
:1011000018058DE81CC082E598EBAEE0B0E4809352
:10111000100590931105A0931205B093130585E86F
:101120009BEEA1E5B0E48093140590931505A09380
:101130001605B09317058BEF8093180586E680930C
:1011400019050895CF93DF9388E696E06CE773E086
:101150000E94A4338093610588E696E06EE773E011
:101160000E94A4338093600588E696E060E873E00F
:101170000E94A4338093620588E696E06EE873E0EF
:101180000E94A4338093990588E696E06AE873E0AC
:101190000E94A4338093900588E696E064E873E0AB
:1011A0000E94A4338093B20588E696E066E873E077
:1011B0000E94A4338093B30588E696E06CE873E060
:1011C0000E94A43310926505882319F081E0809372
:1011D000650588E696E062E973E00E94A433809397
:1011E000630588E696E064E973E00E94A433809387
:1011F0006405C0E0D0E0BE0168567C4F88E696E00A
:101200000E94A433FE01E855FA4F8083882321F021
:101210002196C830D10579F7C855DA4F1982DF9188
:10122000CF910895BC0188E696E00E94A43308950A
:101230001F93282F362F142F83EF94E0622F432F14
:101240000E943C051530F9F0163060F41230A9F018
:10125000133018F4113001F50EC0133081F0143042
:10126000D9F40FC0173099F0173078F0183089F0A2
:10127000193091F410C026E00FC027E00DC028E01F
:101280000BC029E009C02AE007C02BE005C02CE014
:1012900003C02DE001C02EE000D000D000D0EDB79B
:1012A000FEB7319683EF94E0ADB7BEB712969C932C
:1012B0008E93119780E091E093838283822F992708
:1012C00087FD9095958384830E94F32C8DB79EB7FC
:1012D00006960FB6F8949EBF0FBE8DBF1F9108955E
:1012E000EF92FF920F931F93CF93DF93E82FF0E0DD
:1012F000E131F10558F4EC5CFF4FEE0FFF1F059054
:10130000F491E02D099490E981E92FC090E080E00C
:101310002CC092E983E929C094E985E926C096E9C1
:1013200087E923C098E989E920C09AE98BE91DC0C3
:101330009CE98DE91AC09EE98FE917C090EA81EA1D
:1013400014C092EA83EA11C094EA85EA0EC096EAD4
:1013500087EA0BC098EA89EA08C09AEA8BEA05C0D6
:101360009CEA8DEA02C09EEA8FEA23EF34E0C92F9F
:10137000DD27C7FDD095E82EFF24E7FCF09461300F
:1013800009F04AC08DB79EB740970FB6F8949EBF3C
:101390000FBE8DBF0DB71EB70F5F1F4FADB7BEB7E6
:1013A00012963C932E93119783E091E0F80193837A
:1013B00082838CEF90E09583848360911C0570910B
:1013C0001D0580911E0590911F05209110053091FB
:1013D000110540911205509113050E94A038D801C3
:1013E00016966D937D938D939C9319978091180514
:1013F0001A968C931A971B961C921B971D96DC933A
:10140000CE931C971F96FC92EE921E970E94F32C8F
:10141000EDB7FEB770961EC08DB79EB708970FB692
:10142000F8949EBF0FBE8DBFEDB7FEB73196ADB736
:10143000BEB712963C932E93119782E191E093836D
:101440008283D583C483F782E6820E94F32CEDB7B2
:10145000FEB738960FB6F894FEBF0FBEEDBFDF9112
:10146000CF911F910F91FF90EF9008952F923F928F
:101470004F925F926F927F928F929F92AF92BF92A4
:10148000CF92DF92EF92FF920F931F93DF93CF9350
:10149000CDB7DEB76C970FB6F894DEBF0FBECDBFE9
:1014A0008B8F6C8F80911A05682F772767FD709559
:1014B0009B0177FF04C022273327261B370B2A35D1
:1014C000310589F48AE590E00E94C639882777FDC6
:1014D0008095982F0E946D3721EE3AEF43EB52E44E
:1014E0000E94A03808C0682F772767FD7095872F66
:1014F000972F0E946D3725E33AEF4EE85CEB0E9490
:10150000A038962EE72E8C0180911B05682F772737
:1015100067FD70959B0177FF04C022273327261BA8
:10152000370B2A35310589F48AE590E00E94C639E7
:10153000882777FD8095982F0E946D3721EE3AEF2E
:1015400043EB52E40E94A03808C0682F772767FD5C
:101550007095872F972F0E946D3725E33AEF4EE85D
:101560005CE30E94A0385B016C01292D3E2DB9017E
:10157000C8010E94743920E030E044E352E40E9444
:10158000A0380E9403390E943A377B018C01B501D3
:10159000C6010E9474391B012C015E010894A11C34
:1015A000B11CBA8EA98E1EEBC12E1FEFD12E3701B2
:1015B000882477FC8094982CB601882777FD809545
:1015C000982F0E946D379B01AC01C201B1010E94AE
:1015D000A0387B018C01C401B3010E946D379B01CF
:1015E000AC01C801B7010E94053620E030E044E3B9
:1015F00052E40E94053620E030E040E85FE30E94BC
:1016000004360E943A37E98DFA8D61937193FA8F0F
:10161000E98F4CE050E0C40ED51E5EE4C516D1043F
:1016200059F6EB8CBEEE8B2EBFEF9B2EA9E1CA2E96
:10163000D12CCC0EDD1EF50120813181C90101972D
:101640008935910568F56EEE7FEF0E94C6398B01F2
:101650000B5F1F4F2B553040089DC001099D900D19
:10166000189D900D1124A901481B590BCA0162E075
:1016700070E00E94C639882777FD8095982F0E94D8
:101680006D370E9403390E943A37AB01672B11F482
:1016900041E050E06C8D600F61508E2D0E94180962
:1016A00082E090E0A80EB91EE394AC14BD0419F6D4
:1016B0006C960FB6F894DEBF0FBECDBFCF91DF9111
:1016C0001F910F91FF90EF90DF90CF90BF90AF9060
:1016D0009F908F907F906F905F904F903F902F9052
:1016E0000895609128057091290580912A059091AF
:1016F0002B0520E030E040E152E40E94A03820E0D9
:1017000030E044EB53E40E94D2360E9403390E9439
:101710003A379B012550304037FF03C09B01215EC3
:101720003F4FAEE2B5E0F901EC5EFB4F80818C9358
:101730002F5F3F4F2432310514F020E030E0119646
:1017400085E0A933B80779F71C9208950F931F938A
:10175000282F462F83EF94E0622F0E94A50483EF89
:1017600094E00E947D0527E131E0809120058230E0
:1017700071F5809121058823D1F1813019F42DE193
:1017800031E055C0823019F422E231E050C083309C
:10179000E9F1843009F449C0853019F421E331E0DE
:1017A00046C0863019F426E331E041C08730D1F0DD
:1017B000883019F420E431E03AC0893019F425E486
:1017C00031E035C08A3099F52AE431E030C081300B
:1017D00071F580912105882319F42FE431E027C0A9
:1017E000813019F42BE331E022C0823019F428E172
:1017F00031E01DC0853019F424E531E018C0863091
:1018000019F429E531E013C08A3019F427E231E0F8
:101810000EC08B3019F42EE531E009C08C3019F47C
:1018200023E631E004C08F3011F42CE231E08DB7B3
:101830009EB708970FB6F8949EBF0FBE8DBFEDB749
:10184000FEB7319603EF14E0ADB7BEB712961C9306
:101850000E93119788E691E09383828380EE90E067
:1018600095838483378326830E94F32C8DB79EB79C
:1018700008960FB6F8949EBF0FBE8DBFC8010E9498
:1018800061051F910F9108950F931F93282F462FE5
:1018900003EF14E0C801622F0E94A504C8010E9452
:1018A0007D058091220560E00E947009C8010E94B8
:1018B00061051F910F910895EF92FF920F931F936F
:1018C000282F462F03EFE02E04E0F02EC701622FF1
:1018D0000E94A504C7010E947D058DB79EB7409761
:1018E0000FB6F8949EBF0FBE8DBF0DB71EB70F5F2A
:1018F0001F4FEDB7FEB7F282E1828DE691E0F8016D
:101900009383828387E590E0958384838091230588
:1019100086831782118610866091240570912505B3
:1019200080E090E00E946B372091140530911505FE
:1019300040911605509117050E94A038F801628762
:1019400073878487958780911905868717860E94FB
:10195000F32C8DB79EB740960FB6F8949EBF0FBE7E
:101960008DBFC7010E9461051F910F91FF90EF90FD
:101970000895282F462F83EF94E0622F0E94A5043C
:1019800083EF94E00E947D05609126057091270504
:10199000882777FD8095982F0E946D372091280524
:1019A0003091290540912A0550912B050E9404365B
:1019B00020E030E044EB53E40E94D23620E030E0F7
:1019C00040E851E40E94A0380E94033920E030E052
:1019D00040E85FE30E9405360E943A37862F609305
:1019E0002C0567FF03C0805F80932C0580912C0538
:1019F00060E00E94700983EF94E00E946105089501
:101A00000F931F93282F462F03EF14E0C801622F76
:101A10000E94A504C8010E947D058DB79EB70C9752
:101A20000FB6F8949EBF0FBE8DBFEDB7FEB73196CF
:101A3000ADB7BEB712961C930E9311978CE791E049
:101A40009383828386E891E09583848380ED90E0A0
:101A5000978386838EE295E09187808781ED90E081
:101A6000938782870E94F32C8DB79EB70C960FB692
:101A7000F8949EBF0FBE8DBFC8010E9461051F91E3
:101A80000F9108950F931F93282F462F03EF14E013
:101A9000C801622F0E94A504C8010E947D058DB770
:101AA0009EB70A970FB6F8949EBF0FBE8DBFEDB7D5
:101AB000FEB73196ADB7BEB712961C930E93119731
:101AC00084E991E093838283809128059091290590
:101AD000A0912A05B0912B0584839583A683B783B3
:101AE00080EB90E0918780870E94F32C8DB79EB7A2
:101AF0000A960FB6F8949EBF0FBE8DBFC8010E9414
:101B000061051F910F9108950F931F93282F462F62
:101B100003EF14E0C801622F0E94A504C8010E94CF
:101B20007D058DB79EB740970FB6F8949EBF0FBE48
:101B30008DBFEDB7FEB73196ADB7BEB712961C9309
:101B40000E9311978CE991E09383828383E890E070
:101B50009583848380913A0590913B05A0913C0543
:101B6000B0913D0586839783A087B18784E890E094
:101B70009387828780913E0590913F05A091400513
:101B8000B091410584879587A687B7870E94F32C7B
:101B90008DB79EB740960FB6F8949EBF0FBE8DBF0F
:101BA000C8010E9461051F910F9108950F931F9323
:101BB000282F462F03EF14E0C801622F0E94A504CE
:101BC000C8010E947D058DB79EB708970FB6F8949F
:101BD0009EBF0FBE8DBFEDB7FEB73196ADB7BEB796
:101BE00012961C930E9311978EEA91E09383828351
:101BF0008FE090E0958384838091420586831782ED
:101C00000E94F32C8DB79EB708960FB6F8949EBF2E
:101C10000FBE8DBFC8010E9461051F910F910895ED
:101C20000F931F93282F462F83EF94E0622F0E947B
:101C3000A50483EF94E00E947D05809143058230E6
:101C400018F424EB31E005C08250823010F427EB09
:101C500031E000D000D000D0EDB7FEB7319603EFF1
:101C600014E0ADB7BEB712961C930E9311978AEB92
:101C700091E093838283358324830E94F32CEDB714
:101C8000FEB73196ADB7BEB712961C930E9311975F
:101C90008DEB91E09383828380914405909145057B
:101CA000958384830E94F32C8DB79EB706960FB65A
:101CB000F8949EBF0FBE8DBFC8010E9461051F91A1
:101CC0000F9108950F931F93282F462F03EF14E0D1
:101CD000C801622F0E94A504C8010E947D058DB72E
:101CE0009EB70C970FB6F8949EBF0FBE8DBFEDB791
:101CF000FEB73196ADB7BEB712961C930E931197EF
:101D000081EC91E09383828382EE90E095838483DB
:101D10008091460590914705A0914805B0914905ED
:101D200086839783A087B1878EE890E09387828728
:101D30000E94F32C8DB79EB70C960FB6F8949EBFF9
:101D40000FBE8DBFC8010E9461051F910F910895BC
:101D50000F931F93282F462F03EF14E0C801622F23
:101D60000E94A504C8010E947D058DB79EB70A9701
:101D70000FB6F8949EBF0FBE8DBFEDB7FEB731967C
:101D8000ADB7BEB712961C930E9311978BEC91E0F2
:101D90009383828380911B05992787FD9095958376
:101DA000848380EB90E09783868382EB90E0918739
:101DB00080870E94F32C8DB79EB70A960FB6F894D1
:101DC0009EBF0FBE8DBFC8010E9461051F910F917C
:101DD00008950F931F93282F462F03EF14E0C80197
:101DE000622F0E94A504C8010E947D058DB79EB791
:101DF0000A970FB6F8949EBF0FBE8DBFEDB7FEB722
:101E00003196ADB7BEB712961C930E9311978BEC1B
:101E100091E09383828380911A05992787FD90959D
:101E20009583848380EB90E09783868381EB90E0B9
:101E3000918780870E94F32C8DB79EB70A960FB6C4
:101E4000F8949EBF0FBE8DBFC8010E9461051F910F
:101E50000F910895EF92FF920F931F93282F462F13
:101E600083EFE82E84E0F82EC701622F0E94A504BC
:101E7000C7010E947D058DB79EB70C970FB6F894E9
:101E80009EBF0FBE8DBF0DB71EB70F5F1F4FEDB7C3
:101E9000FEB7F282E18283ED91E0F80193838283C1
:101EA0008FE190E09583848360914A0570914B05A2
:101EB00080914C0590914D050E946D37209114053D
:101EC0003091150540911605509117050E94A038D4
:101ED000F8016683778380879187809119058287CF
:101EE00013860E94F32C8DB79EB70C960FB6F8940C
:101EF0009EBF0FBE8DBFC7010E9461051F910F914C
:101F0000FF90EF900895EF92FF920F931F93282F69
:101F1000462F93EFE92E94E0F92EC701622F0E941D
:101F2000A504C7010E947D0560914E0570914F0583
:101F3000809150059091510528EE33E040E050E04B
:101F40000E94D939CA01B9010E946B376093D5024A
:101F50007093D6028093D7029093D8020E943A37AA
:101F60008B019C018DB79EB70C970FB6F8949EBF5E
:101F70000FBE8DBFEDB7FEB73196ADB7BEB71296A7
:101F8000FC92EE9211978DED91E09383828383EB27
:101F900090E095838483C8016CE370E00E94C639A9
:101FA000CB016CE370E00E94C639978386838AE395
:101FB00090E091878087C8016CE370E00E94C63989
:101FC000938782870E94F32C8DB79EB70C960FB62D
:101FD000F8949EBF0FBE8DBFC7010E9461051F917F
:101FE0000F91FF90EF9008950F931F93282F462F86
:101FF00003EF14E0C801622F0E94A504C8010E94EB
:102000007D058DB79EB70A970FB6F8949EBF0FBE99
:102010008DBFEDB7FEB73196ADB7BEB712961C9324
:102020000E9311978AEE91E0938382838091D90277
:102030008483158280915205992787FD9095978317
:10204000868385E290E0918780870E94F32C8DB78C
:102050009EB70A960FB6F8949EBF0FBE8DBFC801FB
:102060000E9461051F910F9108950F931F93282FD0
:10207000462F03EF14E0C801622F0E94A504C80197
:102080000E947D058DB79EB70A970FB6F8949EBF44
:102090000FBE8DBFEDB7FEB73196ADB7BEB7129686
:1020A0001C930E93119782EF91E09383828387E8CC
:1020B00090E0958384838091530590915405978394
:1020C000868385E290E0918780870E94F32C8DB70C
:1020D0009EB70A960FB6F8949EBF0FBE8DBFC8017B
:1020E0000E9461051F910F910895EF92FF920F9347
:1020F0001F93282F462F33EFE32E34E0F32EC70132
:10210000622F0E94A504C7010E947D058DB79EB76E
:102110000C970FB6F8949EBF0FBE8DBF0DB71EB7BC
:102120000F5F1F4FEDB7FEB7F282E1828CEF91E0B7
:10213000F8019383828388EE90E095838483609195
:10214000DA027091DB028091DC029091DD02209135
:1021500010053091110540911205509113050E9410
:10216000A038F8016683778380879187809118056E
:10217000828713860E94F32C8DB79EB70C960FB6FC
:10218000F8949EBF0FBE8DBFC7010E9461051F91CD
:102190000F91FF90EF900895EF92FF920F931F938E
:1021A000282F462F53EFE52E54E0F52EC701622F5E
:1021B0000E94A504C7010E947D058DB79EB70C97AC
:1021C0000FB6F8949EBF0FBE8DBF0DB71EB70F5F41
:1021D0001F4FEDB7FEB7F282E1828CEF91E0F8017C
:1021E0009383828389EE90E0958384836091680570
:1021F0007091690580916A0590916B052091100599
:102200003091110540911205509113050E94A0389C
:10221000F80166837783808791878091180582878C
:1022200013860E94F32C8DB79EB70C960FB6F894C8
:102230009EBF0FBE8DBFC7010E9461051F910F9108
:10224000FF90EF900895EF92FF920F931F93282F26
:10225000462F63EFE62E64E0F62EC701622F0E9440
:10226000A504C7010E947D058DB79EB70C970FB6D8
:10227000F8949EBF0FBE8DBF0DB71EB70F5F1F4FE7
:10228000EDB7FEB7F282E18283ED91E0F80193832E
:10229000828387EE90E09583848360916C057091D2
:1022A0006D0580916E0590916F05209170053091BC
:1022B000710540917205509173050E94043620917A
:1022C00014053091150540911605509117050E948F
:1022D000A038F801668377838087918780911905FC
:1022E000828713860E94F32C8DB79EB70C960FB68B
:1022F000F8949EBF0FBE8DBFC7010E9461051F915C
:102300000F91FF90EF900895EF92FF920F931F931C
:10231000282F462F73EFE72E74E0F72EC701622FA8
:102320000E94A504C7010E947D058DB79EB70C973A
:102330000FB6F8949EBF0FBE8DBF0DB71EB70F5FCF
:102340001F4FEDB7FEB7F282E1828CEF91E0F8010A
:102350009383828386E190E0958384836091740502
:102360007091750580917605909177052091100503
:102370003091110540911205509113050E94A0382B
:1023800020E030E040E05FE30E940536F80166831C
:1023900077838087918781E890E0938782870E9486
:1023A000F32C8DB79EB70C960FB6F8949EBF0FBE58
:1023B0008DBFC7010E9461051F910F91FF90EF90A3
:1023C0000895EF92FF920F931F93282F462FE3EF6C
:1023D000EE2EE4E0FE2EC701622F0E94A504C70185
:1023E0000E947D058DB79EB70C970FB6F8949EBFDF
:1023F0000FBE8DBF0DB71EB70F5F1F4FEDB7FEB7F6
:10240000F282E18283ED91E0F8019383828386EE8C
:1024100090E09583848360916C0570916D05809147
:102420006E0590916F05209114053091150540912E
:102430001605509117050E94A038F801668377832E
:102440008087918780911905828713860E94F32CDB
:102450008DB79EB70C960FB6F8949EBF0FBE8DBF7A
:10246000C7010E9461051F910F91FF90EF900895A1
:10247000EF92FF920F931F93282F462FF3EFEF2E2B
:10248000F4E0FF2EC701622F0E94A504C7010E943D
:102490007D058DB79EB70C970FB6F8949EBF0FBE03
:1024A0008DBF0DB71EB70F5F1F4FEDB7FEB7F2829E
:1024B000E18281EC91E0F8019383828384EE90E0E5
:1024C000958384836091780570917905882777FDDD
:1024D0008095982F0E946D372AE037ED43E25CE348
:1024E0000E94A038F80166837783808791878FE800
:1024F00090E0938782870E94F32C8DB79EB70C964D
:102500000FB6F8949EBF0FBE8DBFC7010E94610534
:102510001F910F91FF90EF900895AF92BF92CF92CD
:10252000DF92EF92FF920F931F93282F462F13EF06
:10253000A12E14E0B12EC501622F0E94A504C50191
:102540000E947D058DB79EB7865490400FB6F894D3
:102550009EBF0FBE8DBF0DB71EB70F5F1F4FEDB7EC
:10256000FEB7B282A18286E092E0F8019383828373
:102570002EE430E03583248382E590E097838683E0
:1025800080917A0590917B05A0917C05B0917D05A5
:1025900080879187A287B38740EB50E055874487B7
:1025A0003787268780E590E0918B808B80917E0530
:1025B00090917F05A0918005B0918105828B938BCE
:1025C000A48BB58B578B468B318F208F88E490E09E
:1025D000938F828F8091820590918305958F848F50
:1025E000578F468F84E590E091A380A382E490E02A
:1025F00093A382A3809126059091270595A384A398
:1026000057A346A3B1E4CB2ED12CD1A6C0A6A5E4F6
:10261000EA2EF12CF3A6E2A660918405709185055F
:1026200080918605909187052091140530911505BC
:1026300040911605509117050E94A038F80164A733
:1026400075A786A797A78091190580AB11AA88E581
:1026500090E093AB82ABF5AAE4AA809188059091B3
:102660008905A0918A05B0918B0586AB97ABA0AF89
:10267000B1AF8DE690E093AF82AFD5AEC4AEF7AE0A
:10268000E6AE60918C0570918D0580918E059091DC
:102690008F0520E030E048EC52E40E94D2362091D1
:1026A00010053091110540911205509113050E94BB
:1026B000A038005C1F4FF80161937193819391934F
:1026C00080911805808311820E94F32C8DB79EB7EC
:1026D0008A5B9F4F0FB6F8949EBF0FBE8DBFC5019A
:1026E0000E9461051F910F91FF90EF90DF90CF90B6
:1026F000BF90AF900895282F462F83EF94E0622F6C
:102700000E94A50483EF94E00E947D0560919B05E3
:1027100070919C0580919D0590919E0520912805C2
:102720003091290540912A0550912B050E940436CD
:1027300020E030E044EB53E40E94D23620E030E069
:1027400040E851E40E94A0380E94033920E030E0C4
:1027500040E85FE30E9405360E943A37862F609377
:102760009F0567FF03C0805F80939F0580919F0551
:1027700061E00E94700983EF94E00E946105089572
:102780000F931F93282F462F03EF14E0C801622FE9
:102790000E94A504C8010E947D0500D000D000D091
:1027A000EDB7FEB73196ADB7BEB712961C930E9338
:1027B00011978AEB91E09383828388EA95E0958371
:1027C00084830E94F32C8DB79EB706960FB6F894BB
:1027D0009EBF0FBE8DBFC8010E9461051F910F9162
:1027E0000895CF92DF92EF92FF920F931F93CF93B2
:1027F000DF93282F462F83EF94E0622F0E94A504D9
:1028000083EF94E00E947D058091B105282F30E090
:102810003093DF022093DE028091B205C82FD0E012
:10282000C217D3072CF4D093DF02C093DE020AC094
:102830008091B30590E02817390724F49093DF02C4
:102840008093DE0280916505882361F50091B305D0
:1028500010E06091DE027091DF02601B710B88272F
:1028600077FD8095982F0E946D376B017C01C01B0E
:10287000D10BBE01882777FD8095982F0E946D3778
:102880009B01AC01C701B6010E94D23620E030E0C6
:1028900048EC52E40E94A0380E943A377093DF025D
:1028A0006093DE028091DE029091DF028D599F4F8E
:1028B00034F48DE99FEF9093DF028093DE028DB7B1
:1028C0009EB70A970FB6F8949EBF0FBE8DBFEDB7A7
:1028D000FEB7319603EF14E0ADB7BEB712961C9366
:1028E0000E9311978AEE91E09383828381EE90E0BC
:1028F000958384838091DE029091DF0297838683A3
:1029000085E290E0918780870E94F32C8DB79EB777
:102910000A960FB6F8949EBF0FBE8DBFC8010E94E5
:102920006105DF91CF911F910F91FF90EF90DF90A4
:10293000CF900895CF93DF93282F462FC3EFD4E095
:10294000CE01622F0E94A504CE010E947D058091D8
:102950002D05813079F400D000D0EDB7FEB7D283D9
:10296000C1838BEF90E0948383830E94E22C1092CA
:102970002D050CC000D000D0EDB7FEB7D283C183C7
:1029800088EF90E0948383830E94E22C0F900F9055
:102990000F900F9083EF94E00E946105DF91CF913B
:1029A00008950F931F93282F462F03EF14E0C801BB
:1029B000622F0E94A504C8010E947D0500D000D0AE
:1029C000EDB7FEB7128301838EEF90E0948383838B
:1029D0000E94E22C0F900F900F900F90C8010E9460
:1029E00061051F910F9108950F931F93282F462F74
:1029F00003EF14E0C801622F0E94A504C8010E94E1
:102A00007D0500D000D0EDB7FEB71283018383E1CE
:102A100091E0948383830E94E22C0F900F900F909B
:102A20000F90C8010E9461051F910F910895CF92E8
:102A3000DF92EF92FF920F931F937C01D62EC72E49
:102A400003EF14E0C8016E2D4D2D0E94A504C801AE
:102A50000E947D0500D000D0EDB7FEB71283018340
:102A600084E791E0948383830E94E22CEDB7FEB764
:102A70001283018384E691E0948383830E94E22C95
:102A8000EDB7FEB71283018384E591E094838383DD
:102A90000E94E22CEDB7FEB71283018384E491E03B
:102AA000948383830E94E22CEDB7FEB712830183E7
:102AB00085E391E0948383830E94E22C0F900F9032
:102AC0000F900F90C8010E946105C70101966D2DFE
:102AD0007C2D0E94360A1F910F91FF90EF90DF909E
:102AE000CF9008950F931F93282F462F03EF14E0E4
:102AF000C801622F0E94A504C8010E947D0500D074
:102B000000D0EDB7FEB71283018384E891E094838F
:102B100083830E94E22C0F900F900F900F90C801BA
:102B20000E9461051F910F9108950F931F9303EF6A
:102B300014E0C80167E044E00E94A504C8010E94B7
:102B40007D0500D000D0EDB7FEB7128301838AEC7B
:102B500091E0948383830E94E22C0F900F900F905A
:102B60000F90C8010E9461051F910F9108952F9247
:102B70003F924F925F926F927F928F929F92AF920D
:102B8000BF92CF92DF92EF92FF920F931F93DF934A
:102B9000CF93CDB7DEB76B970FB6F894DEBF0FBEFD
:102BA000CDBF282F462F83EF94E0622F0E94A5040B
:102BB00083EF94E00E947D050E948C34209155059E
:102BC0003091560540915705509158052617370703
:102BD0004807590708F09BC180915905882391F057
:102BE00080935A051092590581E080935B050E94FD
:102BF0008C3460935C0570935D0580935E059093C3
:102C00005F0521C10E948C34605177428040904022
:102C100020915C0530915D0540915E0550915F0506
:102C2000261737074807590710F410925B05809163
:102C30005A05E82EFF24FA82E982F0904305FD86CA
:102C400090905905A090DA02B090DB02C090DC02AF
:102C5000D090DD0240901005509011056090120553
:102C6000709013052091600530E0409161056091FE
:102C700046057091470580914805909149056987FF
:102C80007A878B879C879091620580915205A82F47
:102C9000BB27A7FDB095B887AF8380916305E82F68
:102CA000F0E0FE83ED832090DE023090DF02809121
:102CB0006405E82EFF24FC82EB8280906505098183
:102CC0001A811B8F0A8FE42EFF2400E010E0EE86AD
:102CD000FF86088B198B492F50E060E070E04A8B2B
:102CE0005B8B6C8B7D8BB901882777FD8095982F46
:102CF0006E8B7F8B888F998FA1C08A8D9B8D01965B
:102D00009B8F8A8F06972CF0A1E0B0E0BB8FAA8F33
:102D10001BC0EA8DFB8DE330F10509F441C0E430BE
:102D2000F1053CF4E130F10579F0329709F07FC00C
:102D300012C00A8D1B8D0430110509F44AC00530FC
:102D4000110509F074C065C01D85123008F06FC010
:102D5000992493946CC0C601B501A30192010E940D
:102D6000A0387B018C016E897F89888D998D0E94A6
:102D70006D379B01AC01C801B7010E94CB36882397
:102D80000CF055C0C601B50129E23CE54FE85FE310
:102D90000E94953818160CF04AC042E0942E47C0A5
:102DA000C601B501A30192010E94A0387B018C01EC
:102DB0006E857F85888999890E946B379B01AC015C
:102DC000C801B7010E94953818168CF533E0932E90
:102DD0002EC06A897B898C899D890E946B3720E08F
:102DE00030E040E251E40E94D2369B01AC0169859B
:102DF0007A858B859C850E94CB3687FD07C02F8105
:102E000038854D815E81241735078CF424E0922E9D
:102E10000EC06B817C81261637064CF47DE927169F
:102E20007FEF370621F0882011F495E0992E8A8DE6
:102E30009B8DA981BA818A179B0719F0992009F403
:102E40005CCF909259050E948C3468517C4F8F4F13
:102E50009F4F609355057093560580935705909347
:102E6000580580915B05813051F480916605813071
:102E700021F483EF94E00E94CA05109266058091C8
:102E80006705882319F424E632E023C080915905B0
:102E90008230A1F0833028F4882351F08130C9F4C6
:102EA0000AC0843089F0843060F0853091F40FC01E
:102EB00021E732E00EC02EE732E00BC02BE832E013
:102EC00008C028E932E005C025EA32E002C022EB62
:102ED00032E000D000D000D0EDB7FEB7319683EFDE
:102EE00094E0ADB7BEB712969C938E9311978AEB80
:102EF00091E093838283358324830E94F32CEDB782
:102F0000FEB736960FB6F894FEBF0FBEEDBF83EF47
:102F100094E00E9461056B960FB6F894DEBF0FBE79
:102F2000CDBFCF91DF911F910F91FF90EF90DF9078
:102F3000CF90BF90AF909F908F907F906F905F9059
:102F40004F903F902F900895EF92FF920F931F9311
:102F500080919005843009F068C08091200581300F
:102F600041F4809121058B3009F438C1813051F44E
:102F700035C1823009F032C18091210586508230FE
:102F800008F42CC190912105809191058917A1F138
:102F9000909391050E948C346093920570939305F1
:102FA0008093940590939505909191058091E0020E
:102FB000981711F580916605813091F0813018F0F5
:102FC0008230B1F413C011E0109366050E948C3476
:102FD00061567A4E8040904030F41093960508C0B8
:102FE00082E0809366051092960502C010926605F5
:102FF00083EF94E00E94CA050E948C3420919205D0
:10300000309193054091940550919505621B730B87
:10301000840B950B615D77408040904008F4DEC0E2
:10302000809121058093E002D9C0853029F48091F8
:10303000E1029091E20214C0863029F48091E3020B
:103040009091E4020DC0873029F48091E5029091BF
:10305000E60206C0883041F48091E7029091E802D0
:1030600090939805809397058091990520919705F5
:1030700030919805882309F04DC0B7E029303B070F
:10308000C8F00E948C3461567A4E8040904020F403
:1030900081E0809396050CC080919605813041F0C7
:1030A00080915B05813021F083EF94E00E94CA0596
:1030B00082E02DC084E0203B380768F480916605EB
:1030C000882349F01092960583EF94E00E94CA0588
:1030D0001092660583C0205B34402955324008F0C9
:1030E0007DC080919A05863009F478C0809166058C
:1030F000813009F473C080915B05813009F46EC0A2
:103100001092960583EF94E00E94CA0581E08093B7
:10311000660564C0215B344008F460C00E948C34B2
:1031200061567A4E8040904008F041C080919605EB
:103130008130E9F1E0909205F090930500919405BB
:103140001091950588EE93E0A0E0B0E0E80EF91E3E
:103150000A1F1B1F0E948C34E616F7060807190782
:10316000E8F581E08093960517C01092960583EFED
:1031700094E00E94CA0580916605823019F410928D
:10318000660503C08F5F8093660580916605823077
:1031900018F082E0809366050E948C34609392055B
:1031A00070939305809394059093950517C0E090D4
:1031B0009205F0909305009194051091950588EE85
:1031C00093E0A0E0B0E0E80EF91E0A1F1B1F0E946A
:1031D0008C34E616F7060807190738F21F910F918D
:1031E000FF90EF90089583EF94E00E94CA050E943B
:1031F00095150E945E080895CF93DF93AC01E0918E
:10320000A005F091A1052091A2053091A305C90167
:103210008C599F4F8E179F0714F0EA0102C0EA01F4
:10322000219724563040E217F3070CF42196842F9F
:1032300090E0C817D90749F080919A05882329F0B2
:1032400088E696E04C2F0E94AB33CE01DF91CF9100
:103250000895EF92FF920F931F930E948C34209158
:103260005505309156054091570550915805261740
:1032700037074807590708F03BC10E948C346C504F
:103280007E4F8F4F9F4F60935505709356058093E7
:1032900057059093580583EF94E00E94CA0583EF89
:1032A00094E065E047E00E94A50483EF94E00E946B
:1032B0007D058091A2059091A305892BB1F48091A1
:1032C000A4059091A505892B81F48091A00590918A
:1032D000A1059093A3058093A2058091A6059091E6
:1032E000A7059093A5058093A4052091A60530918C
:1032F000A7054091A4055091A505C90184569040A9
:103300004817590724F480919A058F5F08C02C59FB
:103310003F4F241735072CF480919A0581508093F4
:103320009A0580919A0587FF03C010929A0505C0FF
:1033300083301CF082E080939A0580919A05813059
:1033400009F443C0823009F47DC0882309F0D0C05D
:1033500000D000D003EF14E0ADB7BEB712961C93B7
:103360000E93119781EB91E014969C938E93139793
:103370000E94E22C00D000D0EDB7FEB73196ADB779
:10338000BEB712961C930E9311978FEB92E0938326
:1033900082838091610584831582809118058683DC
:1033A00017820E94F32CEDB7FEB738960FB6F8944B
:1033B000FEBF0FBEEDBF8091610590E06CE773E04A
:1033C0000E94FC188093610593C000D000D003EFE9
:1033D00014E0ADB7BEB712961C930E9311978FE908
:1033E00091E014969C938E9313970E94E22C00D048
:1033F00000D0EDB7FEB73196ADB7BEB712961C93AD
:103400000E9311978FEB92E09383828380916005F6
:103410008483158280911805868317820E94F32C7D
:10342000EDB7FEB738960FB6F894FEBF0FBEEDBFEE
:103430008091600590E06EE773E00E94FC18809335
:10344000600556C000D000D053EFE52E54E0F52EB5
:10345000ADB7BEB71296FC92EE9211978EE891E04E
:1034600014969C938E9313970E94E22CEDB7FEB7AF
:1034700038970FB6F894FEBF0FBEEDBF0DB71EB75D
:103480000F5F1F4FF282E18287EC92E0D801139622
:103490009C938E9312976091620570E080E090E0BB
:1034A0000E946B3720E030E040E251E40E94D236C7
:1034B000F801648375838683978386E790E091871C
:1034C000808780E290E0938782870E94F32C8DB7FB
:1034D0009EB70C960FB6F8949EBF0FBE8DBF80911D
:1034E000620590E060E873E00E94FC18809362053A
:1034F00083EF94E00E9461051F910F91FF90EF9080
:103500000895AF92BF92CF92DF92EF92FF920F9306
:103510001F930E948C345B016C010E946B377B010E
:103520008C016091B4057091B5058091B6059091BC
:10353000B70520E030E849E055E40E9405369B01DC
:10354000AC01C801B7010E94CB3688230CF0DFC262
:103550008091E902813031F41092E90283EF94E026
:103560000E94CA0580915305909154050B9700F174
:1035700080914E0590914F05A0915005B091510555
:103580002091B8053091B9054091BA055091BB051D
:10359000821B930BA40BB50B8A0D9B1DAC1DBD1D8F
:1035A00080934E0590934F05A0935005B09351051D
:1035B000A092B805B092B905C092BA05D092BB05E9
:1035C00080919005843010F00E94A4178091960598
:1035D000882309F099C280916605823009F475C28A
:1035E000A82FB0E0FD01E85AFB4F808180FF0BC09F
:1035F000FD01E454FB4F6081A654BB4F8C9190E0D9
:1036000070E00E94B71580916605A82FB0E0FD011B
:10361000EE5AFB4F808180FF0BC0FD01E45AFB4F47
:103620006081A65ABB4F8C9190E070E00E947215A9
:1036300080916605A82FB0E0FD01EE5AFB4F808116
:1036400081FF0BC0FD01E05AFB4F6081A25ABB4FC6
:103650008C9190E070E00E94E90E80916605A82FA1
:10366000B0E0FD01EE5AFB4F808182FF0BC0FD01EF
:10367000EC59FB4F6081AE59BB4F8C9190E070E0EC
:103680000E94A80E80916605A82FB0E0FD01EE5AB9
:10369000FB4F808183FF0BC0FD01E859FB4F608128
:1036A000AA59BB4F8C9190E070E00E94620E80910D
:1036B0006605A82FB0E0FD01EE5AFB4F808185FF23
:1036C0000BC0FD01E459FB4F6081A659BB4F8C91A3
:1036D00090E070E00E94D60D80916605A82FB0E0C2
:1036E000FD01EE5AFB4F808186FF0BC0FD01E059C2
:1036F000FB4F6081A259BB4F8C9190E070E00E941B
:10370000100E80916605A82FB0E0FD01EE5AFB4F28
:10371000808187FF0BC0FD01EC58FB4F6081AE58E4
:10372000BB4F8C9190E070E00E94840D8091660503
:10373000A82FB0E0FD01EE5AFB4F808184FF0BC043
:10374000FD01E858FB4F6081AA58BB4F8C9190E077
:1037500070E00E94F40F80916605A82FB0E0FD0193
:10376000EC5AFB4F808180FF0BC0FD01E458FB4FFA
:103770006081A658BB4F8C9190E070E00E94000DD4
:1037800080916605A82FB0E0FD01EC5AFB4F8081C7
:1037900081FF0BC0FD01E058FB4F6081A258BB4F79
:1037A0008C9190E070E00E94420D80916605A82FF8
:1037B000B0E0FD01EC5AFB4F808182FF0BC0FD01A0
:1037C000EC57FB4F6081AE57BB4F8C9190E070E09F
:1037D0000E949A148091BC05813051F58091660554
:1037E000A82FB0E0FD01EC5AFB4F808184FF0BC095
:1037F000FD01E457FB4F6081A657BB4F8C9190E0D1
:1038000070E00E942A0F80916605A82FB0E0FD01AC
:10381000EC5AFB4F808183FF0BC0FD01E857FB4F43
:103820006081AA57BB4F8C9190E070E00E94440CDD
:1038300080916605A82FB0E0FD01EC5AFB4F808116
:1038400087FF0BC0FD01E856FB4F6081AA56BB4FB6
:103850008C9190E070E00E94830F80916605A82F04
:10386000B0E0FD01EC5AFB4F808185FF0BC0FD01EC
:10387000E057FB4F6081A257BB4F8C9190E070E006
:103880000E94B90C80916605A82FB0E0FD01EC5AAA
:10389000FB4F808186FF0BC0FD01EC56FB4F608122
:1038A000AE56BB4F8C9190E070E00E945C0C809112
:1038B0006605A82FB0E0FD01EA5AFB4F808182FF28
:1038C0000BC0FD01E056FB4F6081A256BB4F8C91AF
:1038D00090E070E00E94E11180916605A82FB0E0B1
:1038E000FD01EA5AFB4F808187FF0BC0FD01EC55BB
:1038F000FB4F6081AE55BB4F8C9190E070E00E9411
:10390000231180916605A82FB0E0FD01EA5AFB4F14
:10391000808183FF0BC0FD01E855FB4F6081AA55F4
:10392000BB4F8C9190E070E00E94CC1080916605B6
:10393000A82FB0E0FD01EA5AFB4F808181FF0BC048
:10394000FD01E455FB4F6081A655BB4F8C9190E083
:1039500070E00E94751080916605A82FB0E0FD010F
:10396000EA5AFB4F808184FF0BC0FD01E055FB4FFD
:103970006081A255BB4F8C9190E070E00E943510A1
:1039800080916605A82FB0E0FD01EA5AFB4F8081C7
:1039900085FF0BC0FD01EC54FB4F6081AE54BB4F63
:1039A0008C9190E070E00E94A60B80916605A82F94
:1039B000B0E0FD01EA5AFB4F808186FF0BC0FD019C
:1039C000E854FB4F6081AA54BB4F8C9190E070E0AB
:1039D0000E94171580916605A82FB0E0FD01EA5AF4
:1039E000FB4F808180FF0BC0FD01E456FB4F6081DF
:1039F000A656BB4F8C9190E070E00E9438128091E7
:103A00006605A82FB0E0FD01E85AFB4F808182FFD8
:103A10000BC0FD01E054FB4F6081A254BB4F8C9161
:103A200090E070E00E947B1380916605A82FB0E0C3
:103A3000FD01E85AFB4F808183FF0BC0FD01EC5371
:103A4000FB4F6081AE53BB4F8C9190E070E00E94C1
:103A5000841180916605A82FB0E0FD01E85AFB4F64
:103A6000808184FF0BC0FD01E853FB4F6081AA53A6
:103A7000BB4F8C9190E070E00E948D1280916605A2
:103A8000A82FB0E0FD01E85AFB4F808186FF0BC0F4
:103A9000FD01E053FB4F6081A253BB4F8C9190E03E
:103AA00070E00E94F11380916605A82FB0E0FD013F
:103AB000E85AFB4F808185FF37C0FD01EC52FB4F78
:103AC0006081AE52BB4F8C911AC08091580480FF28
:103AD00008C06091BC048091BA0490E070E00E943C
:103AE000B7158091580485FF1FC0E0916605F0E08E
:103AF000DF01AC52BB4F6C91EE52FB4F808190E0E6
:103B000070E00E94C01310C00E9429190DC083EFFD
:103B100094E00E94CA0581E08093E90285E090E08C
:103B20006AE070E00E94F4141F910F91FF90EF90F3
:103B3000DF90CF90BF90AF900895CF93DF93EC01CB
:103B400083EF94E00E94A104C817D9073CF083EFEB
:103B500094E00E949604892B09F42397CE01DF910B
:103B6000CF910895EF92FF920F931F93CF93DF931E
:103B70000091660510E08AEF90E0089F7001099FB0
:103B8000F00C189FF00C1124C7010E941209F801D3
:103B9000EE5AFB4F882319F08081816002C080813A
:103BA0008E7F808380916605C82FD0E0C701029682
:103BB0000E941209C65ADB4F888380916605C82F80
:103BC000D0E0C70104960E94120990E00E949D1D5A
:103BD000C45ADB4F88830091660510E0C701885600
:103BE0009F4F0E941209F801EE5AFB4F882319F0EB
:103BF0008081806102C080818F7E80838091660594
:103C0000C82FD0E0C70186569F4F0E941209CA589C
:103C1000DB4F888380916605C82FD0E0C7018456AA
:103C20009F4F0E94120990E00E949D1DC858DB4FD3
:103C300088830091660510E0C70106960E9412096C
:103C4000F801EE5AFB4F882319F08081826002C090
:103C500080818D7F808380916605C82FD0E0C70169
:103C600008960E941209C25ADB4F8883809166052C
:103C7000C82FD0E0C7010A960E94120990E00E9466
:103C80009D1DC05ADB4F88830091660510E0C70177
:103C90000C960E941209F801EE5AFB4F882319F086
:103CA0008081846002C080818B7F808380916605E3
:103CB000C82FD0E0C7010E960E941209CE59DB4FE3
:103CC000888380916605C82FD0E0C70140960E9486
:103CD000120990E00E949D1DCC59DB4F8883009112
:103CE000660510E0C70142960E941209F801EE5ADB
:103CF000FB4F882319F08081886002C08081877F14
:103D0000808380916605C82FD0E0C70144960E9449
:103D10001209CA59DB4F888380916605C82FD0E00D
:103D2000C70146960E94120990E00E949D1DC85945
:103D3000DB4F88830091660510E0C7014E960E9414
:103D40001209F801EE5AFB4F882319F08081806236
:103D500002C080818F7D808380916605C82FD0E06E
:103D6000C70180960E941209C659DB4F8883809153
:103D70006605C82FD0E0C70182960E94120990E024
:103D80000E949D1DC459DB4F88830091660510E099
:103D9000C70184960E941209F801EE5AFB4F88234E
:103DA00019F08081806402C080818F7B8083809144
:103DB0006605C82FD0E0C70186960E941209C25935
:103DC000DB4F888380916605C82FD0E0C7018896B5
:103DD0000E94120990E00E949D1DC059DB4F88830C
:103DE0000091660510E0C7018A960E941209F80149
:103DF000EE5AFB4F882319F08081806802C08081D1
:103E00008F77808380916605C82FD0E0C7018C969C
:103E10000E941209CE58DB4F888380916605C82F17
:103E2000D0E0C7018E960E94120990E00E949D1D6D
:103E3000CC58DB4F88830091660510E0C701C0961F
:103E40000E941209F801EC5AFB4F882319F0808177
:103E5000816002C080818E7F808380916605C82F3B
:103E6000D0E0C701C2960E941209C658DB4F888372
:103E700080916605C82FD0E0C701C4960E94120940
:103E800090E00E949D1DC458DB4F88830091660519
:103E900010E0C701C6960E941209F801EC5AFB4FC8
:103EA000882319F08081826002C080818D7F8083A9
:103EB00080916605C82FD0E0C701C8960E941209FC
:103EC000C258DB4F888380916605C82FD0E0C701B8
:103ED000CA960E94120990E00E949D1DC058DB4FB7
:103EE00088830091660510E0C701CC960E941209F4
:103EF000F801EC5AFB4F882319F08081846002C0DE
:103F000080818B7F808380916605C82FD0E0C701B8
:103F1000CE960E941209CE57DB4F888380916605AA
:103F2000C82FD0E0C701805C9F4F0E94120990E02B
:103F30000E949D1DCC57DB4F88830091660510E0E1
:103F4000C701885B9F4F0E941209F801EC5AFB4F92
:103F5000882319F08081806102C080818F7E8083F8
:103F600080916605C82FD0E0C701865B9F4F0E94F5
:103F70001209C657DB4F888380916605C82FD0E0B1
:103F8000C701845B9F4F0E94120990E00E949D1D13
:103F9000C457DB4F88830091660510E0C7018E5B34
:103FA0009F4F0E941209F801EC5AFB4F882319F029
:103FB0008081886002C08081877F808380916605D0
:103FC000C82FD0E0C7018C5B9F4F0E941209CA57CF
:103FD000DB4F888380916605C82FD0E0C7018A5BDC
:103FE0009F4F0E94120990E00E949D1DC857DB4F11
:103FF00088830091660510E0C701805B9F4F0E9497
:104000001209F801EC5AFB4F882319F08081806275
:1040100002C080818F7D808380916605C82FD0E0AB
:10402000C7018E5A9F4F0E941209C257DB4F8883E7
:1040300080916605C82FD0E0C7018C5A9F4F0E941F
:10404000120990E00E949D1DC057DB4F88830091AC
:10405000660510E0C7018A5A9F4F0E941209F801B5
:10406000EC5AFB4F882319F08081806402C0808164
:104070008F7B808380916605C82FD0E0C701885A66
:104080009F4F0E941209CE56DB4F888380916605B0
:10409000C82FD0E0C701865A9F4F0E94120990E0B6
:1040A0000E949D1DCC56DB4F88830091660510E071
:1040B000C70182569F4F0E941209F801EC5AFB4F2C
:1040C000882319F08081806802C080818F77808387
:1040D00080916605C82FD0E0C70180569F4F0E948F
:1040E0001209CA56DB4F888380916605C82FD0E03D
:1040F000C7018E559F4F0E94120990E00E949D1D9E
:10410000C856DB4F88830091660510E0C7018E59C1
:104110009F4F0E941209F801EA5AFB4F882319F0B9
:104120008081816002C080818E7F8083809166055E
:10413000C82FD0E0C7018C599F4F0E941209C65664
:10414000DB4F888380916605C82FD0E0C7018A596C
:104150009F4F0E94120990E00E949D1DC456DB4FA4
:1041600088830091660510E0C70182599F4F0E9425
:104170001209F801EA5AFB4F882319F08081846004
:1041800002C080818B7F808380916605C82FD0E03C
:10419000C70180599F4F0E941209C256DB4F888386
:1041A00080916605C82FD0E0C7018E589F4F0E94AE
:1041B000120990E00E949D1DC056DB4F888300913C
:1041C000660510E0C70184579F4F0E941209F8014D
:1041D000EA5AFB4F882319F08081806802C08081F1
:1041E0008F77808380916605C82FD0E0C701825702
:1041F0009F4F0E941209CE55DB4F88838091660540
:10420000C82FD0E0C70180579F4F0E94120990E04D
:104210000E949D1DCC55DB4F88830091660510E000
:10422000C7018E569F4F0E941209F801EA5AFB4FB0
:10423000882319F08081826002C080818D7F808315
:1042400080916605C82FD0E0C7018C569F4F0E9411
:104250001209C655DB4F888380916605C82FD0E0D0
:10426000C7018A569F4F0E94120990E00E949D1D2F
:10427000C455DB4F88830091660510E0C7018C5858
:104280009F4F0E941209F801EA5AFB4F882319F048
:104290008081886002C08081877F808380916605ED
:1042A000C82FD0E0C7018A589F4F0E941209CA55F3
:1042B000DB4F888380916605C82FD0E0C7018858FE
:1042C0009F4F0E94120990E00E949D1DC855DB4F30
:1042D00088830091660510E0C70186589F4F0E94B1
:1042E0001209F801EA5AFB4F882319F08081806196
:1042F00002C080818F7E808380916605C82FD0E0C8
:10430000C70184589F4F0E941209C255DB4F888312
:1043100080916605C82FD0E0C70182589F4F0E9448
:10432000120990E00E949D1DC055DB4F88830091CB
:10433000660510E0C70180589F4F0E941209F801DE
:10434000EA5AFB4F882319F08081806202C0808185
:104350008F7D808380916605C82FD0E0C7018E577E
:104360009F4F0E941209CE54DB4F888380916605CF
:10437000C82FD0E0C7018C579F4F0E94120990E0D0
:104380000E949D1DCC54DB4F88830091660510E090
:10439000C7018A579F4F0E941209F801EA5AFB4F42
:1043A000882319F08081806402C080818F7B8083A4
:1043B00080916605C82FD0E0C70188579F4F0E94A3
:1043C0001209CA54DB4F888380916605C82FD0E05C
:1043D000C70186579F4F0E94120990E00E949D1DC1
:1043E000C854DB4F88830091660510E0C7018C55E7
:1043F0009F4F0E941209F801E85AFB4F882319F0D9
:104400008081816002C080818E7F8083809166057B
:10441000C82FD0E0C7018A559F4F0E941209C65489
:10442000DB4F888380916605C82FD0E0C70188558F
:104430009F4F0E94120990E00E949D1DC454DB4FC3
:1044400088830091660510E0C70180559F4F0E9448
:104450001209F801E85AFB4F882319F08081846023
:1044600002C080818B7F808380916605C82FD0E059
:10447000C7018E549F4F0E941209C254DB4F88839C
:1044800080916605C82FD0E0C7018C549F4F0E94D1
:10449000120990E00E949D1DC054DB4F888300915B
:1044A000660510E0C7018A549F4F0E941209F80167
:1044B000E85AFB4F882319F08081886002C0808110
:1044C000877F808380916605C82FD0E0C70188541C
:1044D0009F4F0E941209CE53DB4F8883809166055F
:1044E000C82FD0E0C70186549F4F0E94120990E068
:1044F0000E949D1DCC53DB4F88830091660510E020
:10450000C70184549F4F0E941209F801E85AFB4FDB
:10451000882319F08081806102C080818F7E808332
:1045200080916605C82FD0E0C70182549F4F0E943A
:104530001209CA53DB4F888380916605C82FD0E0EB
:10454000C70180549F4F0E94120990E00E949D1D58
:10455000C853DB4F88830091660510E0C7018E5376
:104560009F4F0E941209F801E85AFB4F882319F067
:104570008081806802C080818F778083809166050A
:10458000C82FD0E0C7018C539F4F0E941209C65319
:10459000DB4F888380916605C82FD0E0C7018A531E
:1045A0009F4F0E94120990E00E949D1DC453DB4F53
:1045B00088830091660510E0C701845A9F4F0E94CE
:1045C0001209F801E85AFB4F882319F080818064B2
:1045D00002C080818F7B808380916605C82FD0E0E8
:1045E000C701825A9F4F0E941209C253DB4F888332
:1045F00080916605C82FD0E0C701805A9F4F0E9466
:10460000120990E00E949D1DC053DB4F88830091EA
:10461000660510E0C70188539F4F0E941209F801F8
:10462000E85AFB4F882319F08081806202C08081A4
:104630008F7D808380916605C82FD0E0C7018653A7
:104640009F4F0E941209CE52DB4F888380916605EE
:10465000C82FD0E0C70184539F4F0E94120990E0F9
:104660000E949D1DCC52DB4F8883DF91CF911F911B
:104670000F91FF90EF9008958F929F92AF92BF920B
:10468000CF92DF92FF920F931F93CF93DF93F62E7B
:104690004901C82EDD248601000F111F5801AC0C02
:1046A000BD1CE501CC0FDD1FCC0FDD1FC45CD94F55
:1046B00018828B819C818430910509F48EC08530ED
:1046C00091055CF48230910509F443C08330910573
:1046D0000CF0BFC09923C4F44FC28730910509F490
:1046E00043C18830910544F48530910509F4DEC05A
:1046F000069709F041C207C18830910509F47AC1D3
:10470000099709F039C2E7C18EEF681709F034C282
:1047100082E090E09C838B8380E790E0C89ED0018C
:10472000C99EB00DD89EB00D1124A453BA4F139654
:104730001C92139788E390E0C89EF001C99EF00D8B
:10474000D89EF00D1124EE0FFF1FE253FA4F608345
:10475000A4C1E5E6E61788F489818F5F8983F501B6
:10476000EE0FFF1FEE0FFF1FE25CF94F80818F5F9E
:104770008083188281E090E02DC080E790E0C89EA1
:10478000F001C99EF00DD89EF00D1124E453FA4FAC
:1047900063831D8280818627282F2295207F2827EA
:1047A00030E0522F4427C90163E0880F991F6A95B2
:1047B000E1F748275927818190E04827592784E06D
:1047C000359527958A95E1F74227532751834083F2
:1047D00084E090E09C838B83CFC18CE190E0C89E05
:1047E000F001C99EF00DD89EF00D1124EE0FFF1FB1
:1047F000EE0FFF1FE053FA4F608380E790E0C89E02
:10480000F001C99EF00DD89EF00D1124E453FA4F2B
:1048100080818627282F2295207F282730E0522F5D
:104820004427C901B3E0880F991FBA95E1F74827DB
:104830005927818190E048275927A4E0359527958D
:10484000AA95E1F7422753275183408383E090E004
:10485000C1CF80E790E0C89EF001C99EF00DD89EC0
:10486000F00D1124E453FA4F658380818627282FA9
:104870002295207F282730E0522F4427C90163E08A
:10488000880F991F6A95E1F748275927818190E0A1
:104890004827592704E0359527950A95E1F74227DF
:1048A00053275183408385E090E094CF80E790E0E8
:1048B000C89EF001C99EF00DD89EF00D1124E4535E
:1048C000FA4F668380818627282F2295207F28270C
:1048D00030E0522F4427C901B3E0880F991FBA95E1
:1048E000E1F748275927818190E048275927A4E01C
:1048F00035952795AA95E1F74227532751834083A1
:1049000086E090E067CF80E790E0C89EF001C99E06
:10491000F00DD89EF00D1124E453FA4F6783808187
:104920008627282F2295207F282730E0522F4427E2
:10493000C90163E0880F991F6A95E1F74827592755
:10494000818190E04827592794E0359527959A95DD
:10495000E1F742275327518340838381882309F459
:1049600046C087E090E036CF6D81F80183E0EE0F1E
:10497000FF1F8A95E1F7E01BF10B3196B3E0EE0FD4
:10498000FF1FBA95E1F7E60FF11DE453FA4FF082ED
:104990006F5F6D8380E790E0C89EF001C99EF00DC7
:1049A000D89EF00D1124E453FA4F80818F25282FD3
:1049B0002295207F282730E0522F4427C90173E039
:1049C000880F991F7A95E1F748275927818190E050
:1049D0004827592794E0359527959A95E1F742277E
:1049E0005327518340838381681709F0C5C088E04D
:1049F00090E0F0CE80E790E0C89ED001C99EB00D57
:104A0000D89EB00D1124A453BA4F9C911796EC91E7
:104A10001797F0E0EE5FFC4F80818927482F429581
:104A2000407F482750E0342F2227CA01F3E0880F47
:104A3000991FFA95E1F72827392711968C9111973C
:104A400090E028273927E4E055954795EA95E1F766
:104A50002427352711963C932E93862F90E03070B3
:104A600082179307F9F0F501EE0FFF1FEE0FFF1FFE
:104A7000E25CF94F80818F5F8083188281E090E053
:104A80009C838B83FEEF6F1709F076C082E090E085
:104A90009C838B8313961C9213978FEF9FEF8D93BC
:104AA0009C936AC089E090E09C838B83F80163E06B
:104AB000EE0FFF1F6A95E1F7E01BF10B319653E013
:104AC000EE0FFF1F5A95E1F78D81E80FF11DE453BA
:104AD000FA4FF08251C0262F30E080E790E0C89E68
:104AE000B001C99E700DD89E700D112464537A4F89
:104AF000FB01818190E028173907E9F0F501EE0FFD
:104B0000FF1FEE0FFF1FE25CF94F80818F5F8083F4
:104B1000188281E090E09C838B83FEEFFF1661F5A5
:104B200082E090E09C838B83EB011B828FEF9FEFF1
:104B30009983888321C081E0888381E090E09C8311
:104B40008B83F80133E0EE0FFF1F3A95E1F7E01B8E
:104B5000F10B319623E0EE0FFF1F2A95E1F78D81CF
:104B6000E80FF11DE353FA4FF082DA01FB0180E711
:104B700001900D928150E1F7D601AA0FBB1FAC0D39
:104B8000BD1DAA0FBB1FAA0FBB1FA45CB94F8C9100
:104B9000813069F58CE190E0C89EF001C99EF00D6E
:104BA000D89EF00D1124EE0FFF1FEE0FFF1FE053F4
:104BB000FA4F808116968C93169718968D919C913A
:104BC0001997892B21F41B961C921E921A97F601B5
:104BD000EE0FFF1FEC0DFD1DEE0FFF1FEE0FFF1F71
:104BE000E45CF94F80859185019691878087F60175
:104BF000EE0FFF1FEC0DFD1DEE0FFF1FEE0FFF1F51
:104C0000DF01A45CB94F16968C9116978F5FE40173
:104C10008E8318968D919C91199799878887E25C6D
:104C2000F94F80818A871B8610828C91DF91CF910A
:104C30001F910F91FF90DF90CF90BF90AF909F900A
:104C40008F9008954F925F927F928F929F92AF9232
:104C5000BF92CF92DF92EF92FF920F931F93DF9359
:104C6000CF93CDB7DEB7C854D0400FB6F894DEBFAF
:104C70000FBECDBF03EF14E0C8010E94CA05C801F2
:104C800066E049E00E94A504C8010E947D0500D0AD
:104C900000D0EDB7FEB7128301838EE092E09483DB
:104CA00083830E94E22C0F900F900F900F90C80109
:104CB0000E94610500D000D006ED14E0EDB7FEB70C
:104CC000128301838EEF91E0948383830E94E22C10
:104CD00033EF432E31E0532ECC24DD24EE24FF2489
:104CE0000F900F900F900F90702E012F29E0A22EA1
:104CF000B12CAC0EBD1E4E010894811C911C86ED9A
:104D000094E00E94962D982F8D3031F08D30DCF19B
:104D100080538230C0F530C01830A1F59981892FB9
:104D20008053823078F5913311F490E801C090E01F
:104D30008A81813309F4905C8B81813309F4905E20
:104D40008C81813309F4905F8D81813309F4985F00
:104D50008E81813309F49C5F8F81813309F49E5FDA
:104D60008885813309F49F5FF501EE0DFF1D908367
:104D70000894E11CF11C06C0F401E10FF11D9083C1
:104D80001F5F01C010E0F0E4EF16F104C9F483EFF7
:104D900094E0B601A5010E94B5040894C11CD11C81
:104DA00000D000D0EDB7FEB77182028354824382F7
:104DB0000E94E22CEE24FF240F900F900F900F9092
:104DC000FFEFCF16D10409F00CF499CFC85BDF4F89
:104DD0000FB6F894DEBF0FBECDBFCF91DF911F910C
:104DE0000F91FF90EF90DF90CF90BF90AF909F908A
:104DF0008F907F905F904F900895AF92BF92CF9227
:104E0000DF92EF92FF920F931F93DF93CF93CDB773
:104E1000DEB7CC57D0400FB6F894DEBF0FBECDBF83
:104E20004DE0E42EF12CEC0EFD1E5E010894A11C59
:104E3000B11CCC24C3948E010B5E1F4F01C286EDC2
:104E400094E00E94962DD82E8091BD05882311F5FF
:104E50000E948C3460527E4480409040D8F40E947E
:104E60008C346958734180409040A0F0FAE0DF161E
:104E700019F02DE0D21631F48091BE058F5F80933A
:104E8000BE0502C01092BE058091BE05833011F4AC
:104E90000E94222680E06D2DA70195010E943C23EF
:104EA000882309F4C9C1C092BD058C89833209F4F5
:104EB00071C1843260F4813009F442C08130B8F0AD
:104EC000883109F45DC08E3109F0B6C1DDC08E3382
:104ED00009F408C18F3320F48A3209F0ADC155C1FD
:104EE0008A3409F486C0883A09F0A6C17FC1C0920D
:104EF0002D058A898093BF058B898093C005F801B1
:104F0000848180932005F701808580932105F80135
:104F100086818093C1058823880F880B8C2180931C
:104F200067051092C2050E948C340E946B37609313
:104F3000B4057093B5058093B6059093B7057CC111
:104F4000F7016689778980E090E00E946B3720E066
:104F500030E04AE754E40E94D236609346057093ED
:104F600047058093480590934905F701808D918D01
:104F7000909379058093780586A1809352055CC152
:104F8000F70160897189828993890E946D3720E8D1
:104F900036E948E15BE40E94D23660933A057093AB
:104FA0003B0580933C0590933D05F7016489758925
:104FB000868997890E946D3720E836E948E15BE4ED
:104FC0000E94D23660933E0570933F058093400562
:104FD00090934105F801848D80934305858D8093DE
:104FE0004205F701848D958D909345058093440586
:104FF00023C1F80180819181A281B3818093DA027B
:105000009093DB02A093DC02B093DD028481958152
:10501000A681B7818093680590936905A0936A057E
:10502000B0936B05F701608D718D882777FD8095B2
:10503000982F0E946D3760932805709329058093FF
:105040002A0590932B05F701828D938D909354053B
:105050008093530580899189A289B38980936C05D7
:1050600090936D05A0936E05B0936F05F80184854C
:105070009585A685B7858093740590937505A09353
:105080007605B0937705D8C0F70160897189828968
:10509000938921EE3EE245E652E40E94A0380E9448
:1050A0003A3760931A05F80164817581868197818A
:1050B00021EE3EE245E652E40E94A0380E943A37D3
:1050C00060931B05F801648575858685978521EEBB
:1050D0003EE245E652E40E94A0380E943A376093CF
:1050E000C305AAC0F80180819181A281B381809318
:1050F0007A0590937B05A0937C05B0937D05848110
:105100009581A681B78180937E0590937F05A093BA
:105110008005B09381058489958990938305809358
:105120008205868997899093270580932605F70144
:1051300080A191A190932505809324058089918970
:10514000A289B3898093840590938505A0938605F1
:10515000B0938705F80184859585A685B7858093EA
:105160008C0590938D05A0938E05B0938F05F70164
:10517000808D918DA28DB38D809388059093890544
:10518000A0938A05B0938B0557C0F7018085809363
:10519000230552C0F801848195819093A1058093E5
:1051A000A005868197819093A7058093A6058485A5
:1051B00095859093E2028093E1028685978590938E
:1051C000E4028093E302F701808D918D9093E602D3
:1051D0008093E502F801828993899093E802809395
:1051E000E702F701858D8093B10526C0F801808123
:1051F0009181A281B38180939B0590939C05A0939C
:105200009D05B0939E0584819581A681B781809389
:105210001C0590931D05A0931E05B0931F05F70173
:1052200080899189A289B3898093C4059093C5052B
:10523000A093C605B093C7058AE890E00E94F334B6
:1052400086ED94E00E94662D181619060CF4F7CD31
:105250008091C8059091C9052B853C85820F931FCD
:105260009093C9058093C8052B818091CA059091C0
:10527000CB05820F911D9093CB058093CA05C4582E
:10528000DF4F0FB6F894DEBF0FBECDBFCF91DF91D9
:105290001F910F91FF90EF90DF90CF90BF90AF9054
:1052A00008952F923F924F925F926F927F928F92CA
:1052B0009F92AF92BF92CF92DF92EF92FF921F9395
:1052C000CF93DF9385E090E06CE070E00E94D11412
:1052D00064EF71E080E090E00E949A34A6E42A2E08
:1052E000A2E03A2EFEE34F2EF2E05F2EE6E36E2EB2
:1052F000E2E07E2E7EE2872E72E0972E66E2A62EF8
:1053000062E0B62E5DE1C52E52E0D52EEE24FF24DC
:1053100010E0C3EFD4E0C7016AEF70E00E94C63925
:10532000892B09F091C01F5F83EF94E061E14CE0AD
:105330000E94A50483EF94E00E947D05143009F4D7
:1053400044C0153050F4113019F11130C0F0123052
:1053500051F1133009F074C02FC0173009F450C058
:10536000183030F41530D1F1163009F069C03FC063
:10537000183009F44EC0193009F062C053C000D093
:1053800000D0EDB7FEB7D283C18386E692E008C0B5
:1053900000D000D0EDB7FEB7D283C1838EE592E096
:1053A0009483838347C000D000D0EDB7FEB7D2838B
:1053B000C18386E592E0F4CF00D000D0EDB7FEB710
:1053C000D283C1838EE492E0EBCF00D000D0EDB762
:1053D000FEB7D283C183348223822CC000D000D098
:1053E000EDB7FEB7D283C1835482438223C000D07D
:1053F00000D0EDB7FEB7D283C183748263821AC036
:1054000000D000D0EDB7FEB7D283C18394828382EF
:1054100011C000D000D0EDB7FEB7D283C183B482F3
:10542000A38208C000D000D0EDB7FEB7D283C183FD
:10543000D482C3820E94E22C0F900F900F900F90A5
:1054400083EF94E00E94610561E070E080E090E00D
:105450000E949A340894E11CF11CF1EDEF16F7E07C
:10546000FF0609F058CFDF91CF911F91FF90EF9089
:10547000DF90CF90BF90AF909F908F907F906F9074
:105480005F904F903F902F90089586E061E00E94DA
:10549000773508950F931F9380914806813009F066
:1054A00051C003EF14E0C8010E94CA05C80163E0BF
:1054B0004AE00E94A504C8010E947D0500D000D0EA
:1054C000EDB7FEB7128301838EE692E09483838367
:1054D0000E94E22C0F900F900F900F90C8010E9435
:1054E00061050E942B0762E370E080E090E00E947B
:1054F0009A340E942B0762E370E080E090E00E9403
:105500009A340E942B0762E370E080E090E00E94F2
:105510009A341092480660ED77E080E090E00E94B7
:105520009A34C8010E94CA051092E9020E948C3484
:105530000E946B376093B4057093B5058093B605F0
:105540009093B7050E94FD2685E095E00E94053402
:105550001F910F9108950F931F93CF93DF9386E0D0
:1055600061E00E94383506ED14E0C80140E051EEDC
:1055700060E070E00E94042D10936A0600936906B3
:105580000E94452AC3EFD4E0CE010E9403060E9488
:10559000F31864EF71E080E090E00E949A3482EFAB
:1055A00093E00E9412098C34E1F0CE0163E049E0FF
:1055B0000E94A504CE010E947D0500D000D0EDB769
:1055C000FEB7D283C18388E892E0948383830E94EC
:1055D000E22C0F900F900F900F90CE010E9461056A
:1055E000FFCF0E94A2081092660507C00E94B21D5C
:1055F000809166058F5F8093660580916605823095
:10560000A8F3109266050E94512985E095E06CE9A7
:105610007CE228E730E040E050E000E00E94B73351
:1056200083EF94E00E94CA0585E095E00E941D3456
:10563000DF91CF911F910F9108952F923F924F923A
:105640005F926F927F928F929F92AF92BF92CF9212
:10565000DF92EF92FF920F931F93DF93CF9300D0CF
:1056600000D0CDB7DEB78091BC05882389F5809145
:105670004305833009F049C1809144059091450567
:105680008C52914008F041C180913A0590913B05C0
:10569000A0913C05B0913D058093490690934A0640
:1056A000A0934B06B0934C0680913E0590913F0528
:1056B000A0914005B091410580934D0690934E0610
:1056C000A0934F06B093500681E08093BC051DC1A6
:1056D000813009F01AC1A090510688E18A15B0F115
:1056E000E0906C05F0906D0500916E0510916F05CE
:1056F0006091520670915306809154069091550620
:10570000A80197010E9404369F7720E030E040E036
:105710005FE30E94953818165CF410925106E092EF
:105720005206F092530600935406109355060EC08D
:105730008A2D8F5F80935106893141F4E092700584
:10574000F09271050093720510937305E09049067D
:10575000F0904A0600914B0610914C06C801B70123
:105760009F7725E33AEF4EE85CE30E94A0380E9461
:10577000CF3669837A838B839C83C801B7012091DC
:105780003A0530913B0540913C0550913D050E9402
:1057900004361B012C019F7720EC3BE649ED57E4D2
:1057A0000E94A0385B016C0160914D0670914E061D
:1057B00080914F069091500620913E0530913F0513
:1057C00040914005509141050E9404363B014C0137
:1057D0009F7720EC3BE649ED57E40E94A0382981F1
:1057E0003A814B815C810E94A0387B018C01C6010B
:1057F000B501A60195010E94A0385B016C01C801AA
:10580000B701A80197010E94A0389B01AC01C60115
:10581000B5010E9405360E9427390E943A376093ED
:105820004A0570934B0580934C0590934D0560E0BD
:1058300070E080E89FE329813A814B815C810E947E
:10584000D2369B01AC01C201B1010E94A03897FA87
:10585000909497F89094A40193010E94783620EEDA
:105860003EE245E652E40E94A03820E030E044EBFE
:1058700052E40E9405360E943A379B01AC0197FF23
:1058800004C028593E4F4F4F5F4FCA01B901645BB6
:1058900070408040904097FF06C0CA01B9016C5427
:1058A0007F4F8F4F9F4F0E946D3720912805309179
:1058B000290540912A0550912B050E9404360E942B
:1058C0003A3797FF04C068597E4F8F4F9F4F0E9411
:1058D0006D3720E030E044EB53E40E94D23620E004
:1058E00030E040E851E40E94A0380E94033920E0F3
:1058F00030E040E85FE30E9405360E943F37609346
:105900002205613110F0109222050F900F900F9038
:105910000F90CF91DF911F910F91FF90EF90DF904B
:10592000CF90BF90AF909F908F907F906F905F903F
:105930004F903F902F9008950E94710B80915205D7
:105940008B3010F484EB11C0853110F485EB0DC061
:10595000893210F486EB09C08D3310F487EB05C053
:10596000813510F089EB01C088EB8093D90283EF79
:1059700094E00E941D2B0E94811A08956EBD0DB403
:1059800007FEFDCF8EB508958DE061E00E943835A9
:105990008BE061E00E9438358CE060E00E94383591
:1059A0008AE061E00E9438351CBC80E58CBD8DB575
:1059B0008EB5089586E596E00E94C42C08958FEF79
:1059C0009FE70895DF93CF93CDB7DEB7FE013996F9
:1059D0008D819E8161E04F8158859F010E94832FB8
:1059E000CF91DF910895DF93CF93CDB7DEB7FE015E
:1059F00039968D819E8160E04F8158859F010E947C
:105A0000832FCF91DF9108950F931F93DC01ED91C8
:105A1000FC910288F389E02D20E030E000E010E006
:105A200009951F910F9108958F92AF92CF92EF92A7
:105A3000FF920F931F93DF93CF93CDB7DEB7FC0197
:105A40001382128288EE93E0A0E0B0E08483958315
:105A5000A683B7838CE394E0918380835587448742
:105A600037872687118B008BF38AE28AC48AA58A3E
:105A7000868A70E0CB0123E0880F991F2A95E1F711
:105A80009C01295A394F308F278B815A994F928F19
:105A9000818F81E090E002C0880F991F6A95E2F73C
:105AA00020916706282B20936706CF0140E051EE36
:105AB00060E070E00E94042DCF91DF911F910F9163
:105AC000FF90EF90CF90AF908F900895FC01838D61
:105AD000882319F42FEF3FEF0DC00788F08DE02DDC
