:100000000C9474010C949C010C949C010C949C0124
:100010000C949C010C949C010C949C010C949C01EC
:100020000C949C010C949C010C949C010C949C01DC
:100030000C949C010C949C010C949C010C949C01CC
:100040000C948D320C949C010C94F8040C9434059F
:100050000C949C010C949C010C949C010C949C01AC
:100060000C949C010C949C01084AD73B3BCE016E3A
:1000700084BCBFFDC12F3D6C74319ABD56833DDAFF
:100080003D00C77F11BED9E4BB4C3E916BAAAABE0E
:10009000000000803F05A84CCDB2D44EB93836A937
:1000A000020C50B9918688083CA6AAAA2ABE000074
:1000B00000803F0664EC1B3C04BC163E3BE5B93CAB
:1000C000C93C37C29E5A3D660498083EEA69AAAA0E
:1000D0003E000000803F2020202020202020002003
:1000E00020202020202020202020202020207C20B4
:1000F00020202020202020202020202020207CC6FE
:10010000202020202020202020202020C5207C20EE
:1001100020202020202020202020202020207C2083
:10012000202020202020202020202020202000B05F
:10013000B1B2B3B47CB5B6B7B8B97C4D696E696D70
:100140004F53442D457874726120322E347C436FB6
:1001500070746572004F534420496E697469616C14
:10016000697A65642C207265626F6F740043686100
:100170007220446F6E650A00526561647920666F73
:100180007220466F6E740A0000407A10F35A00A085
:10019000724E18090010A5D4E80000E87648170050
:1001A00000E40B54020000CA9A3B000000E1F50590
:1001B000000080969800000040420F000000A086DA
:1001C00001000000102700000000E803000000000C
:1001D0006400000000000A000000000001000000B0
:1001E00000002C76D888DC674F0823DFC1DFAE59CA
:1001F000E1B1B796E5E3E453C63AE651997696E85D
:10020000E6C28426EB898C9B62ED407C6FFCEFBCE0
:100210009C9F40F2BAA56FA5F490055A2AF75C930B
:100220006B6CF9676DC11BFCE0E40D47FEF520E641
:10023000B500D0ED902E0300943577050080841E24
:10024000080000204E0A000000C80C333333330F7F
:10025000986E12831141EF8D2114893BE65516CF1C
:10026000FEE6DB18D1844B381BF77C1D901DA4BB28
:10027000E424203284725E228100C9F124ECA1E5DD
:100280003D276E616E00696E66000000000024006C
:1002900027002A0000000000250028002B00000095
:1002A00000002300260029000404040404040404BC
:1002B0000202020202020303030303030102040811
:1002C00010204080010204081020010204081020C0
:1002D0000000000700020100000304060000000007
:1002E000000000009A05FA2911241FBECFEFD8E0C4
:1002F000DEBFCDBF14E0A0E0B1E0E4E3F1E702C06F
:1003000005900D92AE31B107D9F716E0AEE1B4E039
:1003100001C01D92AA36B107E1F712E0C8EED2E0A3
:1003200004C02297FE010E949438C43ED107C9F749
:100330000E9414340C9498380C940000283008F073
:1003400027E03327DA01990F311D87FD9160009670
:100350006105710539F432602E5F3D9330E32A95D3
:10036000E1F708959F3F30F080387105610509F08D
:100370003C5F3C5F3D93913008F08068911DDF93B6
:10038000CF931F930F93FF92EF92192F987F96951B
:10039000E92F96959695E90FFF27EE51FE4F992785
:1003A0003327EE24FF24A701E70105900894079462
:1003B00028F4360FE71EF81E491F511D660F771FE0
:1003C000881F991F0694A1F70590079428F4E70E5B
:1003D000F81E491F561FC11D770F881F991F661FE2
:1003E0000694A1F70590079428F4F80E491F561FAC
:1003F000C71FD11D880F991F661F771F0694A1F78D
:100400000590079420F4490F561FC71FD81F990F56
:10041000661F771F881F0694A9F78491109517709F
:1004200041F0D695C79557954795F794E7941A9557
:10043000C1F7E8E8F1E06894159015913591659160
:10044000959105907FE27395E118F10A430B560BE5
:10045000C90BD009C0F7E10CF11E431F561FC91F7D
:10046000D01D7EF4703311F48A95E6CFE8940150E4
:1004700030F0080F0AF40027021708F4202F239504
:10048000022F7A3328F079E37D932A95E9F710C09B
:100490007D932A9589F606949795679537951795D4
:1004A0001794E118F10A430B560BC90BD00998F0C9
:1004B00023957E9173957A3308F070E37C93201333
:1004C000B8F77E9170617D9330F0839571E37D93F1
:1004D00070E32A95E1F71124EF90FF900F911F919F
:1004E000CF91DF91992787FD90950895FA01AA276A
:1004F000283051F1203181F1E8946F936E7F6E5F67
:100500007F4F8F4F9F4FAF4FB1E03ED0B4E03CD014
:10051000670F781F891F9A1FA11D680F791F8A1FF7
:10052000911DA11D6A0F711D811D911DA11D20D05E
:1005300009F468943F912AE0269F11243019305D18
:100540003193DEF6CF010895462F4770405D419309
:10055000B3E00FD0C9F7F6CF462F4F70405D4A3356
:1005600018F0495D31FD4052419302D0A9F7EACF1E
:10057000B4E0A6959795879577956795BA95C9F74D
:1005800000976105710508959B01AC010A2E069440
:100590005795479537952795BA95C9F7620F731FF9
:1005A000841F951FA01D0895FC01059061507040A7
:1005B0000110D8F7809590958E0F9F1F0895FC012C
:1005C0006150704001900110D8F7809590958E0F82
:1005D0009F1F0895FC011382128288EE93E0A0E031
:1005E000B0E084839583A683B78383ED92E0918303
:1005F00080830895FC018089803419F421E030E083
:1006000002C020E030E0C9010895FC01818990E03A
:100610000895FC016487458766874787089580E0D1
:1006200090E0089580E090E0089580E090E00895E3
:100630000895EF92FF921F93CF93DF93162F7A01C5
:1006400086E060E00E94C03388E496E060E00E94AB
:10065000DE2988E496E060E00E94DE2988E496E0E6
:1006600069E00E94DE2988E496E0612F0E94DE297D
:10067000C0E0D0E0F701EC0FFD1F108188E496E0A8
:100680006AE00E94DE2988E496E06C2F0E94DE2951
:1006900088E496E06BE00E94DE2988E496E0612F12
:1006A0000E94DE292196C633D10521F788E496E021
:1006B00068E00E94DE2988E496E060EA0E94DE2974
:1006C00088E496E060EA0E94DE2985FDF9CF88E49F
:1006D00096E060E00E94DE2988E496E06CE00E94EB
:1006E000DE2986E061E00E94C033DF91CF911F9147
:1006F000FF90EF9008951F93CF93DF93EC01162F97
:1007000086E060E00E94C03388E496E060E00E94EA
:10071000DE29112319F0113059F404C088E496E061
:10072000688904C068896C6188E496E00E94DE29CB
:1007300086E061E00E94C033DF91CF911F91089560
:10074000EF92FF920F931F938EE1489F7001112447
:10075000E60EF11C86E060E00E94C03308E416E07B
:10076000C80165E00E94DE29C8016F2D0E94DE29C4
:10077000C80166E00E94DE29C8016E2D0E94DE29B4
:100780001F910F91FF90EF900895EF92FF920F93BA
:100790001F937C0108E416E0C80167E00E94DE298F
:1007A000C8016FEF0E94DE2986E061E00E94C0333D
:1007B000F70187858F5F87871F910F91FF90EF90DB
:1007C0000895EF92FF920F931F93FC01E7848EE14F
:1007D000E89E700111248685E80EF11C86E060E039
:1007E0000E94C03308E416E0C80164E00E94DE29DC
:1007F000C80163E00E94DE29C80165E00E94DE298D
:10080000C8016F2D0E94DE29C80166E00E94DE2922
:10081000C8016E2D0E94DE291F910F91FF90EF906D
:1008200008951F93CF93DF93EC01162F6C3731F4AB
:100830000E94C503CE010E94E1030AC088E496E04D
:1008400067E00E94DE2988E496E0612F0E94DE299D
:1008500081E090E0DF91CF911F9108950F931F9356
:1008600086E060E00E94C03308E416E0C80164E05E
:100870000E94DE29C80164E00E94DE2986E061E072
:100880000E94C0331F910F9108951F938AE596E04F
:1008900066E973E00E94C430882361F0813011F46E
:1008A00012E009C0823011F411E005C0833011F468
:1008B00010E001C013E010921F0410921E0417C034
:1008C00060911E0470911F04605F88E496E00E94AE
:1008D000DE2988E496E0612F0E94DE2980911E04C3
:1008E00090911F04019690931F0480931E048091A1
:1008F0001E0490911F0440971CF31F910895CF93FD
:10090000DF93EC0186E060E00E94C03388E496E06B
:1009100060EA0E94DE2988E496E06FEF0E94DE29FB
:1009200080FF05C080E4888B88E0898B13C08AE54E
:1009300096E060E973E00E94C430882319F4188AB5
:1009400086E003C080E4888B88E0898B86E060E0E5
:100950000E94C033DF91CF910895CF92DF92FF9232
:100960000F931F936C0186E061E00E94813382E067
:1009700060E00E94813382E061E00E94C033C601E2
:100980000E947F0486E060E00E94C03308E416E025
:10099000C8016CEE0E94DE29C8016FEF0E94DE29BB
:1009A000F82EC80160E00E94DE29F60160896260CD
:1009B000C8010E94DE2962E370E080E090E00E94BE
:1009C000E332C8016CE60E94DE29FFEEFF22C80177
:1009D0006F2D0E94DE29C6010E944504C60161E018
:1009E0000E947B031F910F91FF90DF90CF9008959D
:1009F0001F920F920FB60F9211242F933F934F9394
:100A00008F939F93EF93FF934091C60020914906E7
:100A100030914A062F5F3F4F80914D0690914E06D0
:100A20002823392380914B0690914C0628173907CB
:100A300079F08091490690914A06E0914F06F09135
:100A40005006E80FF91F408330934A062093490669
:100A5000FF91EF919F918F914F913F912F910F9027
:100A60000FBE0F901F9018951F920F920FB60F9206
:100A700011242F933F938F939F93EF93FF93209194
:100A800053063091540680915106909152062817D2
:100A90003907E9F08091530690915406E09157068A
:100AA000F0915806E80FF91F80818093C60080916D
:100AB00053069091540601962091550630915606A2
:100AC00082239323909354068093530610C0209161
:100AD0005106309152068091530690915406281782
:100AE000390729F48091C1008F7D8093C100FF9167
:100AF000EF919F918F913F912F910F900FBE0F908B
:100B00001F9018959B0165E070E00E944238621BBF
:100B1000730B77FF02C060E070E06530710514F080
:100B200064E070E06450704088279927861B970B1B
:100B3000875708958F92AF92CF92EF92FF920F93C3
:100B40001F938EE994E060E045EC50E024EC30E047
:100B500000EC10E0F1ECEF2EF12CCC24C394E8E98A
:100B6000AE2E70E2872E0E94342A8BEB94E00E9416
:100B7000EA021092CE041092CF041092D004109288
:100B8000D1041092D2041092D3041092D404109283
:100B9000D5041092D7041092D6041092CD041F9160
:100BA0000F91FF90EF90CF90AF908F9008958AE5CE
:100BB00096E06AE773E00E94C4308823B9F586E6C0
:100BC00096E6A6E6B0E48093D8049093D904A09367
:100BD000DA04B093DB0480E090E0A0E8BFE3809308
:100BE000DC049093DD04A093DE04B093DF0480E185
:100BF0008093E0048CE08093E1048AEB8093E2042C
:100C00008AE08093B3021092E4041092E3048BE133
:100C100090E09093E6048093E50488EE93E090934F
:100C2000E8048093E7048AE190E038C082E598EB1D
:100C3000AEE0B0E48093D8049093D904A093DA0492
:100C4000B093DB0485E89BEEA1E5B0E48093DC047F
:100C50009093DD04A093DE04B093DF0489E18093D8
:100C6000E00486E68093E1048BEB8093E20482E16A
:100C70008093B30280E89CE09093E4048093E304C3
:100C80008CE190E09093E6048093E50480EA94E19F
:100C90009093E8048093E7048EE190E09093EA0457
:100CA0008093E9040895CF93DF938AE596E06CE79B
:100CB00073E00E94C430809342058AE596E06EE7B7
:100CC00073E00E94C430809341058AE596E060E8B5
:100CD00073E00E94C430809343058AE596E06EE895
:100CE00073E00E94C430809367058AE596E06AE865
:100CF00073E00E94C430809357058AE596E064E86B
:100D000073E00E94C430809377058AE596E066E838
:100D100073E00E94C430809376058AE596E06CE823
:100D200073E00E94C43010924605882319F081E0D8
:100D3000809346058AE596E062E973E00E94C4303C
:100D4000809344058AE596E064E973E00E94C4302C
:100D500080934505C0E0D0E0BE0168567C4F8AE52F
:100D600096E00E94C430FE01E459FA4F8083882344
:100D700021F02196C830D10579F7C459DA4F19828C
:100D8000DF91CF910895BC018AE596E00E94C430BE
:100D90000895DF92EF92FF920F931F93CF93DF930B
:100DA000D82E7B016091EB047091EC048091ED04EE
:100DB0009091EE042091DC043091DD044091DE043A
:100DC0005091DF040E94E93620E030E040EA50E430
:100DD0000E944E342DEC3CEC4CE850E40E94E93685
:100DE0000E9483358B019C01CB0101978B9788F47E
:100DF000C80169E070E00E944238CFECD0E0C81B27
:100E0000D90BC80169E070E00E944238E60EF71E77
:100E10000CC00C3211051CF4CFECD0E006C084E00D
:100E200090E0E80EF91EC8ECD0E00BEB14E09EE079
:100E3000D90EC8016D2D4E2D0E94A00300D000D008
:100E400000D0EDB7FEB73196ADB7BEB712961C9382
:100E50000E93119780E091E093838283D583C483BE
:100E60000E94132A8DB79EB706960FB6F8949EBFC0
:100E70000FBE8DBFDF91CF911F910F91FF90EF902B
:100E8000DF900895BF92CF92DF92EF92FF920F937F
:100E90001F93CF93DF93C82FD0E0CC0FDD1FC25735
:100EA000DF4F613009F069C0C090D804D090D904F8
:100EB000E090DA04F090DB04B090E0044DB75EB748
:100EC000465150400FB6F8945EBF0FBE4DBF0DB7F0
:100ED0001EB70F5F1F4F8BEB94E0ADB7BEB71296F6
:100EE0009C938E93119783E091E0F8019383828322
:100EF0008DE190E095838483C701B6012091F304CE
:100F00003091F4044091F5045091F6040E94E936C2
:100F1000D80116966D937D938D939C9319971A968D
:100F2000BC921A971B961C921B971D96DC93CE932E
:100F30001C9721961F96DC93CE931E97C701B6018E
:100F40002091F7043091F8044091F9045091FA048B
:100F50000E94E936F801608B718B828B938BB48A87
:100F6000158A0E94132A4DB75EB74A5E5F4F0FB6CF
:100F7000F8945EBF0FBE4DBF52C08BEB94E09E0154
:100F80002F5F3F4F623039F5ADB7BEB71C970FB634
:100F9000F894BEBF0FBEADBFEDB7FEB73196129647
:100FA0009C938E93119789E191E093838283D583FB
:100FB000C483378326838091FB049091FC0491873E
:100FC000808785E090E0938782870E94132AEDB79F
:100FD000FEB73C961FC04DB75EB7485050400FB6A5
:100FE000F8945EBF0FBE4DBFEDB7FEB73196ADB7FB
:100FF000BEB712969C938E93119783E291E09383F0
:101000008283D583C483378326830E94132AEDB756
:10101000FEB738960FB6F894FEBF0FBEEDBFDF9156
:10102000CF911F910F91FF90EF90DF90CF90BF90E5
:1010300008952F923F924F925F926F927F928F927C
:101040009F92AF92BF92CF92DF92EF92FF920F9357
:101050001F93DF93CF9300D000D000D0CDB7DEB781
:10106000182F662E2091EF043091F0042A353105B7
:1010700030F0C9018D549F4F89359105E8F437FF51
:1010800002C02D543F4FC90137FF03C09095819591
:101090009F4F8A3191053CF0B9ED8B2E912CA8EF32
:1010A0002A2E312C1DC00A975CF1F0ED8F2E912C69
:1010B000E3EF2E2E312C20C02B35310514F0235BAD
:1010C0003040C90137FF03C0909581959F4F8A3109
:1010D000910554F07BEE872E912C6BEF262E312C50
:1010E00057E0A52EB12C15C00A9754F042EE842E7D
:1010F000912C35EF232E312C28E0A22EB12C09C0E3
:1011000096EC892E912C8DEC282E312C09E0A02E06
:10111000B12C6091F1047091F204882777FD8095DD
:10112000982F0E94B63527EA32E94BE25CEB0E9429
:10113000E9360E94BD3720E030E040EA50E40E94EA
:10114000E93620E030E040E951E40E94E9360E94AF
:101150004C3720E030E044E352E40E944E340E94D9
:101160008335712E1EEBC12E1FEFD12E9B0144271C
:1011700037FD4095542F29833A834B835C83BBEB27
:101180004B2EB4E05B2E4AEF5FEF240E351E6091CC
:10119000EF047091F004882777FD8095982F0E94C6
:1011A000B63525E33AEF4EE85CE30E94E9360E944B
:1011B000BD377B018C01B601882777FD8095982F7C
:1011C0000E94B6359B01AC01C801B7010E94E93607
:1011D0007B018C0169817A818B819C810E94B6356B
:1011E0009B01AC01C801B7010E944E340E948335B7
:1011F0009B01CB0101978A35910508F071C062E12E
:1012000070E00E9442388B012F5F3F4FAEEEBFEF80
:101210006A9FC0016B9F900D7A9F900D1124820FE1
:10122000931F62E070E00E9442386D837E83E62C5B
:10123000E01A4E2D4C5F8BEB94E0672D0E94A003CB
:1012400000D000D000D0EDB7FEB73196ADB7BEB735
:1012500012965C924E92119720E031E03383228304
:101260008D819E81880D991D958384830E94132A08
:101270004DB75EB74A5F5F4F0FB6F8945EBF0FBEC3
:101280004DBF8D819E818A159B0554F10430110557
:101290003CF593E0E90EC201672D4E2D0E94A0039C
:1012A00000D000D000D0EDB7FEB73196ADB7BEB7D5
:1012B00012965C924E92119720E031E033832283A4
:1012C0004D815E81420D531D558344830E94132A34
:1012D0008DB79EB706960FB6F8949EBF0FBE8DBF12
:1012E000ACE0B0E0CA0EDB1E7394BEE4CB16D104B2
:1012F00009F04DCF26960FB6F894DEBF0FBECDBFD6
:10130000CF91DF911F910F91FF90EF90DF90CF90E1
:10131000BF90AF909F908F907F906F905F904F9015
:101320003F902F9008956091020570910305809180
:1013300004059091050520E030E040EC51E40E9466
:10134000E93620E030E044EB53E40E941B350E9474
:101350004C370E9483359B012350304037FF03C038
:101360009B012B5E3F4FAEE0B5E0F901EF51FC4F22
:1013700080818C932F5F3F4F2831310514F020E09E
:1013800030E0119685E0A931B80779F7109215057C
:1013900008950F931F93282F462F8BEB94E0622F15
:1013A0000E9409038BEB94E00E94E1038091FD040D
:1013B000882319F428E231E034C0813019F42DE299
:1013C00031E02FC0823019F422E331E02AC08330AB
:1013D00019F427E331E025C0843019F42CE331E01F
:1013E00020C0853019F421E431E01BC0863019F4A7
:1013F00026E431E016C0873019F42BE431E011C047
:10140000883019F420E531E00CC0893019F425E565
:1014100031E007C08A3019F02AE531E002C02BE53F
:1014200031E04DB75EB74A5050400FB6F8945EBFFA
:101430000FBE4DBFEDB7FEB731960BEB14E0ADB765
:10144000BEB712961C930E93119780E691E093839A
:1014500082838FE790E0958384833783268380910E
:10146000FE0490E026E830E0AC01429FC001439FBB
:10147000900D529F900D1124918780870E94132A0E
:101480008DB79EB70A960FB6F8949EBF0FBE8DBF5C
:10149000C8010E94C5031F910F9108950F931F93D8
:1014A000282F462F0BEB14E0C801622F0E9409037E
:1014B000C8010E94E1038091FF0460E00E9442079E
:1014C000C8010E94C5031F910F9108950F931F93A8
:1014D000282F462F0BEB14E0C801622F0E9409034E
:1014E000C8010E94E1038DB79EB70A970FB6F89422
:1014F0009EBF0FBE8DBFEDB7FEB73196ADB7BEB77D
:1015000012961C930E93119780E691E09383828349
:1015100083EC90E0958384838EE095E097838683C7
:1015200087E890E0918780870E94132A8DB79EB745
:101530000A960FB6F8949EBF0FBE8DBFC8010E94D9
:10154000C5031F910F9108950F931F93282F462FC6
:101550000BEB14E0C801622F0E940903C8010E942E
:10156000E1038DB79EB70A970FB6F8949EBF0FBEE2
:101570008DBFEDB7FEB73196ADB7BEB712961C93CF
:101580000E93119787E691E0938382838091020501
:1015900090910305A0910405B0910505848395837E
:1015A000A683B78385E090E0918780870E94132A05
:1015B0008DB79EB70A960FB6F8949EBF0FBE8DBF2B
:1015C000C8010E94C5031F910F9108950F931F93A7
:1015D000282F462F0BEB14E0C801622F0E9409034D
:1015E000C8010E94E1038DB79EB740970FB6F894EB
:1015F0009EBF0FBE8DBFEDB7FEB73196ADB7BEB77C
:1016000012961C930E9311978FE691E09383828339
:1016100083E090E09583848380911A0590911B0567
:10162000A0911C05B0911D0586839783A087B18783
:1016300084E090E09387828780911E0590911F053A
:10164000A0912005B091210584879587A687B7874B
:101650000E94132A8DB79EB740960FB6F8949EBF8E
:101660000FBE8DBFC8010E94C5031F910F91089541
:101670000F931F93282F462F8BEB94E0622F0E942D
:1016800009038BEB94E00E94E103809122058230F4
:1016900018F421E831E005C08250823010F423E8CC
:1016A00031E08DB79EB708970FB6F8949EBF0FBE76
:1016B0008DBFEDB7FEB731960BEB14E0ADB7BEB7FB
:1016C00012961C930E93119785E891E09383828381
:1016D0003583248380912305868317820E94132AF1
:1016E0008DB79EB708960FB6F8949EBF0FBE8DBFFC
:1016F000C8010E94C5031F910F9108950F931F9376
:10170000282F462F0BEB14E0C801622F0E9409031B
:10171000C8010E94E1038DB79EB70C970FB6F894ED
:101720009EBF0FBE8DBFEDB7FEB73196ADB7BEB74A
:1017300012961C930E93119784E991E09383828310
:101740008CEB90E09583848380912405909125050E
:10175000A0912605B091270586839783A087B1873E
:101760008DE090E0938782870E94132A8DB79EB701
:101770000C960FB6F8949EBF0FBE8DBFC8010E9495
:10178000C5031F910F9108950F931F93282F462F84
:101790000BEB14E0C801622F0E940903C8010E94EC
:1017A000E1038DB79EB70A970FB6F8949EBF0FBEA0
:1017B0008DBFEDB7FEB73196ADB7BEB712961C938D
:1017C0000E9311978EE991E0938382838091EF04C9
:1017D0009091F0049583848385E090E097838683DD
:1017E00086E090E0918780870E94132A8DB79EB78C
:1017F0000A960FB6F8949EBF0FBE8DBFC8010E9417
:10180000C5031F910F9108950F931F93282F462F03
:101810000BEB14E0C801622F0E940903C8010E946B
:10182000E1038DB79EB70A970FB6F8949EBF0FBE1F
:101830008DBFEDB7FEB73196ADB7BEB712961C930C
:101840000E9311978EE991E0938382838091F10446
:101850009091F2049583848385E090E0978386835A
:1018600087E090E0918780870E94132A8DB79EB70A
:101870000A960FB6F8949EBF0FBE8DBFC8010E9496
:10188000C5031F910F910895EF92FF920F931F933D
:10189000282F462F1BEBE12E14E0F12EC701622FFB
:1018A0000E940903C7010E94E1038DB79EB70C9700
:1018B0000FB6F8949EBF0FBE8DBF0DB71EB70F5F5A
:1018C0001F4FEDB7FEB7F282E18286EA91E0F801A0
:1018D000938382838BE090E09583848360912805D5
:1018E0007091290580912A0590912B050E94B635AB
:1018F0002091DC043091DD044091DE045091DF043E
:101900000E94E936F801668377838087918780910A
:10191000E104828713860E94132A8DB79EB70C9626
:101920000FB6F8949EBF0FBE8DBFC7010E94C503BE
:101930001F910F91FF90EF900895EF92FF920F93F8
:101940001F93282F462F0BEBE02E04E0F02EC7014B
:10195000622F0E940903C7010E94E10360912C05D8
:1019600070912D0580912E0590912F050E94833551
:101970008B019C018DB79EB70C970FB6F8949EBF54
:101980000FBE8DBFEDB7FEB73196ADB7BEB712969D
:10199000FC92EE92119780EB91E09383828388E032
:1019A00090E095838483C8016CE370E00E94423824
:1019B000CB016CE370E00E944238978386838AE310
:1019C00090E091878087C8016CE370E00E94423804
:1019D000938782870E94132A8DB79EB70C960FB605
:1019E000F8949EBF0FBE8DBFC7010E94C5031F9113
:1019F0000F91FF90EF900895CF93DF93282F462FFC
:101A0000CBEBD4E0CE01622F0E940903CE010E94ED
:101A1000E1038AE596E068E773E00E94C43088231A
:101A2000B9F58DB79EB740970FB6F8949EBF0FBE1D
:101A30008DBFEDB7FEB73196ADB7BEB71296DC934A
:101A4000CE9311978CEB91E09383828388E890E0AA
:101A5000958384838091B402868317828EE890E018
:101A6000918780878091300590913105A091320552
:101A7000B091330582879387A487B58781E090E092
:101A8000978786870E94132A8DB79EB740962CC0F1
:101A9000ADB7BEB71E970FB6F894BEBF0FBEADBFB1
:101AA000EDB7FEB731961296DC93CE9311978AEC80
:101AB00091E09383828388E890E09583848380918A
:101AC000B402868317828EE890E0918780878091A8
:101AD00034058287138685E290E0958784870E948B
:101AE000132A8DB79EB70E960FB6F8949EBF0FBE01
:101AF0008DBF8BEB94E00E94C503DF91CF910895D9
:101B00000F931F93282F462F0BEB14E0C801622F71
:101B10000E940903C8010E94E1038DB79EB70A978E
:101B20000FB6F8949EBF0FBE8DBFEDB7FEB73196CE
:101B3000ADB7BEB712961C930E93119788ED91E046
:101B40009383828382E090E095838483809135053E
:101B50008683178285E290E0918780870E94132A0E
:101B60008DB79EB70A960FB6F8949EBF0FBE8DBF75
:101B7000C8010E94C5031F910F910895EF92FF9233
:101B80000F931F93282F462F8BEBE82E84E0F82E1F
:101B9000C701622F0E940903C7010E94E1038DB7AC
:101BA0009EB70C970FB6F8949EBF0FBE8DBF0DB7B2
:101BB0001EB70F5F1F4FEDB7FEB7F282E18282EED4
:101BC00091E0F8019383828383E190E0958384839D
:101BD0006091B5027091B6028091B7029091B802FF
:101BE0002091D8043091D9044091DA045091DB045B
:101BF0000E94E936F8016683778380879187809118
:101C0000E004828713860E94132A8DB79EB70C9634
:101C10000FB6F8949EBF0FBE8DBFC7010E94C503CB
:101C20001F910F91FF90EF900895EF92FF920F9305
:101C30001F93282F462F9BEBE92E94E0F92EC70126
:101C4000622F0E940903C7010E94E1038DB79EB76E
:101C50000C970FB6F8949EBF0FBE8DBF0DB71EB781
:101C60000F5F1F4FEDB7FEB7F282E18282EE91E087
:101C7000F8019383828384E190E09583848360916B
:101C80004705709148058091490590914A0520913A
:101C9000D8043091D9044091DA045091DB040E94B9
:101CA000E936F80166837783808791878091E00425
:101CB000828713860E94132A8DB79EB70C960FB6A3
:101CC000F8949EBF0FBE8DBFC7010E94C5031F9130
:101CD0000F91FF90EF900895EF92FF920F931F9353
:101CE000282F462F3BEBE32E34E0F32EC701622F63
:101CF0000E940903C7010E94E1038DB79EB70C97AC
:101D00000FB6F8949EBF0FBE8DBF0DB71EB70F5F05
:101D10001F4FEDB7FEB7F282E18286EA91E0F8014B
:101D20009383828382E190E0958384836091EB04C6
:101D30007091EC048091ED049091EE042091DC040C
:101D40003091DD044091DE045091DF040E94E936B9
:101D5000F80166837783808791878091E104828789
:101D600013860E94132A8DB79EB70C960FB6F8946F
:101D70009EBF0FBE8DBFC7010E94C5031F910F916B
:101D8000FF90EF900895CF92DF92EF92FF920F9322
:101D90001F93282F462F5BEBC52E54E0D52EC6018E
:101DA000622F0E940903C6010E94E10360914B0566
:101DB00070914C0580914D0590914E052091DC0469
:101DC0003091DD044091DE045091DF040E94E93639
:101DD00020E030E040E752E40E94E9362DEC3CEC94
:101DE0004CEC5DE30E94E9367B018C0160913D057E
:101DF00070913E0580913F059091400526E636E6BC
:101E000046E65FE30E94E9369B01AC01C801B701D9
:101E10000E944E349B01AC0120933D0530933E055A
:101E200040933F05509340052DB73EB72C503040AE
:101E30000FB6F8943EBF0FBE2DBFEDB7FEB731967B
:101E4000ADB7BEB71296DC92CE9211972CEE31E070
:101E50003383228325E130E035832483CB01DA010B
:101E600086839783A087B1878091E9049091EA04E3
:101E7000938782870E94132A2DB73EB7245F3F4F76
:101E80000FB6F8943EBF0FBE2DBFC6010E94C5031A
:101E90001F910F91FF90EF90DF90CF900895EF92F8
:101EA000FF920F931F93282F462F6BEBE62E64E0D3
:101EB000F62EC701622F0E940903C7010E94E103A9
:101EC0008DB79EB70C970FB6F8949EBF0FBE8DBF0F
:101ED0000DB71EB70F5F1F4FEDB7FEB7F282E1825D
:101EE00086EA91E0F8019383828381E190E0958313
:101EF000848360914F0570915005809151059091B8
:101F000052050E94B6352091DC043091DD044091E9
:101F1000DE045091DF040E94E936F801668377837E
:101F2000808791878091E104828713860E94132A1B
:101F30008DB79EB70C960FB6F8949EBF0FBE8DBF9F
:101F4000C7010E94C5031F910F91FF90EF90089564
:101F5000EF92FF920F931F93282F462F7BEBE72ED4
:101F600074E0F72EC701622F0E940903C7010E9487
:101F7000E1038DB79EB70C970FB6F8949EBF0FBEC6
:101F80008DBF0DB71EB70F5F1F4FEDB7FEB7F282C3
:101F9000E18284E991E0F801938382838DEB90E004
:101FA000958384836091530570915405882777FD4C
:101FB0008095982F0E94B6352AE037ED43E25CE326
:101FC0000E94E936F80166837783808791878EE0E7
:101FD00090E0938782870E94132A8DB79EB70C9654
:101FE0000FB6F8949EBF0FBE8DBFC7010E94C503F8
:101FF0001F910F91FF90EF900895AF92BF92CF92F3
:10200000DF92EF92FF920F931F93CF93DF93B82E3F
:10201000A62E8BEB94E06B2D4A2D0E9409038BEBCF
:1020200094E00E94E10380917505282F30E0309301
:10203000BA022093B90280914605882359F5009190
:10204000760510E0201B310BB901882777FD8095BC
:10205000982F0E94B6356B017C016091770570E086
:10206000601B710B882777FD8095982F0E94B635ED
:102070009B01AC01C701B6010E941B3520E030E096
:1020800048EC52E40E94E9360E9483357093BA020C
:102090006093B9028DB79EB70A970FB6F8949EBFAA
:1020A0000FBE8DBFEDB7FEB73196CBEBD4E0ADB729
:1020B000BEB71296DC93CE93119786EF91E093838F
:1020C000828389E090E0958384838091B902909126
:1020D000BA029783868385E290E0918780870E9489
:1020E000132A8DB79EB70A960FB6F8949EBF0FBEFF
:1020F0008DBFCE010E94C50380914605882309F05B
:1021000084C0BA94A394CE016B2D4A2D0E9409037A
:10211000CE010E94E10380917505C82EDD24A4E064
:10212000B0E0CA0EDB1EB9E6CB16D1041CF0B8E64F
:10213000CB2ED12C00D000D000D0EDB7FEB7319619
:102140000BEB14E0ADB7BEB712961C930E9311972C
:10215000A0E0EA2EA1E0FA2EF382E28288E890E085
:10216000958384830E94132AC0E0D0E08DB79EB788
:1021700006960FB6F8949EBF0FBE8DBFBF2CC6014A
:10218000BE010E94820500D000D000D0EDB7FEB79E
:102190003196ADB7BEB711960C93119712961C935A
:1021A000E282B382992787FD9095958384830E946C
:1021B000132A24968DB79EB706960FB6F8949EBF45
:1021C0000FBE8DBFC431D105D1F600D000D000D0F4
:1021D000EDB7FEB73196ADB7BEB711960C93119718
:1021E00012961C93E282B3828EE890E095838483FA
:1021F0000E94132A8DB79EB706960FB6F8949EBF1D
:102200000FBE8DBFC8010E94C503DF91CF911F9102
:102210000F91FF90EF90DF90CF90BF90AF90089517
:10222000EF92FF920F931F93282F462F1BEBE12E67
:1022300014E0F12EC701622F0E940903C7010E941A
:10224000E1038DB79EB70C970FB6F8949EBF0FBEF3
:102250008DBF0DB71EB70F5F1F4FEDB7FEB7F282F0
:10226000E1828EEF91E0F801938382838AE090E02F
:10227000958384832091B30230E08091830590910F
:1022800084056AE070E00E942E38CB01289FB001DF
:10229000299F700D389F700D11242091E304309117
:1022A000E404620F731F80E090E00E94B43520E0E8
:1022B00030E048EC52E40E941B35F80166837783D6
:1022C000808791878091E204828713860E94132A77
:1022D0008DB79EB70C960FB6F8949EBF0FBE8DBFFC
:1022E000C7010E94C5031F910F91FF90EF900895C1
:1022F0005F926F927F928F929F92AF92BF92CF9296
:10230000DF92EF92FF920F931F930BEB602E04E08E
:10231000702EC3016BE044E00E940903C3010E94D8
:10232000E10360912C0570912D0580912E0590910F
:102330002F050E9483356B017C018090DC04909016
:10234000DD04A090DE04B090DF045090E1048DB76E
:102350009EB7C0970FB6F8949EBF0FBE8DBF0DB746
:102360001EB70F5F1F4FEDB7FEB77282618288E024
:1023700092E0F8019383828388E090E095838483E0
:10238000C6016CE370E00E944238CB016CE370E060
:102390000E944238978386838AE390E09187808702
:1023A000C6016CE370E00E944238938782878BE01D
:1023B00090E095878487C501B4012091850530910F
:1023C000860540918705509188050E94E9360E9454
:1023D0008335F80177876687508A118A8FE890E005
:1023E000938B828BC501B4012091890530918A05B8
:1023F00040918B0550918C050E94E9360E948335EF
:10240000F801758B648B568A178A84E190E0918F6E
:10241000808F60918D0570918E0580918F059091D0
:1024200090052091D8043091D9044091DA0450915C
:10243000DB040E94E9360E948335F801738F628FB6
:102440008091E004848F158E82E190E0978F868FD3
:10245000C501B401209191053091920540919305F9
:10246000509194050E94E9360E948335F80171A3CA
:1024700060A352A213A283E090E095A384A380916D
:102480001A0590911B05A0911C05B0911D0586A30E
:1024900097A3A0A7B1A784E090E093A782A780911B
:1024A0001E0590911F05A0912005B091210584A7DC
:1024B00095A7A6A7B7A70E94132A8DB79EB7C09667
:1024C0000FB6F8949EBF0FBE8DBFC3010E94C50317
:1024D0001F910F91FF90EF90DF90CF90BF90AF9042
:1024E0009F908F907F906F905F900895CF92DF9232
:1024F000EF92FF920F931F93CF93DF93282F462FD6
:10250000CBEBD4E0CE01622F0E940903CE010E94E2
:10251000E1036091890570918A0580918B05909106
:102520008C052091DC043091DD044091DE04509153
:10253000DF040E94E9366B017C0120E030E04AE7CD
:1025400054E40E94DE361816CCF58DB79EB70C9772
:102550000FB6F8949EBF0FBE8DBF0DB71EB70F5FAD
:102560001F4FADB7BEB71296DC93CE93119784E997
:1025700091E0F801938382838FE890E095838483D0
:102580006091E7047091E80480E090E00E94B43527
:102590009B01AC01C701B6010E941B35D8011696FC
:1025A0006D937D938D939C9319978091E504909101
:1025B000E6041B969C938E931A9721C08DB79EB705
:1025C0000C970FB6F8949EBF0FBE8DBFEDB7FEB748
:1025D0003196ADB7BEB71296DC93CE93119786EACB
:1025E00091E0938382838FE890E095838483C68211
:1025F000D782E086F1868091E104828713860E946B
:10260000132AEDB7FEB73C960FB6F894FEBF0FBE87
:10261000EDBF8BEB94E00E94C503DF91CF911F913A
:102620000F91FF90EF90DF90CF900895CF93DF93BD
:10263000282F462F8BEB94E0622F0E9409038BEB2F
:1026400094E00E94E103809195059091960564E6DF
:1026500070E00E942E3880E090E00E94B435209116
:1026600002053091030540910405509105050E9433
:102670004D340E948335EB017093FC046093FB049E
:10268000BE01882777FD8095982F0E94B63520E0FF
:1026900030E044EB53E40E941B3520E030E040E89A
:1026A00051E40E94E9360E944C370E948335DC01D8
:1026B000CB01409660E170E00E9442388F5F8093CA
:1026C0009705C53BD1051CF0C856D14006C09FEF09
:1026D000CC34D90734F4C859DE4FD093FC04C093EE
:1026E000FB0462E00E9442078BEB94E00E94C5036A
:1026F000DF91CF910895EF92FF920F931F93CF93A5
:10270000DF93282F462F8BEB94E0622F0E94090362
:102710008BEB94E00E94E10360910005709101054C
:10272000882777FD8095982F0E94B6352091020565
:102730003091030540910405509105050E944D34E8
:1027400020E030E044EB53E40E941B3520E030E011
:1027500040E851E40E94E9360E944C370E948335DC
:10276000DC01CB01409660E170E00E9442388F5F4F
:1027700080930605E0900705F09008050091090593
:1027800010910A05C801B70120E030EC49E754E494
:102790000E94DE3618162CF480E090ECA9E7B4E431
:1027A0000EC0C801B70120E030EC49E754EC0E94AC
:1027B0001435882364F480E090ECA9E7B4EC8093AE
:1027C000070590930805A0930905B0930A058DB7F6
:1027D0009EB742970FB6F8949EBF0FBE8DBF0DB740
:1027E0001EB70F5F1F4FCBEBD4E0EDB7FEB7D28320
:1027F000C18386E492E0F8019383828387E590E0C9
:102800009583848380E790E09783868380910B058E
:10281000808711861386128660910C0570910D05D4
:1028200080E090E00E94B4352091DC043091DD041A
:102830004091DE045091DF040E94E936F80164877C
:102840007587868797878091E104808B118A0E9423
:10285000132A8DB79EB742960FB6F8949EBF0FBE4F
:102860008DBF8091060560E00E9442078091FD04C3
:102870008A3009F045C0EDB7FEB770970FB6F894EF
:10288000FEBF0FBEEDBF0DB71EB70F5F1F4FD28348
:10289000C1838CEB91E0F8019383828380E290E026
:1028A0009583848388E590E09783868385E690E02E
:1028B00091878087609107057091080580910905CF
:1028C00090910A052091DC043091DD044091DE04F2
:1028D0005091DF040E94E936F8016287738784878C
:1028E00095878091E104868717860E94132A8DB709
:1028F0009EB740960FB6F8949EBF0FBE8DBF10C016
:1029000000D000D0EDB7FEB7D283C18386ED90E052
:10291000948383830E94022A0F900F900F900F9050
:102920008BEB94E00E94C503DF91CF911F910F9133
:10293000FF90EF900895CF92DF92EF92FF920F9366
:102940001F937C01D62EC72E0BEB14E0C8016E2D11
:102950004D2D0E940903C8010E94E10300D000D060
:10296000EDB7FEB7128301838FED90E094838383EC
:102970000E94022A0F900F900F900F90C8010E94A2
:10298000C503C70101966D2D7C2D0E941908C70152
:102990006D2D7C2D0E94C9061F910F91FF90EF9025
:1029A000DF90CF9008950F931F930BEB14E0C801B5
:1029B00065E045E00E940903C8010E94E10300D0E0
:1029C00000D0EDB7FEB7128301838FE291E09483CC
:1029D00083830E94022A0F900F900F900F90C801DE
:1029E0000E94C5031F910F9108950E94D3140E9465
:1029F000D70508952F923F924F925F926F927F92E8
:102A00008F929F92AF92BF92CF92DF920F93DF93FC
:102A1000CF9300D000D0CDB7DEB7282F462F8BEB59
:102A200094E0622F0E9409038BEB94E00E94E10383
:102A30008091FE04882391F488E592E09093370515
:102A4000809336050E94D53260933805709339051E
:102A500080933A0590933B0510923C050E94D53235
:102A6000209138053091390540913A0550913B0548
:102A7000621B730B840B950B605D77408040904028
:102A800008F03CC00E94D5322091380530913905BC
:102A900040913A0550913B05621B730B840B950BDB
:102AA000695E73408040904030F085E692E09093FC
:102AB00037058093360500D000D000D0EDB7FEB7C3
:102AC00031968BEB94E0ADB7BEB712969C938E9384
:102AD000119781E991E093838283809136059091EB
:102AE0003705958384830E94132AEDB7FEB7369687
:102AF0000FB6F894FEBF0FBEEDBFDDC0D0903C0511
:102B000010923C050D2D66EA462E62E0562E54E0EA
:102B1000252E49E9642E42E0742E3CE8832E32E0F3
:102B2000932E2AE0322E92E0C92E8FE7A82E82E063
:102B3000B82E0F5F063010F000E0A8C0013071F42D
:102B400080912205823008F0A1C000933C0582E705
:102B500092E0909337058093360598C0023001F5D6
:102B600060913D0570913E0580913F059091400533
:102B70000E9483359B0177FF03C0309521953F4F1D
:102B800080914105839DC0011124821793070CF0A9
:102B90007DC0C0923C05B0923705A092360576C044
:102BA000033079F56091B5027091B6028091B70259
:102BB0009091B8022091D8043091D9044091DA0460
:102BC0005091DB040E94E93669837A838B839C836E
:102BD0006091420570E080E090E00E94B4359B0176
:102BE000AC0169817A818B819C810E94DE36181646
:102BF0000CF04CC000933C0590923705809236054E
:102C000045C0043051F56091430570E080E090E0EC
:102C10000E94B43520E030E040E251E40E941B35D0
:102C20009B01AC01609124057091250580912605DA
:102C3000909127050E94143587FD08C090914405A6
:102C400080913405891710F5992301F120923C05F4
:102C5000709237056092360519C00530B9F420919D
:102C6000B9023091BA028091450590E028173907E2
:102C70006CF42D593F4F51F080914605882331F473
:102C800000933C05509237054092360580913C05F3
:102C9000882351F00E94D53260933805709339052E
:102CA00080933A0590933B0580913C05882319F465
:102CB0000D1509F03ECF8BEB94E00E94C5030F90F9
:102CC0000F900F900F90CF91DF910F91DF90CF90E9
:102CD000BF90AF909F908F907F906F905F904F903C
:102CE0003F902F900895EF92FF920F931F93809142
:102CF0003C05882331F080915505882309F06DC08B
:102D0000BEC0809157058430C9F59091FD04892F8C
:102D10008650823008F4B5C0809158058917A1F01B
:102D2000909358050E94D5326093590570935A05C7
:102D300080935B0590935C05909158058091BB0250
:102D4000981711F411E001C010E00E94D5322091D3
:102D5000590530915A0540915B0550915C05621B05
:102D6000730B840B950B615D77408040904008F4B5
:102D70007AC08091FD048093BB0275C0853029F430
:102D800080915D0590915E0514C0863029F4809194
:102D90006105909162050DC0873029F4809163052B
:102DA0009091640506C0883041F48091650590914A
:102DB00066059093600580935F058091670520917B
:102DC0005F0530916005882349F544E0203B3407D6
:102DD00040F480915505882321F081E080935605C9
:102DE0004EC0C901805B94408955924040F4809167
:102DF0005505813021F081E0809356050CC02950A3
:102E0000374008F43EC0809155058230D1F181E011
:102E10008093560582E08093550533C0215B344092
:102E200080F1E0905905F0905A0500915B051091F2
:102E30005C0588EE93E0A0E0B0E0E80EF91E0A1F02
:102E40001B1F0E94D532E616F70608071907C8F4BB
:102E50000E94D5326093590570935A0580935B05A3
:102E600090935C0502C0112361F081E080935605C8
:102E7000809155058F5F80935505833010F0109237
:102E800055051F910F91FF90EF900895CF93DF9319
:102E9000282F462FCBEBD4E0CE01622F0E940903EE
:102EA000CE010E94E1030E94D53228EE33E040E0DB
:102EB00050E00E945538CA01B9012CE330E040E0EF
:102EC00050E00E94553821E931E0623071058105FA
:102ED000910588F400D000D000D0EDB7FEB7319650
:102EE000ADB7BEB71296DC93CE931197338322838E
:102EF0008CE695E010C000D000D000D0EDB7FEB752
:102F00003196ADB7BEB71296DC93CE93119733834B
:102F100022838CEB92E0958384830E94132A8DB7E1
:102F20009EB706960FB6F8949EBF0FBE8DBF8BEB73
:102F300094E00E94C503DF91CF9108950F931F93F2
:102F4000282F462F8BEB94E0622F0E9409038BEB16
:102F500094E00E94E10380917805882309F496C0EB
:102F600000913405202F30E080917905992787FD65
:102F700090952817390709F441C080917A0599275F
:102F800087FD909582179307C9F10E94D532109161
:102F9000340528EE33E040E050E00E945538CA0185
:102FA000B90120917B0530917C0540917D055091C0
:102FB0007E05621B730B840B950B202F30E040E0E5
:102FC00050E00E940F3820917A05332727FD309575
:102FD000211B3109442737FD4095542F0E94553855
:102FE000CA01B9010E94B43560937F0570938005D2
:102FF00080938105909382051093790560917F05F8
:103000007091800580918105909182050E948335A1
:103010008B019C018DB79EB70C970FB6F8949EBF9D
:103020000FBE8DBFEDB7FEB731968BEB94E0ADB719
:10303000BEB712969C938E93119780EB91E0938389
:10304000828387E190E095838483C8016CE370E01C
:103050000E944238CB016CE370E00E9442389783B3
:1030600086838AE390E091878087C8016CE370E0F3
:103070000E944238938782870E94132A8DB79EB799
:103080000C960FB6F8949EBF0FBE8DBF8BEB94E0ED
:103090000E94C5031F910F910895AF92BF92CF92E6
:1030A000DF92EF92FF920F931F939091250691303C
:1030B00061F580917805882341F58091350580314F
:1030C00020F19093780580E090E0A0E0B0E080935C
:1030D000890590938A05A0938B05B0938C050E9477
:1030E000D53228EE33E040E050E00E94553820937E
:1030F0007B0530937C0540937D0550937E05809140
:10310000340580937A058093790580913505803167
:10311000B8F00E94D53260932606709327068093FC
:103120002806909329068FEF9FEFAFEFBFEF8093B4
:10313000C5029093C602A093C702B093C80230C0E4
:103140000E94D5322091260630912706409128060C
:1031500050912906621B730B840B950B61517742CA
:1031600080409040E8F08091C5029091C602A09105
:10317000C702B091C8028F5F9F4FAF4FBF4F81F41E
:1031800080917805813061F40E94D5326093C50248
:103190007093C6028093C7029093C802109278057C
:1031A000A0904705B0904805C0904905D0904A05C9
:1031B000C601B50120E030E040E85FE30E94DE3662
:1031C000181694F5E0908905F0908A0500918B051A
:1031D00010918C050E94D53220912A0630912B0641
:1031E00040912C0650912D06621B730B840B950B9E
:1031F0000E94B4359B01AC01C601B5010E94E936BD
:1032000020E030E04AE754E40E941B359B01AC010A
:10321000C801B7010E944E346093890570938A05F6
:1032200080938B0590938C05A0903005B09031056C
:10323000C0903205D09033056091530570915405CC
:10324000882777FD8095982F0E94B63520E030E0E2
:1032500040E251E40E94E9367B018C010E94D532A4
:1032600020912A0630912B0640912C0650912D0674
:10327000621B730B840B950B0E94B4359B01AC0150
:10328000C801B7010E94E93620E03AEB4BE55AE469
:103290000E941B359B01AC01C601B5010E944E3452
:1032A0006093300570933105809332059093330518
:1032B0000E94D53260932A0670932B0680932C06C9
:1032C00090932D0680917805813009F0B8C00E9456
:1032D000D53228EE33E040E050E00E94553880912E
:1032E0007B0590917C05A0917D05B0917E05281B02
:1032F000390B4A0B5B0BCA01B9010E94B4356093CC
:103300002C0570932D0580932E0590932F056091C9
:1033100028057091290580912A0590912B050E941E
:10332000B6357B018C012091850530918605409151
:103330008705509188050E94DE36181644F4E09205
:103340008505F09286050093870510938805E09027
:10335000B502F090B6020091B7021091B802C80110
:10336000B70120912E0630912F06409130065091E2
:1033700031060E94DE36181644F4E0922E06F092D2
:103380002F060093300610933106E0904705F09029
:1033900048050091490510914A05C801B7012091DF
:1033A0008D0530918E0540918F05509190050E94BA
:1033B000DE36181644F4E0928D05F0928E050093E7
:1033C0008F0510939005E090EB04F090EC040091D1
:1033D000ED041091EE04C801B701209191053091E0
:1033E000920540919305509194050E94DE3618167F
:1033F00044F4E0929105F0929205009393051093A6
:103400009405E090F304F090F4040091F504109119
:10341000F604C801B701209132063091330640917D
:103420003406509135060E94DE36181644F4E092B8
:103430003206F092330600933406109335061F913E
:103440000F91FF90EF90DF90CF90BF90AF900895D5
:103450008091C5029091C602A091C702B091C802A6
:103460008F5F9F4FAF4FBF4F09F481C20E94D5328B
:103470002091C5023091C6024091C7025091C80206
:10348000621B730B840B950B20E137E240E050E0A8
:103490000E94553820FD6BC280915605882339F46F
:1034A0008BEB94E00E942E0481E0809356050E94ED
:1034B000781145C26091800480917E0490E070E0B4
:1034C0000E94FA1480915705843010F00E94731600
:1034D00080915605882331F08BEB94E00E942E04F6
:1034E0001092560580915505823009F428C2A82F04
:1034F000B0E0FD01E05EFB4F808181FF0BC0FD016C
:10350000E45DFB4F6081A65DBB4F8C9190E070E065
:103510000E94040C80915505A82FB0E0FD01E05EEB
:10352000FB4F808182FF0BC0FD01E05DFB4F60819E
:10353000A25DBB4F8C9190E070E00E94C40B809123
:103540005505A82FB0E0FD01E05EFB4F808183FFB1
:103550000BC0FD01EC5CFB4F6081AE5CBB4F8C91FE
:1035600090E070E00E947E0B80915505A82FB0E09E
:10357000FD01E05EFB4F808185FF0BC0FD01E85C33
:10358000FB4F6081AA5CBB4F8C9190E070E00E9481
:10359000380B80915505A82FB0E0FD01E05EFB4F90
:1035A000808187FF0BC0FD01E05CFB4F6081A25C66
:1035B000BB4F8C9190E070E00E94E60A8091550527
:1035C000A82FB0E0FD01E05EFB4F808184FF0BC0BF
:1035D000FD01EC5BFB4F6081AE5BBB4F8C9190E0DB
:1035E00070E00E94FC0C80915505A82FB0E0FD0111
:1035F000E05EFB4F808186FF0BC0FD01E45CFB4F6A
:103600006081A65CBB4F8C9190E070E00E94161325
:1036100080915505A82FB0E0FD01EE5DFB4F808144
:1036200080FF0BC0FD01E85BFB4F6081AA5BBB4FD5
:103630008C9190E070E00E94660A80915505A82F59
:10364000B0E0FD01EE5DFB4F808181FF0BC0FD010D
:10365000E45BFB4F6081A65BBB4F8C9190E070E018
:103660000E94A40A80919805813051F580915505FA
:10367000A82FB0E0FD01EE5DFB4F808184FF0BC001
:10368000FD01EC5AFB4F6081AE5ABB4F8C9190E02C
:1036900070E00E94440C80915505A82FB0E0FD0118
:1036A000EE5DFB4F808183FF0BC0FD01E05BFB4FB4
:1036B0006081A25BBB4F8C9190E070E00E944E0A4B
:1036C00080915505A82FB0E0FD01EE5DFB4F808194
:1036D00087FF0BC0FD01E45AFB4F6081A65ABB4F28
:1036E0008C9190E070E00E949D0C80910B058823E6
:1036F000A9F080915505A82FB0E0FD01EE5DFB4FCC
:10370000808186FF0BC0FD01E85AFB4F6081AA5AF9
:10371000BB4F8C9190E070E00E947B138091550527
:10372000A82FB0E0FD01EC5DFB4F808182FF0BC054
:10373000FD01EC59FB4F6081AE59BB4F8C9190E07D
:1037400070E00E944F0F80915505A82FB0E0FD0159
:10375000EC5DFB4F808187FF0BC0FD01E859FB4FFB
:103760006081AA59BB4F8C9190E070E00E946C0E72
:1037700080915505A82FB0E0FD01EC5DFB4F8081E5
:1037800083FF0BC0FD01E459FB4F6081A659BB4F7D
:103790008C9190E070E00E94150E80915505A82F45
:1037A000B0E0FD01EC5DFB4F808181FF0BC0FD01AE
:1037B000E059FB4F6081A259BB4F8C9190E070E0C3
:1037C0000E94BE0D80915505A82FB0E0FD01EC5D73
:1037D000FB4F808184FF0BC0FD01EC58FB4F6081E3
:1037E000AE58BB4F8C9190E070E00E94800D8091AC
:1037F0005505A82FB0E0FD01EC5DFB4F808185FFF2
:103800000BC0FD01E858FB4F6081AA58BB4F8C915B
:1038100090E070E00E94C90980915505A82FB0E0A2
:10382000FD01EC5DFB4F808186FF0BC0FD01E4587C
:10383000FB4F6081A658BB4F8C9190E070E00E94D6
:103840009B1480915505A82FB0E0FD01EC5DFB4F66
:10385000808180FF0BC0FD01E05AFB4F6081A25ABE
:10386000BB4F8C9190E070E00E94A80F80915505AD
:10387000A82FB0E0FD01EA5DFB4F808183FF0BC004
:10388000FD01E857FB4F6081AA57BB4F8C9190E038
:1038900070E00E94C30E80915505A82FB0E0FD0195
:1038A000EA5DFB4F808186FF0BC0FD01E457FB4FB3
:1038B0006081A657BB4F8C9190E070E00E94FD0F95
:1038C00080915505A82FB0E0FD01EA5DFB4F808196
:1038D00087FF0BC0FD01E057FB4F6081A257BB4F34
:1038E0008C9190E070E00E949E1780915505A82F62
:1038F000B0E0FD01E85DFB4F808181FF0BC0FD0161
:10390000E856FB4F6081AA56BB4F8C9190E070E067
:103910000E94101180915505A82FB0E0FD01E85DCF
:10392000FB4F808182FF0BC0FD01E456FB4F60819D
:10393000A656BB4F8C9190E070E00E947612809169
:103940005505A82FB0E0FD01E170F070EA5DFB4F76
:10395000808185FF11C0FD01EC56FB4F6081AE56A2
:10396000BB4F8C9190E070E00E94461708958091C3
:10397000260480FFA7CD9ECD0895CF93DF93EC0161
:103980008BEB94E00E940503C817D9073CF08BEB42
:1039900094E00E94FA02892B09F42397CE01DF916B
:1039A000CF910895EF92FF920F931F93CF93DF93E0
:1039B0000091550510E08AEF90E0089F7001099F83
:1039C000F00C189FF00C1124C70188569F4F0E94DD
:1039D000C306F801E05EFB4F882319F08081806107
:1039E00002C080818F7E808380915505C82FD0E0F2
:1039F000C70186569F4F0E94C306CE5BDB4F88836C
:103A000080915505C82FD0E0C70184569F4F0E9472
:103A1000C30690E00E94BD1CCC5BDB4F8883009105
:103A2000550510E0C70106960E94C306F801E05E46
:103A3000FB4F882319F08081826002C080818D7FD6
:103A4000808380915505C82FD0E0C70108960E9459
:103A5000C306C65DDB4F888380915505C82FD0E033
:103A6000C7010A960E94C30690E00E94BD1CC45D77
:103A7000DB4F88830091550510E0C7010C960E942A
:103A8000C306F801E05EFB4F882319F08081846053
:103A900002C080818B7F808380915505C82FD0E044
:103AA000C7010E960E94C306C25DDB4F88838091DA
:103AB0005505C82FD0E0C70140960E94C30690E08C
:103AC0000E94BD1CC05DDB4F88830091550510E04E
:103AD000C70142960E94C306F801E05EFB4F8823AF
:103AE00019F08081886002C08081877F8083809107
:103AF0005505C82FD0E0C70144960E94C306CE5C8E
:103B0000DB4F888380915505C82FD0E0C7014696CA
:103B10000E94C30690E00E94BD1CCC5CDB4F8883F2
:103B20000091550510E0C7014E960E94C306F801AA
:103B3000E05EFB4F882319F08081806202C08081A3
:103B40008F7D808380915505C82FD0E0C701809676
:103B50000E94C306CA5CDB4F888380915505C82F3D
:103B6000D0E0C70182960E94C30690E00E94BD1C6F
:103B7000C85CDB4F88830091550510E0C70184962F
:103B80000E94C306F801E05EFB4F882319F0808194
:103B9000806402C080818F7B808380915505C82F0F
:103BA000D0E0C70186960E94C306C65CDB4F8883BF
:103BB00080915505C82FD0E0C70188960E94C306A2
:103BC00090E00E94BD1CC45CDB4F888300915505CA
:103BD00010E0C7018A960E94C306F801E05EFB4F21
:103BE000882319F08081806802C080818F7780836C
:103BF00080915505C82FD0E0C7018C960E94C3065E
:103C0000C25CDB4F888380915505C82FD0E0C70187
:103C10008E960E94C30690E00E94BD1CC05CDB4FE4
:103C200088830091550510E0C701C0960E94C30625
:103C3000F801EE5DFB4F882319F08081816002C09E
:103C400080818E7F808380915505C82FD0E0C70189
:103C5000C2960E94C306CA5BDB4F888380915505DC
:103C6000C82FD0E0C701C4960E94C30690E00E940E
:103C7000BD1CC85BDB4F88830091550510E0C70170
:103C8000C6960E94C306F801EE5DFB4F882319F02B
:103C90008081826002C080818D7F80838091550504
:103CA000C82FD0E0C701C8960E94C306C65BDB4F91
:103CB000888380915505C82FD0E0C701CA960E941D
:103CC000C30690E00E94BD1CC45BDB4F888300915B
:103CD000550510E0C701885B9F4F0E94C306F8019D
:103CE000EE5DFB4F882319F08081806102C08081E6
:103CF0008F7E808380915505C82FD0E0C701865BF9
:103D00009F4F0E94C306CE5ADB4F88838091550592
:103D1000C82FD0E0C701845B9F4F0E94C30690E08C
:103D20000E94BD1CCC5ADB4F88830091550510E0E2
:103D3000C7018E5B9F4F0E94C306F801EE5DFB4FEB
:103D4000882319F08081886002C08081877F80830A
:103D500080915505C82FD0E0C7018C5B9F4F0E9412
:103D6000C306C25BDB4F888380915505C82FD0E026
:103D7000C7018A5B9F4F0E94C30690E00E94BD1C52
:103D8000C05BDB4F88830091550510E0C7018A5A5C
:103D90009F4F0E94C306F801EE5DFB4F882319F088
:103DA0008081806402C080818F7B808380915505F3
:103DB000C82FD0E0C701885A9F4F0E94C306CA5A35
:103DC000DB4F888380915505C82FD0E0C701865A04
:103DD0009F4F0E94C30690E00E94BD1CC85ADB4F53
:103DE00088830091550510E0C70182569F4F0E94BD
:103DF000C306F801EE5DFB4F882319F080818068CF
:103E000002C080818F77808380915505C82FD0E0D4
:103E1000C70180569F4F0E94C306C65ADB4F888356
:103E200080915505C82FD0E0C7018E559F4F0E9445
:103E3000C30690E00E94BD1CC45ADB4F88830091EA
:103E4000550510E0C7018E599F4F0E94C306F80127
:103E5000EC5DFB4F882319F08081816002C0808176
:103E60008E7F808380915505C82FD0E0C7018C5983
:103E70009F4F0E94C306C25ADB4F8883809155052D
:103E8000C82FD0E0C7018A599F4F0E94C30690E017
:103E90000E94BD1CC05ADB4F88830091550510E07D
:103EA000C70182599F4F0E94C306F801EC5DFB4F8A
:103EB000882319F08081846002C080818B7F808399
:103EC00080915505C82FD0E0C70180599F4F0E94AF
:103ED000C306CE59DB4F888380915505C82FD0E0AB
:103EE000C7018E589F4F0E94C30690E00E94BD1CE0
:103EF000CC59DB4F88830091550510E0C7018457EA
:103F00009F4F0E94C306F801EC5DFB4F882319F018
:103F10008081806802C080818F7780838091550581
:103F2000C82FD0E0C70182579F4F0E94C306CA59CD
:103F3000DB4F888380915505C82FD0E0C70180579B
:103F40009F4F0E94C30690E00E94BD1CC859DB4FE2
:103F500088830091550510E0C7018E569F4F0E943F
:103F6000C306F801EC5DFB4F882319F08081826065
:103F700002C080818D7F808380915505C82FD0E05D
:103F8000C7018C569F4F0E94C306C259DB4F8883DE
:103F900080915505C82FD0E0C7018A569F4F0E94D7
:103FA000C30690E00E94BD1CC059DB4F888300917E
:103FB000550510E0C7018C589F4F0E94C306F801B9
:103FC000EC5DFB4F882319F08081886002C08081FE
:103FD000877F808380915505C82FD0E0C7018A581C
:103FE0009F4F0E94C306C659DB4F888380915505B9
:103FF000C82FD0E0C70188589F4F0E94C30690E0A9
:104000000E94BD1CC459DB4F88830091550510E008
:10401000C70186589F4F0E94C306F801EC5DFB4F15
:10402000882319F08081806102C080818F7E808327
:1040300080915505C82FD0E0C70184589F4F0E943A
:10404000C306CE58DB4F888380915505C82FD0E03A
:10405000C70182589F4F0E94C30690E00E94BD1C7A
:10406000CC58DB4F88830091550510E0C70180587C
:104070009F4F0E94C306F801EC5DFB4F882319F0A7
:104080008081806202C080818F7D80838091550510
:10409000C82FD0E0C7018E579F4F0E94C306CA5851
:1040A000DB4F888380915505C82FD0E0C7018C571E
:1040B0009F4F0E94C30690E00E94BD1CC858DB4F72
:1040C00088830091550510E0C7018A579F4F0E94D1
:1040D000C306F801EC5DFB4F882319F080818064F2
:1040E00002C080818F7B808380915505C82FD0E0EE
:1040F000C70188579F4F0E94C306C658DB4F88836D
:1041000080915505C82FD0E0C70186579F4F0E9468
:10411000C30690E00E94BD1CC458DB4F8883009109
:10412000550510E0C7018C559F4F0E94C306F8014A
:10413000EA5DFB4F882319F08081816002C0808195
:104140008E7F808380915505C82FD0E0C7018A55A6
:104150009F4F0E94C306C258DB4F8883809155054C
:10416000C82FD0E0C70188559F4F0E94C30690E03A
:104170000E94BD1CC058DB4F88830091550510E09C
:10418000C70180559F4F0E94C306F801EA5DFB4FAF
:10419000882319F08081846002C080818B7F8083B6
:1041A00080915505C82FD0E0C7018E549F4F0E94C3
:1041B000C306CE57DB4F888380915505C82FD0E0CA
:1041C000C7018C549F4F0E94C30690E00E94BD1C03
:1041D000CC57DB4F88830091550510E0C7018A5406
:1041E0009F4F0E94C306F801EA5DFB4F882319F038
:1041F0008081886002C08081877F8083809155059F
:10420000C82FD0E0C70188549F4F0E94C306CA57E9
:10421000DB4F888380915505C82FD0E0C7018654B5
:104220009F4F0E94C30690E00E94BD1CC857DB4F01
:1042300088830091550510E0C701845A9F4F0E9462
:10424000C306F801EA5DFB4F882319F08081806482
:1042500002C080818F7B808380915505C82FD0E07C
:10426000C701825A9F4F0E94C306C657DB4F8883FF
:1042700080915505C82FD0E0C701805A9F4F0E94FA
:10428000C30690E00E94BD1CC457DB4F8883009199
:10429000550510E0C7018E539F4F0E94C306F801D9
:1042A000EA5DFB4F882319F08081806802C080811D
:1042B0008F77808380915505C82FD0E0C7018C533C
:1042C0009F4F0E94C306C257DB4F888380915505DC
:1042D000C82FD0E0C7018A539F4F0E94C30690E0C9
:1042E0000E94BD1CC057DB4F88830091550510E02C
:1042F000C70188539F4F0E94C306F801EA5DFB4F38
:10430000882319F08081806202C080818F7D808344
:1043100080915505C82FD0E0C70186539F4F0E945A
:10432000C306CE56DB4F888380915505C82FD0E059
:10433000C70184539F4F0E94C30690E00E94BD1C9A
:10434000CC56DB4F88830091550510E0C7018C5295
:104350009F4F0E94C306F801E85DFB4F882319F0C8
:104360008081826002C080818D7F8083809155052D
:10437000C82FD0E0C7018A529F4F0E94C306CA5679
:10438000DB4F888380915505C82FD0E0C701885244
:104390009F4F0E94C30690E00E94BD1CC856DB4F91
:1043A00088830091550510E0C70180529F4F0E94FD
:1043B000C306F801E85DFB4F882319F08081846013
:1043C00002C080818B7F808380915505C82FD0E00B
:1043D000C7018E519F4F0E94C306C656DB4F88838C
:1043E00080915505C82FD0E0C7018C519F4F0E9486
:1043F000C30690E00E94BD1CC456DB4F8883DF914A
:10440000CF911F910F91FF90EF9008958F929F92FF
:10441000AF92BF92CF92DF92FF920F931F93CF93F1
:10442000DF93F62E4901C82EDD248601000F111FEF
:104430005801AC0CBD1CE501CC0FDD1FCC0FDD1FFE
:10444000C75ED94F18828B819C818430910509F415
:104450008EC0853091055CF48230910509F443C02B
:10446000833091050CF0BFC09923C4F44FC287304C
:10447000910509F443C18830910544F485309105D4
:1044800009F4DEC0069709F041C207C188309105E2
:1044900009F47AC1099709F039C2E7C18EEF6817AC
:1044A00009F034C282E090E09C838B8380E790E047
:1044B000C89ED001C99EB00DD89EB00D1124A7553D
:1044C000BA4F13961C92139788E390E0C89EF001B0
:1044D000C99EF00DD89EF00D1124EE0FFF1FE5557B
:1044E000FA4F6083A4C1E5E6E61788F489818F5FFF
:1044F0008983F501EE0FFF1FEE0FFF1FE55EF94FF9
:1045000080818F5F8083188281E090E02DC080E7FA
:1045100090E0C89EF001C99EF00DD89EF00D1124C8
:10452000E755FA4F63831D8280818627282F2295C5
:10453000207F282730E0522F4427C90163E0880FED
:10454000991F6A95E1F748275927818190E048270C
:10455000592784E0359527958A95E1F74227532717
:104560005183408384E090E09C838B83CFC18CE1B6
:1045700090E0C89EF001C99EF00DD89EF00D112468
:10458000EE0FFF1FEE0FFF1FE355FA4F608380E72A
:1045900090E0C89EF001C99EF00DD89EF00D112448
:1045A000E755FA4F80818627282F2295207F2827DC
:1045B00030E0522F4427C901B3E0880F991FBA9504
:1045C000E1F748275927818190E048275927A4E03F
:1045D00035952795AA95E1F74227532751834083C4
:1045E00083E090E0C1CF80E790E0C89EF001C99ED3
:1045F000F00DD89EF00D1124E755FA4F65838081A8
:104600008627282F2295207F282730E0522F442705
:10461000C90163E0880F991F6A95E1F74827592778
:10462000818190E04827592704E0359527950A9520
:10463000E1F7422753275183408385E090E094CFF0
:1046400080E790E0C89EF001C99EF00DD89EF00D65
:104650001124E755FA4F668380818627282F2295FB
:10466000207F282730E0522F4427C901B3E0880F6C
:10467000991FBA95E1F748275927818190E048278B
:104680005927A4E035952795AA95E1F742275327A6
:104690005183408386E090E067CF80E790E0C89E3A
:1046A000F001C99EF00DD89EF00D1124E755FA4F88
:1046B000678380818627282F2295207F282730E056
:1046C000522F4427C90163E0880F991F6A95E1F7CB
:1046D00048275927818190E04827592794E035954C
:1046E00027959A95E1F74227532751834083838189
:1046F000882309F446C087E090E036CF6D81F80149
:1047000083E0EE0FFF1F8A95E1F7E01BF10B319676
:1047100003E0EE0FFF1F0A95E1F7E60FF11DE755E5
:10472000FA4FF0826F5F6D8380E790E0C89EF001E2
:10473000C99EF00DD89EF00D1124E755FA4F8081E7
:104740008F25282F2295207F282730E0522F4427BD
:10475000C901B3E0880F991FBA95E1F74827592797
:10476000818190E048275927A4E035952795AA959F
:10477000E1F742275327518340838381681709F06B
:10478000C5C088E090E0F0CE80E790E0C89ED00100
:10479000C99EB00DD89EB00D1124A755BA4F9C915B
:1047A0001796EC911797F0E0EF51FD4F8081892724
:1047B000482F4295407F482750E0342F2227CA01D6
:1047C00073E0880F991F7A95E1F72827392711960A
:1047D0008C91119790E02827392764E055954795EB
:1047E0006A95E1F72427352711963C932E938F2D58
:1047F00090E0307082179307F9F0F501EE0FFF1F7C
:10480000EE0FFF1FE55EF94F80818F5F8083188276
:1048100081E090E09C838B83FEEFFF1609F076C069
:1048200082E090E09C838B8313961C9213978FEF0A
:104830009FEF8D939C936AC089E090E09C838B836B
:10484000F80183E0EE0FFF1F8A95E1F7E01BF10B03
:10485000319603E0EE0FFF1F0A95E1F78D81E80F17
:10486000F11DE755FA4FF08251C0262F30E080E766
:1048700090E0C89EB001C99E700DD89E700D1124A5
:1048800067557A4FFB01818190E028173907E9F0DD
:10489000F501EE0FFF1FEE0FFF1FE55EF94F808160
:1048A0008F5F8083188281E090E09C838B83FEEF92
:1048B000FF1661F582E090E09C838B83EB011B8205
:1048C0008FEF9FEF9983888321C081E0888381E007
:1048D00090E09C838B83F801B3E0EE0FFF1FBA9545
:1048E000E1F7E01BF10B3196A3E0EE0FFF1FAA9555
:1048F000E1F78D81E80FF11DE655FA4FF082DA01FC
:10490000FB0180E701900D928150E1F7D601AA0FDB
:10491000BB1FAC0DBD1DAA0FBB1FAA0FBB1FA75EFF
:10492000B94F8C91813069F58CE190E0C89EF0011F
:10493000C99EF00DD89EF00D1124EE0FFF1FEE0F53
:10494000FF1FE355FA4F808116968C9316971896A1
:104950008D919C911997892B21F41B961C921E9284
:104960001A97F601EE0FFF1FEC0DFD1DEE0FFF1F56
:10497000EE0FFF1FE75EF94F8085918501969187C5
:104980008087F601EE0FFF1FEC0DFD1DEE0FFF1FE0
:10499000EE0FFF1FDF01A75EB94F16968C91169799
:1049A0008F5FE4018E8318968D919C91199799875A
:1049B0008887E55EF94F80818A871B8610828C91FB
:1049C000DF91CF911F910F91FF90DF90CF90BF901B
:1049D000AF909F908F9008954F925F927F928F92A9
:1049E0009F92AF92BF92CF92DF92EF92FF920F937E
:1049F0001F93DF93CF93CDB7DEB7C854D0400FB627
:104A0000F894DEBF0FBECDBF8BEB94E00E942E0466
:104A100000D000D00EE914E0EDB7FEB71283018399
:104A200088E791E0948383830E94022A3DE6432E27
:104A300031E0532EEE24FF24CC24DD240F900F9080
:104A40000F900F90702E012F29E0A22EB12CAC0EEA
:104A5000BD1E4E010894811C911C8EE994E00E94B9
:104A6000B62A982F8D3031F08D30DCF180538230B2
:104A7000C0F530C01830A1F59981892F805382305C
:104A800078F5913311F490E801C090E08A81813388
:104A900009F4905C8B81813309F4905E8C818133C1
:104AA00009F4905F8D81813309F4985F8E818133A1
:104AB00009F49C5F8F81813309F49E5F888581337F
:104AC00009F49F5FF501EE0DFF1D90830894E11C32
:104AD000F11C06C0F401E10FF11D90831F5F01C0BE
:104AE00010E0F0E4EF16F104C9F48BEB94E0B601AA
:104AF000A5010E9419030894C11CD11C00D000D04C
:104B0000EDB7FEB771820283548243820E94022A6B
:104B1000EE24FF240F900F900F900F90FFEFCF1611
:104B2000D10409F00CF499CFC85BDF4F0FB6F894AD
:104B3000DEBF0FBECDBFCF91DF911F910F91FF90D0
:104B4000EF90DF90CF90BF90AF909F908F907F902D
:104B50005F904F900895AF92BF92CF92DF92EF9205
:104B6000FF920F931F93DF93CF93CDB7DEB7CC5750
:104B7000D0400FB6F894DEBF0FBECDBF8E01035FED
:104B80001F4F5E010894A11CB11CEE24E39445E183
:104B9000C42ED12CCC0EDD1EC3C18EE994E00E9440
:104BA000B62AF82E80919905882311F50E94D532F6
:104BB00060527E4480409040D8F40E94D5326958BB
:104BC000734180409040A0F0FAE0FF1619F02DE00C
:104BD000F21631F480919A058F5F80939A0502C096
:104BE00010929A0580919A05833011F40E94EC246A
:104BF00080E06F2DA80195010E940622882309F408
:104C00008BC1E09299058C898E3109F4F2C08F3105
:104C100058F4813089F18130D0F0883109F44CC0EA
:104C20008D3109F079C171C18E3309F405C18F331B
:104C300038F4833209F41FC18A3209F06DC116C1FC
:104C40008A3409F48EC0883A09F066C134C18A8971
:104C500080939B058B8980939C05F80180858093C8
:104C6000FD04868580939D05881F8827881F809373
:104C7000FE0410929E0550C1F8016689778980E094
:104C800090E00E94B43520E030E04AE754E40E940E
:104C90001B3560932405709325058093260590931A
:104CA0002705F801808D918D9093540580935305CD
:104CB00086A18093340530C1F801608D718D828D9D
:104CC000938D0E94B63520E030E04AE754E40E941C
:104CD0001B350E94833560934F0570935005809378
:104CE000510590935205F8016089718982899389F1
:104CF0000E94B63520E836E948E15BE40E941B35A6
:104D000060931A0570931B0580931C0590931D05F5
:104D1000F80164897589868997890E94B63520E8EB
:104D200036E948E15BE40E941B3560931E057093F1
:104D30001F058093200590932105F601848D8093B3
:104D40002205858D80932305828D938D9093960502
:104D500080939505848995899093A00580939F05FC
:104D6000DBC0F60180819181A281B3818093B5027D
:104D70009093B602A093B702B093B8028481958154
:104D8000A681B7818093470590934805A093490574
:104D9000B0934A05F801608D718D882777FD809565
:104DA000982F0E94B6356093020570930305809397
:104DB000040590930505F801828D8093350580895F
:104DC0009189A289B3898093A1059093A205A093AC
:104DD000A305B093A405F60184859585A685B785BE
:104DE00080934B0590934C05A0934D05B0934E05D1
:104DF00093C0F801608971898289938921EE3EE22E
:104E000045E652E40E94E9360E9483357093F2042D
:104E10006093F104F801648575858685978521EE98
:104E20003EE245E652E40E94E9360E9483357093E3
:104E3000F0046093EF0470C0F801868D978D909315
:104E400001058093000580A191A190930D058093A9
:104E50000C05808D918DA28DB38D80930705909365
:104E60000805A0930905B0930A0556C0F80180858E
:104E700080930B0551C0F6018485958590935E055E
:104E800080935D0586859785909362058093610583
:104E9000F801808D918D9093640580936305F601F0
:104EA000828993899093660580936505F801858DC5
:104EB0008093750531C0F601608171818281938193
:104EC0000E9483359B0177FF03C0309521953F4FAA
:104ED000B901882777FD8095982F0E94B635609399
:104EE00068057093690580936A0590936B05F601D8
:104EF00084819581A681B7818093F3049093F40413
:104F0000A093F504B093F60407C0F801848995894D
:104F100090938405809383058AE890E00E943C3357
:104F20008EE994E00E94862A181619060CF435CEF4
:104F30008091A5059091A6052B853C85820F931F36
:104F40009093A6058093A5052B818091A70590914C
:104F5000A805820F911D9093A8058093A705C458BA
:104F6000DF4F0FB6F894DEBF0FBECDBFCF91DF91FC
:104F70001F910F91FF90EF90DF90CF90BF90AF9077
:104F8000089586E061E00E94C03308950E94AB2539
:104F90008DEC94E00E94193108950F931F9386E0E1
:104FA00061E00E9481330EE914E0C80140E051EE57
:104FB00060E070E00E94242A10935C0600935B0678
:104FC0000E94C1278BEB94E00E94AD040E94F5146F
:104FD00064EF71E080E090E00E94E3320E945306AB
:104FE0001092550507C00E94D21C809155058F5F15
:104FF00080935505809155058230A8F31092550590
:1050000060ED77E080E090E00E94E3328EE994E08A
:105010000E94032B8DEC94E069EB79E228E730E005
:1050200040E050E000E00E94CB308BEB94E00E9427
:105030002E048DEC94E00E9431311F910F91089560
:105040002F923F924F925F926F927F928F929F9298
:10505000AF92BF92CF92DF92EF92FF920F931F9386
:10506000DF93CF9300D000D0CDB7DEB7E090A1059D
:10507000F090A2050091A3051091A405C801B70105
:105080002091360630913706409138065091390606
:105090000E944D346093EB047093EC048093ED0414
:1050A0009093EE049091FE0480913A06981721F0B7
:1050B00081E089278093980590933A06A0909805FF
:1050C000AA2059F580912205823008F43BC18091D5
:1050D0001A0590911B05A0911C05B0911D058093A8
:1050E0003B0690933C06A0933D06B0933E0680910C
:1050F0001E0590911F05A0912005B0912105809378
:105100003F0690934006A0934106B093420610924A
:10511000430681E08093980515C181E0A81609F047
:1051200011C160904306E8E1E61580F16091440604
:10513000709145068091460690914706A801970117
:105140000E944D349F7720E030E040E05FE30E9412
:10515000DE3618165CF410924306E0924406F09294
:105160004506009346061093470610C0862D8F5FB4
:1051700080934306893151F4E0923606F092370667
:105180000093380610933906A0922506E0903B065E
:10519000F0903C0600913D0610913E06C801B70113
:1051A0009F7725E33AEF4EE85CE30E94E9360E94E0
:1051B000183569837A838B839C83C801B70120915A
:1051C0001A0530911B0540911C0550911D050E9448
:1051D0004D341B012C019F7720EC3BE649ED57E451
:1051E0000E94E9365B016C0160913F0670914006B8
:1051F000809141069091420620911E0530911F0535
:1052000040912005509121050E944D343B014C01F5
:105210009F7720EC3BE649ED57E40E94E93629816F
:105220003A814B815C810E94E9367B018C01C60189
:10523000B501A60195010E94E9365B016C01C80128
:10524000B701A80197010E94E9369B01AC01C60194
:10525000B5010E944E340E9470370E9483356093DE
:1052600028057093290580932A0590932B0560E00B
:1052700070E080E89FE329813A814B815C810E9444
:105280001B359B01AC01C201B1010E94E93697FABE
:10529000909497F89094A40193010E94C13420EE59
:1052A0003EE245E652E40E94E93620E030E044EB7D
:1052B00052E40E944E340E9483359B01AC0197FF5B
:1052C00004C028593E4F4F4F5F4FCA01B901645B7C
:1052D00070408040904097FF06C0CA01B9016C54ED
:1052E0007F4F8F4F9F4F0E94B6352091020530911E
:1052F000030540910405509105050E944D340E941C
:10530000833597FF04C068597E4F8F4F9F4F0E948F
:10531000B63520E030E044EB53E40E941B3520E03A
:1053200030E040E851E40E94E9360E944C370E9488
:105330008335DC01CB0160E170E00E9442388F5F71
:105340008093FF040F900F900F900F90CF91DF91FB
:105350001F910F91FF90EF90DF90CF90BF90AF9093
:105360009F908F907F906F905F904F903F902F9085
:1053700008950E9493098091340590E0853191054C
:1053800010F48DE810C08932910510F48CE80BC040
:105390008D33910510F48BE806C08135910510F02E
:1053A00089E801C08AE88093B4028BEB94E00E9404
:1053B00020280E94281A0E944D1808956EBD0DB431
:1053C00007FEFDCF8EB508958DE061E00E94813328
:1053D0008BE061E00E9481338CE060E00E948133C9
:1053E0008AE061E00E9481331CBC80E58CBD8DB5F4
:1053F0008EB5089588E496E00E94E42908958FEF21
:105400009FE70895DF93CF93CDB7DEB7FE013996BE
:105410008D819E8161E04F8158859F010E94A32C60
:10542000CF91DF910895DF93CF93CDB7DEB7FE0123
:1054300039968D819E8160E04F8158859F010E9441
:10544000A32CCF91DF9108950F931F93DC01ED9171
:10545000FC910288F389E02D20E030E000E010E0CC
:1054600009951F910F9108958F92AF92CF92EF926D
:10547000FF920F931F93DF93CF93CDB7DEB7FC015D
:105480001382128288EE93E0A0E0B0E084839583DB
:10549000A683B78389E094E091838083558744870E
:1054A00037872687118B008BF38AE28AC48AA58A04
:1054B000868A70E0CB0123E0880F991F2A95E1F7D7
:1054C0009C01275B394F308F278B8F5A994F928FD2
:1054D000818F81E090E002C0880F991F6A95E2F702
:1054E00020915906282B20935906CF0140E051EE18
:1054F00060E070E00E94242ACF91DF911F910F910C
:10550000FF90EF90CF90AF908F900895FC01838D26
:10551000882319F42FEF3FEF0DC00788F08DE02DA1
:105520002081318182819381281B390B848195816F
:1055300028233923C9010895FC01838D882319F498
:105540002FEF3FEF11C0018CF28DE02D20813181D2
:1055500082819381281B390B209530958481958118
:10556000282339232F5F3F4FC9010895FC01838D04
:10557000882361F0A789B08D2D913C9111971296E7
:105580008D919C9113972817390721F44FEF5FEF06
:10559000CA01089512968D919C9113971696ED91DC
:1055A000FC911797E80FF91F408112968D919C91FD
:1055B0001397019614962D913C911597822393236E
:1055C00013969C938E93129750E0E2CFFC01838D4B
:1055D000882351F00788F08DE02D20813181828170
:1055E00093812817390721F42FEF3FEFC901089560
:1055F000828193810680F781E02DE80FF91F808179
:10560000282F30E0F3CFDC015796ED91FC915897AD
:1056100082819381918380835996ED91FC915A9771
:1056200080819181938382830895DC015B968C91C4
:105630005B978823A9F15996ED91FC915A972081A7
:1056400031812F5F3F4F84819581282339235C96D8
:105650008C915C97882329F08281938128173907E0
:10566000F9F08281938128173907D9F380819181DC
:105670000680F781E02DE80FF91F60835996ED91C0
:10568000FC915A97318320835296ED91FC91539768
:10569000808156969C91892B808321E030E002C066
:1056A00020E030E0C9010895CF93DF93EC011B8225
:1056B0001A828A819B81998388831D821C828E81B4
:1056C0009F81009721F00E94F5311F821E82DF9199
:1056D000CF9108950F931F938C01DC015296ED91A9
:1056E000FC915397208156968C91569755969C9194
:1056F0005597892B80958223808357968D919C9115
:1057000058970E94542BF801818D928D0E94542B42
:10571000D8015B961C921F910F9108950F931F93D0
:10572000CF93DF938C01FC011382128282819381DB
:105730009183808341E0A1E0B0E001C04F5FFD01B3
:10574000042E02C0EE0FFF1F0A94E2F79B0182E0D5
:105750006130780710F020E032E0E217F30770F3D1
:10576000C1E0D0E002C0CC0FDD1F4A95E2F72197DF
:10577000F801268137812115310541F08481958119
:105780008C179D0789F0C9010E94F531F801D58376
:10579000C483CE0101960E9458319C01F801978381
:1057A000868380E0232B09F081E0DF91CF911F9168
:1057B0000F910895AF92BF92CF92DF92EF92FF9236
:1057C0000F931F93CF93DF937C015A016B01E90183
:1057D000DC015B968C915B978823F1F021153105F4
:1057E00039F45796ED91FC915897C481D581219653
:1057F0000115110549F4D7015996ED91FC915A977D
:10580000048115810F5F1F4FD701ED91FC91008836
:10581000F189E02DC7010995F7018789908D2097BF
:1058200011F4C0E8D0E0BE010E948E2B882381F0E5
:10583000D70159968D919C915A970115110511F434
:1058400000E110E0B8010E948E2B882309F04DC0C2
:10585000D701ED91FC910088F189E02DC7010995F0
:1058600067C0D7015096ED91FC915197B0E0AB160F
:10587000B1EEBB06B0E0CB06B0E0DB0609F454C0E5
:1058800081E090E0D70154960C9002C0880F991FD8
:105890000A94E2F7808360E079E08DE390E0A6016E
:1058A00095010E9477382150304040405040CA0155
:1058B000B90122E030E040E050E00E947738D701A3
:1058C0001C96ED91FC911D9730831E96ED91FC91F5
:1058D0001F972083D7015296ED91FC9153978081B9
:1058E00055969C91892B808323C0D7015996ED91C1
:1058F000FC915A97138212828281938191838083D3
:105900005796ED91FC915897138212828281938170
:105910009183808381E05B968C931A141B041C0492
:105920001D040CF49ECFD6CF108220E130E0C7CF0B
:10593000DF91CF911F910F91FF90EF90DF90CF906B
:10594000BF90AF9008952F923F924F925F926F92C7
:105950007F928F929F92AF92BF92CF92DF92EF92FF
:10596000FF920F931F93DF93CF93CDB7DEB764976A
:105970000FB6F894DEBF0FBECDBF3C01688B5A8BCB
:10598000498B69011C01AE014F5F5F4F5C8B4B8BF4
:10599000E989FA89488940FD659140FF6191FA8B58
:1059A000E98B662309F4D7C3653249F440FD85913C
:1059B00040FF8191FA8BE98B8532B1F40CC06A30DB
:1059C00051F4D301ED91FC910190F081E02DC101E2
:1059D0006DE009956AE0D301ED91FC910190F081B1
:1059E000E02DC1010995D4CF982F10E08824992487
:1059F0001032B0F49B3269F09C3228F4903251F0AE
:105A0000933271F40BC09D3239F0903349F4116038
:105A100028C01260146025C0186023C0106121C026
:105A200017FD2BC0892F80538A3078F416FF06C0EB
:105A3000BAE09B9E902C1124980E13C0EAE08E9E33
:105A4000802C1124880E10620CC09E3221F416FDA9
:105A500082C3106406C09C3611F4106802C09836E8
:105A600061F4E989FA89488940FD959140FF919157
:105A7000FA8BE98B992309F0BBCF892F85548330AA
:105A800020F4812F8061905E07C0892F8556833076
:105A900008F0E6C1812F8F7E86FD02C076E0972E4A
:105AA0006FE3F62EF822953619F450E4F52A07C074
:105AB000963619F480E8F82A02C091109A94F7FEFD
:105AC0000BC09BE3991520F427E05CE3B52E0DC0D5
:105AD000B92CB39427E009C0A7E0A91520F447E04A
