:100000000C9464000C948C000C948C000C948C0068
:100010000C948C000C94A1080C948C000C948C0013
:100020000C948C000C948C000C948C000C948C0020
:100030000C948C000C948C000C948C000C948C0010
:100040000C94F6100C948C000C9458130C94A6137A
:100050000C948C000C948C000C948C000C948C00F0
:100060000C948C000C948C000000000024002700ED
:100070002A0000000000250028002B0000000000DE
:1000800023002600290004040404040404040202DA
:100090000202020203030303030301020408102007
:1000A0004080010204081020010204081020000012
:1000B0000007000201000003040600000000000029
:1000C0000000F3041215EC0411241FBECFEFD8E09A
:1000D000DEBFCDBF11E0A0E0B1E0E6E5F0E302C095
:1000E00005900D92AE37B107D9F714E0AEE7B1E055
:1000F00001C01D92A238B107E1F710E0C6ECD0E0D4
:1001000004C02297FE010E941A18C23CD107C9F709
:100110000E9468150C941E180C940000CF93DF9376
:10012000BC018230910510F462E070E0A09180047F
:10013000B0918104ED01E0E0F0E040E050E021C04A
:10014000888199818617970769F48A819B81309706
:1001500019F09383828304C0909381048093800478
:10016000FE0134C06817790738F44115510519F0BC
:100170008417950708F4AC01FE018A819B819C01DC
:10018000E9012097E9F641155105A9F1CA01861B3D
:10019000970B049708F4BA01E0E0F0E02AC08D91D3
:1001A0009C91119784179507F9F46417750781F4EA
:1001B00012968D919C911397309719F093838283B7
:1001C00004C09093810480938004FD0132964CC05A
:1001D000CA01861B970BFD01E80FF91F619371930C
:1001E00002978D939C9340C0FD01828193819C0175
:1001F000D9011097A1F680917E0490917F04892BFC
:1002000041F4809102019091030190937F048093C7
:100210007E0440910401509105014115510541F4BE
:100220004DB75EB78091000190910101481B590BB9
:1002300020917E0430917F04CA01821B930B8617A4
:10024000970780F0AB014E5F5F4F8417950750F022
:10025000420F531F50937F0440937E04F901619332
:10026000719302C0E0E0F0E0CF01DF91CF910895FB
:10027000CF93DF93009709F450C0EC0122971B82C3
:100280001A82A0918004B0918104109709F140E096
:1002900050E0AC17BD0708F1BB83AA83FE01219192
:1002A0003191E20FF31FAE17BF0779F48D919C9146
:1002B0001197280F391F2E5F3F4F398328831296DD
:1002C0008D919C9113979B838A834115510571F4FD
:1002D000D0938104C093800420C012968D919C918C
:1002E0001397AD01009711F0DC01D3CFFA01D3834E
:1002F000C28321913191E20FF31FCE17DF0769F41A
:1003000088819981280F391F2E5F3F4FFA01318371
:1003100020838A819B8193838283DF91CF9108958B
:100320008091F301823009F0A1C08091FB0180939C
:1003300085028091FC01809386028091FD0180936B
:1003400087028091FE0180938802609185027091FE
:10035000860280918702909188020E94A51620E86B
:1003600036E948E15BE40E940A166093CA01709383
:10037000CB018093CC019093CD018091FF018093BC
:100380008502809100028093860280910102809311
:1003900087028091020280938802609185027091A9
:1003A000860280918702909188020E94A51620E81B
:1003B00036E948E15BE40E940A166093C601709337
:1003C000C7018093C8019093C90180910302809373
:1003D00085028091040280938602809105028093B9
:1003E0008702809106028093880260918502709155
:1003F000860280918702909188020E94A51620E0D3
:1004000030E04AE754E40E940A166093D2017093E8
:10041000D3018093D4019093D501809107028093FA
:100420008502809108028093860280910902809360
:10043000870280910A028093880260918502709100
:10044000860280918702909188020E94A51620E082
:1004500030E04AE754E40E940A166093CE0170939C
:10046000CF018093D0019093D1010895833009F09A
:1004700050C08091FC0180FF6DC18091FB0190E034
:100480009093210180932001039709F063C180912B
:10049000790290917A02A0917B02B0917C02009740
:1004A000A105B10509F056C16091C6017091C7015F
:1004B0008091C8019091C9010E94721660937902DF
:1004C00070937A0280937B0290937C026091CA01C0
:1004D0007091CB018091CC019091CD010E94721658
:1004E00060937D0270937E0280937F0290938002DE
:1004F0008091CE019091CF01A091D001B091D10116
:100500008093810290938202A0938302B09384022D
:100510000895863029F4809126028093EE01089593
:10052000843009F580910302809385028091040252
:100530008093860280918502909186029093230198
:1005400080932201809101028093850280910202B2
:100550008093860280918502909186029093250176
:10056000809324010895823109F0A1C08091030293
:100570008093850280910402809386028091050217
:1005800080938702809106028093880260918502A1
:100590007091860280918702909188020E94A51630
:1005A00020E030E048EC52E40E940A166093DE013D
:1005B0007093DF018093E0019093E1018091070245
:1005C00080938502809108028093860280910902BF
:1005D0008093870280910A0280938802609185024D
:1005E0007091860280918702909188020E94A516E0
:1005F00020E030E048EC52E40E940A166093D601F5
:100600007093D7018093D8019093D90180910B0208
:100610008093850280910C028093860280910D0266
:100620008093870280910E028093880260918502F8
:100630007091860280918702909188020E94A5168F
:1006400020E030E048EC52E40E940A166093DA01A0
:100650007093DB018093DC019093DD0180910F02A8
:10066000809385028091100280938602809111020E
:1006700080938702809112028093880260918502A4
:100680007091860280918702909188020E94A5163F
:1006900020E030E543EC57E40E940A1660932601FF
:1006A0007093270180932801909329010895813246
:1006B00009F050C080910A0280FF4CC08091050271
:1006C000809389028091890290918A029093E5013A
:1006D0008093E401809106028093890280918902CF
:1006E00090918A029093E7018093E6018091030242
:1006F0008093850280910402809386028091850216
:10070000909186029093E3018093E2018091070229
:10071000809389028091890290918A029093E901E5
:100720008093E80180910802809389028091890278
:1007300090918A029093EB018093EA0180910902E3
:10074000809389028091890290918A029093ED01B1
:100750008093EC0108950F931F93CF93DF938091C3
:10076000C5028F5F8093C502843011F41092C502D8
:1007700067E571E08091C502A82FB0E0AA0FBB1F0A
:10078000A252BD4F06EC12E04EED52E0CDEAD2E0AF
:100790002FB7F894FB018081E82FF0E0EE0FFF1FE8
:1007A000EC5CFE4F808191812FBF11969C938E93BC
:1007B000FA012081318182819381280F391F848140
:1007C0009581280F391F86819781280F391F2E5F49
:1007D0003F4F3695279536952795F801318320832D
:1007E0008881998103972817390730F42E5F3F4F8E
:1007F000398328832250304088819981039682175B
:10080000930720F422503040398328836F5F7F4F55
:1008100018960E5F1F4F485F5F4F2296F1E06336D8
:100820007F0709F0B5CFDF91CF911F910F91089508
:10083000EF92FF920F931F936091A9027091AA0209
:10084000685E7340882777FD8095982F0E94A516D3
:1008500020E030E040E251E40E940A167B018C0166
:1008600020E030E040E050E00E94061688231CF4AF
:1008700060E070E011C0C801B70120E030E048EC52
:1008800052E40E94551718161CF464E670E004C088
:10089000C801B7010E947216709393016093920190
:1008A0001F910F91FF90EF900895EF92FF920F9399
:1008B0001F93AA2797FDA095BA2FBC01CD010E94D6
:1008C000A51620919E0130919F014091A001509169
:1008D000A1010E94591720E030E041E655E40E9452
:1008E0000A1620918C0130918D0140918E0150911A
:1008F0008F010E94A2159B01AC0160938C01709343
:100900008D0180938E0190938F0160E070E08AEFFB
:1009100095E40E94A1157B018C0120E030E040E0CD
:1009200050E00E94061688235CF40F2EF0E0EF2EB4
:10093000F0E0FF2EF0E00F2FF0E01F2FF02D14C09D
:10094000C801B70120E030E04AEF55E40E94551796
:10095000181654F40F2EF0E0EF2EF0E0FF2EFAEF11
:100960000F2FF5E41F2FF02DE0928801F0928901FE
:1009700000938A0110938B011F910F91FF90EF90CC
:10098000089581309105B1F46F5F7F4F21F582EAC0
:1009900091E060E270E00E94CC108EEA91E060E8A5
:1009A00070E00E94CC108AEB91E060E870E00E9459
:1009B000CC100895892B79F46F5F7F4F61F48AEB37
:1009C00091E00E94C6108EEA91E00E94C61082EA71
:1009D00091E00E94C610089580E090E06FEF7FEFF5
:1009E0000E94C104089581E090E06FEF7FEF0E94C4
:1009F000C10408958EE480937C0062E070E080E0A2
:100A000090E00E94721180917A00806480937A0055
:100A100080917A0086FDFCCF80917800609179000A
:100A2000362F20E090E0282B392B442737FD4095C6
:100A3000542F64EB7BE281E190E00E94FD17CA0134
:100A4000B90108958F929F92AF92BF92CF92DF9299
:100A5000EF92FF920F931F930E94FA047B018C0187
:100A60008EE00E940612AA2797FDA095BA2FBC011E
:100A7000CD010E94A5165B016C0160938F027093FB
:100A8000900280939102909392023EEA832E31E08D
:100A9000932E0027F7FC0095102FC801B7010E9484
:100AA000A5169B01AC01C601B5010E94591720E0B3
:100AB00030E441EA55E40E940A160E9477169B0131
:100AC000AC01C401B9010E946710C4010E94B110B9
:100AD000A0E0B0E0BC01CD010E94A31629E23CE5F4
:100AE00043E451E40E940A1660939A0170939B01BB
:100AF00080939C0190939D010E94FA047B018C01DC
:100B000081E10E940612AA2797FDA095BA2FBC0189
:100B1000CD010E94A5165B016C0160939302709356
:100B2000940280939502909396022AEB822E21E004
:100B3000922E0027F7FC0095102FC801B7010E94E4
:100B4000A5169B01AC01C601B5010E94591720E012
:100B500030E441EA55E40E940A160E9477169B0190
:100B6000AC01C401B9010E946710C4010E94B11018
:100B7000A0E0B0E0BC01CD010E94A31624EA30E75A
:100B80004DE150E40E940A1660939E0170939F010C
:100B90008093A0019093A1011F910F91FF90EF907E
:100BA000DF90CF90BF90AF909F908F9008958CE092
:100BB00061E028EC30E040E050E00E94BB1262307F
:100BC000710514F460E070E0660F771F65367105FB
:100BD00014F064E670E082EA91E00E94671082EA15
:100BE00091E00E94B110909391018093900108953B
:100BF000AF92BF92CF92DF92EF92FF920F931F932B
:100C00000E943E115B016C01E0905001F090510197
:100C1000009152011091530120EBE21624E0F206FC
:100C200020E0020720E0120708F049C080919702F7
:100C300090919802A0919902B0919A0289559B4196
:100C4000A040B04090F080915401909155010197DF
:100C500061F480919F029091A002A091A102B091B5
:100C6000A2020097A105B10551F181E090E09093B7
:100C70000F0180930E019093550180935401809150
:100C80009F029091A002A091A102B091A202209196
:100C90009B0230919C0240919D0250919E02821BCA
:100CA000930BA40BB50B8A0D9B1DAC1DBD1D809332
:100CB0009F029093A002A093A102B093A202D80138
:100CC000C701825D9540A040B0408897A105B1055D
:100CD00008F049C08091970290919802A0919902E2
:100CE000B0919A0289559B41A040B04090F080910C
:100CF000540190915501029761F480919F02909167
:100D0000A002A091A102B091A2020097A105B10595
:100D100051F182E090E090930F0180930E01909347
:100D200055018093540180919F029091A002A0915F
:100D3000A102B091A20220919B0230919C024091AD
:100D40009D0250919E02821B930BA40BB50B8A0D42
:100D50009B1DAC1DBD1D80939F029093A002A0938C
:100D6000A102B093A2026AE3E61667E0F60660E02D
:100D7000060760E0160708F449C080919702909139
:100D80009802A0919902B0919A0289559B41A04086
:100D9000B04090F08091540190915501059761F415
:100DA00080919F029091A002A091A102B091A20215
:100DB0000097A105B10551F185E090E090930F01F6
:100DC00080930E01909355018093540180919F026E
:100DD0009091A002A091A102B091A20220919B0249
:100DE00030919C0240919D0250919E02821B930B78
:100DF000A40BB50B8A0D9B1DAC1DBD1D80939F02DE
:100E00009093A002A093A102B093A20220919F020E
:100E10003091A0024091A1025091A202213D67E0D1
:100E2000360760E0460760E0560740F010929702F0
:100E3000109298021092990210929A02D801C7015A
:100E4000805B9440A040B04082529140A040B040AE
:100E5000B0F086E09AEFAFEFBFEFE80EF91E0A1F81
:100E60001B1F90E4E91691E0F90690E0090790E075
:100E7000190728F0211531054105510571F586E066
:100E800090E090930F0180930E01809197029091D2
:100E90009802A0919902B0919A0220919B02309100
:100EA0009C0240919D0250919E02821B930BA40BC9
:100EB000B50B8A0D9B1DAC1DBD1D809397029093B1
:100EC0009802A0939902B0939A0210929F021092F6
:100ED000A0021092A1021092A202A0929B02B092D4
:100EE0009C02C0929D02D0929E021F910F91FF9092
:100EF000EF90DF90CF90BF90AF9008950F931F9326
:100F0000CF93DF9380913E038F5F80933E038430C5
:100F100011F410923E0363E671E080913E03A82F26
:100F2000B0E0AA0FBB1FA75BBC4F0FE313E049E47F
:100F300053E0C3EAD2E02FB7F894FB018081E82F99
:100F4000F0E0EE0FFF1FE65DFE4F808191812FBF25
:100F500011969C938E93FA01208131818281938135
:100F6000280F391F84819581280F391F8681978129
:100F7000280F391F2E5F3F4F3695279536952795B9
:100F8000F8013183208388819981039728173907D5
:100F900030F42E5F3F4F39832883225030408881C0
:100FA000998103968217930720F4225030403983A9
:100FB00028836F5F7F4F18960E5F1F4F485F5F4F0C
:100FC0002296F1E068367F0709F0B5CF8091A30241
:100FD0009091A402AA2797FDA095BA2F80931C0197
:100FE00090931D01A0931E01B0931F018091A50253
:100FF0009091A602AA2797FDA095BA2F8093180179
:1010000090931901A0931A01B0931B010E943E1105
:10101000605177428040904004F580911801909192
:101020001901A0911A01B0911B0180938001909346
:101030008101A0938201B093830180911C01909162
:101040001D01A0911E01B0911F0180938401909316
:101050008501A0938601B0938701DF91CF911F9105
:101060000F910895EF92FF920F931F930E943E11EC
:101070007B018C010E947E070E94AB038091B3022A
:101080009091B4029093AA028093A9026091B90250
:101090007091BA027093AC026093AB028091B1027E
:1010A0009091B2029093A8028093A70280918B0244
:1010B00090918C02A0918D02B0918E02A8019701AF
:1010C000281B390B4A0B5B0B2F31310541055105AC
:1010D00098F19B01442737FD4095542F80914C0196
:1010E00090914D01A0914E01B0914F01821793074D
:1010F000A407B50789F0821B930BA40BB50B0597CA
:10110000A105B10548F020934C0130934D01409367
:101110004E0150934F0108C020935001309351016C
:101120004093520150935301E0928B02F0928C0253
:1011300000938D0210938E021F910F91FF90EF90FC
:1011400008951F920F920FB60F9211240F931F93C1
:101150002F933F934F935F936F937F938F939F93BF
:10116000AF93BF93EF93FF9309B1109174031027CE
:101170000E944C1178940093740312FF2AC002FF5E
:1011800028C080917203909173039B01281B390B37
:1011900070937303609372034BE0293B340718F09C
:1011A0001092710316C0C901855893408351954030
:1011B00058F4E0917103EC3038F4F0E0EE0FFF1FCB
:1011C000EC5CFE4F31832083809171038F5F8093AD
:1011D000710314FF18C004FD12C080917703909131
:1011E00078039B01281B390BC90185589340835113
:1011F000954048F4309333012093320104C070933A
:1012000078036093770315FF18C005FD12C0809125
:10121000790390917A039B01281B390BC9018558EA
:1012200093408351954048F4309335012093340125
:1012300004C070937A036093790316FF18C006FD0B
:1012400012C080917B0390917C039B01281B390B7A
:10125000C901855893408351954048F43093370134
:101260002093360104C070937C0360937B0317FFC7
:1012700017C007FD11C080917D0390917E03681B0C
:10128000790BCB01855893408351954048F4709376
:1012900039016093380104C070937E0360937D032D
:1012A000FF91EF91BF91AF919F918F917F916F913E
:1012B0005F914F913F912F911F910F910F900FBE12
:1012C0000F901F9018958F929F92AF92BF92CF92DE
:1012D000DF92EF92FF920F931F93DF93CF93CDB7DF
:1012E000DEB728970FB6F894DEBF0FBECDBF6C01F6
:1012F0005A01F22E282F30E08EEF8B83FC82F90109
:10130000EE0FFF1FE20FF31FEE0FFF1FEE0FFF1F89
:10131000E158FC4F97819D83809194018E83809149
:1013200095018F8368879F5F97836FEF7FEFFE0143
:10133000349619E0812E912C8C0E9D1E1CC021919B
:101340002627822F8295807F822790E0382F2227C0
:10135000AC01A3E0440F551FAA95E1F724273527D8
:10136000672F77276227732724E0959587952A951D
:10137000E1F768277927E815F90509F7F5014F2DF9
:101380001BC081918627282F2295207F282730E0B7
:10139000722F6627C90113E0880F991F1A95E1F78C
:1013A000682779276A277B27B4E035952795BA9572
:1013B000E1F7622773274150A72FBB27442309F782
:1013C000802F8627282F2295207F282730E0922FF4
:1013D0008827A90163E0440F551F6A95E1F7842728
:1013E00095278A279B2754E0359527955A95E1F74D
:1013F0008227932789839A838E010D5F1F4FF801FF
:101400006081C114D10421F48CE594E00E94D214CF
:101410000F5F1F4F0815190591F7EF2CFF2400E00F
:1014200010E00DC0F501E00FF11F6081C114D1047F
:1014300021F48CE594E00E94D2140F5F1F4F0E152B
:101440001F0580F36981C114D10421F48CE594E077
:101450000E94D214FE0131966181CD2821F48CE5E1
:1014600094E00E94D21428960FB6F894DEBF0FBE07
:10147000CDBFCF91DF911F910F91FF90EF90DF9043
:10148000CF90BF90AF909F908F900895FF920F9351
:101490001F93DF93CF93CDB7DEB766970FB6F8945F
:1014A000DEBF0FBECDBF0E943E112091A30230913E
:1014B000A4024091A5025091A602E091A702F091EA
:1014C000A802A091A902B091AA020091AB021091CA
:1014D000AC02F090900169837A838B839C833E8376
:1014E0002D8358874F83FA87E987BC87AB871E8790
:1014F0000D87188A1F861A8A198A1C8A1B8A1D8AD8
:10150000FE8A80E090E063E2AE014F5F5F4F26E12C
:1015100004EF0E94630966960FB6F894DEBF0FBE13
:10152000CDBFCF91DF911F910F91FF900895AF92A2
:10153000BF92CF92DF92EF92FF920F931F93DF93B0
:10154000CF93CDB7DEB76F970FB6F894DEBF0FBE5F
:10155000CDBF60919A0170919B0180919C01909107
:101560009D0120E030E04AE754E40E9459170E94B0
:1015700072165B016C0160919E0170919F018091D8
:10158000A0019091A10120E030E048EC52E40E94DB
:1015900059170E9472167B018C016091880170912D
:1015A000890180918A0190918B0120E030E04AEF1F
:1015B00055E40E940A1620E030E048EC52E40E9414
:1015C00059170E94721619821A821B821C821D8270
:1015D0001E821F82188619861A861B861C861E8606
:1015E0001D86B88AAF86FA8AE98A1C8A1B8A1E8AF7
:1015F0001D8A188E1F8A1A8E198E1C8E1B8E1E8EA7
:101600001D8E6F8F80E090E061E0AE014F5F5F4F15
:101610002FE10CE70E9463096F960FB6F894DEBFC6
:101620000FBECDBFCF91DF911F910F91FF90EF9033
:10163000DF90CF90BF90AF900895AF92BF92CF92BE
:10164000DF92EF92FF920F931F93DF93CF93CDB76B
:10165000DEB764970FB6F894DEBF0FBECDBFA09083
:10166000DA01B090DB01C090DC01D090DD01609127
:1016700026017091270180912801909129010E94F3
:101680007216E0919201F0919301E090CE01F090FA
:10169000CF010091D0011091D1012091DE01309154
:1016A000DF014091E0015091E1015058A982BA82D6
:1016B000CB82DC82AD82BE82CF82D886E986FA8672
:1016C0000B871C872D873E874F87588B7A8B698BBA
:1016D000FC8BEB8B80E090E06AE4AE014F5F5F4FE4
:1016E00024E104E10E94630964960FB6F894DEBF1A
:1016F0000FBECDBFCF91DF911F910F91FF90EF9063
:10170000DF90CF90BF90AF900895EF92FF920F932C
:101710001F93DF93CF93CDB7DEB76C970FB6F894D6
:10172000DEBF0FBECDBF60918001709181018091BD
:10173000820190918301209118013091190140910B
:101740001A0150911B01621B730B840B950B0E94B5
:10175000A51626E53EE049E450E40E94591720E032
:1017600030E04AEF53E40E940A16209106013091BE
:10177000070140910801509109010E94591720E08A
:1017800030E040E451E40E940A169B01AC016093F2
:1017900010017093110180931201909313018091B5
:1017A0007E01882359F0DA01C901B05880931001F5
:1017B00090931101A0931201B093130160918401E1
:1017C00070918501809186019091870120911C0183
:1017D00030911D0140911E0150911F01621B730B3E
:1017E000840B950B0E94A51626E53EE049E450ECDB
:1017F0000E94591720E030E04AEF53E40E940A1695
:1018000020910A0130910B0140910C0150910D0182
:101810000E94591723E333E343EF50E40E940A1672
:101820009B01AC0160931401709315018093160124
:101830009093170180917F01882359F0DA01C90143
:10184000B0588093140190931501A0931601B093A2
:101850001701E0901001F090110100911201109118
:101860001301C801B7012DEC3CEC4CE45DE30E9490
:1018700006168823B4F4C801B7012DEC3CEC4CE407
:101880005DEB0E945517181664F480E090E0A0E02C
:10189000B0E08093100190931101A0931201B093D6
:1018A0001301E0901401F0901501009116011091C0
:1018B0001701C801B7012DEC3CEC4CE45DE30E943C
:1018C00006168823B4F4C801B7012DEC3CEC4CE4B7
:1018D0005DEB0E945517181664F480E090E0A0E0DC
:1018E000B0E08093140190931501A0931601B0937A
:1018F0001701609110017091110180911201909176
:10190000130120E030E040EA50E40E945517181619
:1019100064F480E090E0A0E0B0E080931001909348
:101920001101A0931201B093130160911401709101
:101930001501809116019091170120E030E040EAF6
:1019400050E40E945517181664F480E090E0A0E07F
:10195000B0E08093140190931501A0931601B09309
:101960001701609110017091110180911201909105
:10197000130120E030E040EA50EC0E940616882374
:1019800064F480E090E0A0E0B0E0809310019093D8
:101990001101A0931201B093130160911401709191
:1019A0001501809116019091170120E030E040EA86
:1019B00050EC0E940616882364F480E090E0A0E0DA
:1019C000B0E08093140190931501A0931601B09399
:1019D00017010E943E112091140130911501409190
:1019E000160150911701E0901001F0901101009143
:1019F00012011091130169837A838B839C832D8359
:101A00003E834F835887E986FA860B871C8780E0E0
:101A100090E0A0E0B0E08D879E87AF87B88B898B80
:101A20009A8BAB8BBC8B8D8B9E8BAF8BB88F898F3A
:101A30009A8FAB8FBC8F80E090E06EE1AE014F5F7C
:101A40005F4F2CE107E20E9463096C960FB6F89491
:101A5000DEBF0FBECDBFCF91DF911F910F91FF90E1
:101A6000EF9008952F923F924F925F926F927F92E4
:101A70008F929F92AF92BF92CF92DF92EF92FF929E
:101A80000F931F93DF93CF93CDB7DEB7A3970FB616
:101A9000F894DEBF0FBECDBF0E943E115B016C010A
:101AA000E0902001EBA26091C6017091C701809186
:101AB000C8019091C90120E836E948E15BE40E9441
:101AC00059170E94721669877A878B879C87609165
:101AD000CA017091CB018091CC019091CD0120E899
:101AE00036E948E15BE40E9459170E9472166D873F
:101AF0007E878F87988B6091CE017091CF01809106
:101B0000D0019091D1010E9472161B012C0100910D
:101B10002401109125011AA309A34091220150919B
:101B2000230158A34F8F6091DA017091DB018091FE
:101B3000DC019091DD010E9477163B014C01609120
:101B400026017091270180912801909129010E941E
:101B500077162091EE01A982BA82CB82DC821D82A7
:101B60001E821F821886298A3A8A4B8A5C8AE9A0DB
:101B7000FAA0FE8AED8A0F8D18A1188F0F8B7A8E2E
:101B8000698E7C8F6B8F1BA11D8F2E8F80E090E064
:101B900068E1AE014F5F5F4F2EE108E10E946309EB
:101BA000A3960FB6F894DEBF0FBECDBFCF91DF91E5
:101BB0001F910F91FF90EF90DF90CF90BF90AF906B
:101BC0009F908F907F906F905F904F903F902F905D
:101BD00008950F93DF93CF93CDB7DEB729970FB654
:101BE000F894DEBF0FBECDBF80910E0190910F0122
:101BF000AA2797FDA095BA2F89839A83AB83BC83CC
:101C000082E08D831E8289ED8F8383E088878987B8
:101C100080E090E060E0AE014F5F5F4F29E002E3BB
:101C20000E94630929960FB6F894DEBF0FBECDBFA0
:101C3000CF91DF910F910895EF92FF920F931F9331
:101C40000E943E117B018C0184E68093940182E323
:101C5000809395018091BF039091C003A091C1032F
:101C6000B091C203A8019701281B390B4A0B5B0BEB
:101C7000DA01C901885E9340A040B04090F00E9414
:101C8000E90DE092BF03F092C0030093C1031093EB
:101C9000C203E092AF03F092B0030093B10310933C
:101CA000B2038091BB039091BC03A091BD03B0919E
:101CB000BE03A8019701281B390B4A0B5B0BDA0105
:101CC000C901845F9140A040B040A0F00E94320D55
:101CD0000E941D0BE092BB03F092BC030093BD0376
:101CE0001093BE03E092AF03F092B0030093B103F0
:101CF0001093B2038091B7039091B803A091B903F8
:101D0000B091BA03A8019701281B390B4A0B5B0B52
:101D1000DA01C9018D549140A040B04090F00E947A
:101D2000970AE092B703F092B8030093B9031093B7
:101D3000BA03E092AF03F092B0030093B1031093A3
:101D4000B2038091B3039091B403A091B503B09115
:101D5000B603A8019701281B390B4A0B5B0B283CE3
:101D6000310541055105A0F00E94850B0E94460AED
:101D7000E092B303F092B4030093B5031093B6035B
:101D8000E092AF03F092B0030093B1031093B2035B
:101D90008091AF039091B003A091B103B091B203D1
:101DA000E81AF90A0A0B1B0B3FE0E316F1040105E0
:101DB000110510F42D9A01C02D981F910F91FF90DD
:101DC000EF9008958F929F92AF92BF92CF92DF9241
:101DD000EF92FF920F931F93CF93DF938CE594E0E4
:101DE0000E9468148C01181619060CF0C7C0C0E0D8
:101DF000D0E0E5E09E2E77E0872E68E0F62E56E0F4
:101E0000A52E42E0C42EBB24B39433E0D32E24E0AD
:101E1000E22E8CE594E00E949914282F8091F10124
:101E2000843009F445C0853050F48130D9F08130D8
:101E300098F08230F9F0833009F09BC02AC08630D8
:101E400009F454C0863008F442C0873009F46CC0ED
:101E5000883009F08EC06DC0253B09F08AC0B09271
:101E6000F10187C0223619F4C092F10182C01092AC
:101E7000F1017FC02093F2019091EF01920F9093B6
:101E8000EF018091F001890F8093F001D092F10170
:101E900070C02093F3019091EF01920F9093EF01A6
:101EA0008091F001890F8093F001E092F10161C00F
:101EB0002093F4019091EF01920F9093EF018091A4
:101EC000F001890F8093F0019092F10152C02093AC
:101ED000F5019091EF01920F9093EF018091F00145
:101EE000890F8093F001A092F10143C03091F60177
:101EF00037FD1CC0E32FF0E0E950FE4F20839091A6
:101F0000EF01920F9093EF018091F001890F809380
:101F1000F001932F9F5F9093F6018091F401981741
:101F200040F18092F10125C020937702F092F101F7
:101F300020C0209378029091EF018091770298174A
:101F400081F48091F001821761F40E9490010E9457
:101F50003E116093C3037093C4038093C5039093B1
:101F6000C6031092F1011092F6011092EF01109247
:101F7000F0012196C017D1070CF44BCFDF91CF9120
:101F80001F910F91FF90EF90DF90CF90BF90AF9097
:101F90009F908F900895EF92FF920F931F930E944E
:101FA000E20E0E9432080E94D7050E94F8050E94A6
:101FB00022050E9418040E943E117B018C01209191
:101FC000C7033091C8034091C9035091CA03DC0193
:101FD000CB01821B930BA40BB50BC397A105B105D5
:101FE00068F0C701821B930B0E945504E092C7035F
:101FF000F092C8030093C9031093CA030E941C0EF9
:102000001F910F91FF90EF9008950E94CB0F0895BC
:10201000E8E6F1E08BB19191892B8BB980916D004D
:10202000892B80936D0081E0ED36F80799F784E005
:10203000809368008CE594E040E051EE60E070E051
:102040000E94E1138CE060E00E9428128CE061E0C5
:102050000E94671282EA91E00E9441108EEA91E0AC
:102060000E9441108AEB91E00E9441108DE061E0F6
:102070000E94281268EE73E080E090E00E947211E6
:102080000895DC0113961C921E92129715961C92CD
:102090001E92149716961D921D921D921C921997CE
:1020A00020E030E00DC0C901880F991F1A96ED910C
:1020B000FC911B97E80FF91F118210822F5F3F4F91
:1020C0008D919C911197281739076CF308950F9300
:1020D0001F93CF93DF93EC01EC81FD81EE0FFF1F87
:1020E0000A851B85E00FF11F80819181A0E0B0E09F
:1020F0002E813F8148855985281B390B4A0B5B0B84
:10210000718360836C817D81CB01880F991F080FDB
:10211000191FF80180819181A0E0B0E0280F391FDC
:102120004A1F5B1F2E833F83488759876F5F7F4F0E
:102130007D836C83888199816817790711F41D82EA
:102140001C822A813B81888199812817390724F4D0
:102150002F5F3F4F3B832A83DF91CF911F910F91D8
:102160000895FC0182819381009719F420E030E00A
:102170000BC09C01442737FD4095542F6681778121
:10218000808591850E94DB17C9010895FC01828535
:1021900093850E9438010895CF93DF93EC01CB0122
:1021A00079836883880F991F0E948E008A879B8796
:1021B0001B821A821D821C821E821F82188619862B
:1021C00020E030E00BC0C901880F991FEA85FB852C
:1021D000E80FF91F118210822F5F3F4F888199818C
:1021E0002817390784F3DF91CF9108951F920F923A
:1021F0000FB60F9211242F933F938F939F93AF931A
:10220000BF938091CF039091D003A091D103B0915F
:10221000D2033091D3030196A11DB11D232F2D5F51
:102220002D3720F02D570196A11DB11D2093D3030A
:102230008093CF039093D003A093D103B093D203A4
:102240008091CB039091CC03A091CD03B091CE03AC
:102250000196A11DB11D8093CB039093CC03A09355
:10226000CD03B093CE03BF91AF919F918F913F91DA
:102270002F910F900FBE0F901F9018958FB7F89465
:102280002091CF033091D0034091D1035091D203DC
:102290008FBFB901CA0108959FB7F8942091CB036D
:1022A0003091CC034091CD035091CE0386B5A89BCD
:1022B00006C08F3F21F02F5F3F4F4F4F5F4F9FBFB3
:1022C000542F432F322F2227280F311D411D511D1E
:1022D00082E0220F331F441F551F8A95D1F7B901A1
:1022E000CA0108959B01AC017FB7F8948091CB039C
:1022F0009091CC03A091CD03B091CE0366B5A89B7D
:1023000005C06F3F19F00196A11DB11D7FBFBA2F07
:10231000A92F982F8827860F911DA11DB11D62E05E
:10232000880F991FAA1FBB1F6A95D1F7BC012DC04A
:10233000FFB7F8948091CB039091CC03A091CD038B
:10234000B091CE03E6B5A89B05C0EF3F19F001960A
:10235000A11DB11DFFBFBA2FA92F982F88278E0F5F
:10236000911DA11DB11DE2E0880F991FAA1FBB1F7F
:10237000EA95D1F7861B970B885E9340C8F22150EF
:1023800030404040504068517C4F21153105410597
:10239000510571F60895789484B5826084BD84B542
:1023A000816084BD85B5826085BD85B5816085BD50
:1023B000EEE6F0E0808181608083E1E8F0E0108269
:1023C000808182608083808181608083E0E8F0E0AA
:1023D000808181608083E1EBF0E080818460808394
:1023E000E0EBF0E0808181608083EAE7F0E08081CB
:1023F000846080838081826080838081816080832B
:102400008081806880831092C1000895982F8E305B
:1024100008F09E509770809156018295880F880F22
:10242000807C892B80937C0080917A0080648093EB
:102430007A0080917A0086FDFCCF2091780040914F
:102440007900942F80E030E0282B392BC9010895C2
:10245000CF93DF93482F50E0CA0186569F4FFC016F
:1024600034914A575F4FFA018491882369F190E0D3
:10247000880F991FFC01E859FF4FA591B491FC0109
:10248000EE58FF4FC591D491662351F42FB7F894BD
:102490008C91932F909589238C93888189230BC0ED
:1024A000623061F42FB7F8948C91932F9095892323
:1024B0008C938881832B88832FBF06C09FB7F894A5
:1024C0008C91832B8C939FBFDF91CF910895482FE0
:1024D00050E0CA0182559F4FFC012491CA018656E3
:1024E0009F4FFC0194914A575F4FFA013491332377
:1024F00009F440C0222351F1233071F0243028F434
:102500002130A1F0223011F514C02630B1F027306F
:10251000C1F02430D9F404C0809180008F7703C0CB
:10252000809180008F7D8093800010C084B58F776C
:1025300002C084B58F7D84BD09C08091B0008F77C3
:1025400003C08091B0008F7D8093B000E32FF0E056
:10255000EE0FFF1FEE58FF4FA591B4912FB7F894DF
:10256000662321F48C919095892302C08C91892B4C
:102570008C932FBF08958F929F92AF92BF92CF926C
:10258000DF92EF92FF920F931F93CF93DF93A82FC9
:10259000B0E0CD0186569F4FFC018490AA57BF4FF3
:1025A000FD018491662311F4992401C0982C6FEFEA
:1025B000A62E6FEFB62E6FEFC62E6FE0D62EA2229C
:1025C000B322C422D522682F70E0660F771F6458AB
:1025D0007F4FEE24FF248701FB01A591B4910BC02E
:1025E000EA14FB040C051D0509F44EC00894E11C17
:1025F000F11C011D111D8C918821891589F30CC0D6
:10260000EA14FB040C051D0509F43EC00894E11C06
:10261000F11C011D111D03C0FB01A591B4918C910A
:102620008821891569F720E030E040E050E0FB01A7
:10263000C591D4910FC0DA01C9018E0D9F1DA01F55
:10264000B11F8A159B05AC05BD05F1F02F5F3F4F0B
:102650004F4F5F4F88818821891569F3CA01B901FD
:1026600025E130E040E050E00E94BC179B01AC0146
:10267000205F3F4F4F4F5F4F84E05695479537950A
:1026800027958A95D1F704C020E030E040E050E083
:10269000B901CA01DF91CF911F910F91FF90EF9087
:1026A000DF90CF90BF90AF909F908F900895089546
:1026B0001F920F920FB60F9211242F933F934F93B7
:1026C0008F939F93EF93FF938091C00082FD1DC075
:1026D0004091C60020911404309115042F5F3F4FA4
:1026E0002F733070809116049091170428173907C2
:1026F00071F0E0911404F0911504EC52FC4F40830A
:10270000309315042093140402C08091C600FF91F9
:10271000EF919F918F914F913F912F910F900FBE0D
:102720000F901F901895E0916804F0916904E05CA7
:10273000FF4F8191919120813181821B930B8F7387
:102740009070892B11F00E94571308951F920F92D9
:102750000FB60F9211242F933F938F939F93EF9374
:10276000FF93209158043091590480915A0490911C
:102770005B042817390731F48091C1008F7D809365
:10278000C10014C0E0915A04F0915B04E85EFB4F75
:10279000208180915A0490915B0401968F73907010
:1027A00090935B0480935A042093C600FF91EF91AD
:1027B0009F918F913F912F910F900FBE0F901F907F
:1027C0001895AF92BF92DF92EF92FF920F931F93F3
:1027D000CF93DF93EC017A018B01DD24403081EE51
:1027E000580780E0680780E0780711F0DD24D39473
:1027F00091E0A92EB12CEC89FD89DD2069F0C5019D
:1028000008A002C0880F991F0A94E2F7808360E055
:1028100079E08DE390E005C0108260E874E88EE115
:1028200090E0A80197010E94DB1721503040404002
:102830005040569547953795279580E120303807C9
:1028400020F0DD2011F0DD24D6CFE889F98930832E
:10285000EA89FB89208319A2EE89FF89408121E062
:1028600030E0C9010C8C02C0880F991F0A94E2F76E
:10287000482B4083EE89FF894081C9010D8C02C03D
:10288000880F991F0A94E2F7482B4083EE89FF894D
:102890004081C9010E8C02C0880F991F0A94E2F78B
:1028A000482B4083EE89FF8980810F8C02C0220F64
:1028B000331F0A94E2F7209528232083DF91CF91DC
:1028C0001F910F91FF90EF90DF90BF90AF90089510
:1028D000DC011C96ED91FC911D97E05CFF4F21916E
:1028E000319180819181281B390B2F733070C90180
:1028F0000895DC011C96ED91FC911D97E05CFF4F63
:1029000020813181E054F040DF01AE5BBF4F8D91FB
:102910009C9111972817390719F42FEF3FEF07C043
:102920008D919C91E80FF91F8081282F30E0C9011B
:102930000895DC011C96ED91FC911D97E05CFF4F22
:1029400020813181E054F040DF01AE5BBF4F8D91BB
:102950009C9111972817390719F42FEF3FEF10C0FA
:102960008D919C911197E80FF91F20818D919C9179
:10297000119701968F73907011969C938E9330E00F
:10298000C9010895DC0191968C919197882339F0C3
:102990005496ED91FC915597808186FFF9CF9196E1
:1029A0001C920895CF93DF93EC01EE85FF85E05CE8
:1029B000FF4F20813181E054F0402F5F3F4F2F7354
:1029C0003070DF01AE5BBF4F8D919C91119728173E
:1029D0003907D1F3E05CFF4F80819181E054F040F2
:1029E000E80FF91F6083EE85FF85E05CFF4F3183C0
:1029F0002083EE89FF89208181E090E00F8C02C066
:102A0000880F991F0A94E2F7282B208381E089A37D
:102A1000EC89FD8980818064808381E090E0DF9192
:102A2000CF91089510925F0410925E0488EE93E0B7
:102A3000A0E0B0E08093600490936104A0936204EE
:102A4000B093630481E791E090935D0480935C040C
:102A500084ED93E0909369048093680488E194E0A6
:102A600090936B0480936A0485EC90E090936D04DE
:102A700080936C0484EC90E090936F0480936E04D8
:102A800080EC90E0909371048093700481EC90E06E
:102A9000909373048093720482EC90E09093750499
:102AA0008093740486EC90E090937704809376048E
:102AB00084E08093780483E08093790487E08093B6
:102AC0007A0485E080937B0481E080937C04089500
:102AD000CF93DF930E94CB110E940810C3E9D3E18A
:102AE0000E9405102097E1F30E949313F9CFCF9233
:102AF000DF92EF92FF920F931F93CF93DF937C01AE
:102B00006B018A01C0E0D0E00FC0D6016D916D016C
:102B1000D701ED91FC910190F081E02DC70109955D
:102B2000C80FD91F015010400115110571F7CE01D2
:102B3000DF91CF911F910F91FF90EF90DF90CF9099
:102B400008955058BB27AA270ED075C166D130F022
:102B50006BD120F031F49F3F11F41EF45BC10EF4F1
:102B6000E095E7FB51C1E92F77D180F3BA176207EF
:102B700073078407950718F071F49EF58FC10EF462
:102B8000E0950B2EBA2FA02D0B01B90190010C017D
:102B9000CA01A0011124FF27591B99F0593F50F495
:102BA000503E68F11A16F040A22F232F342F4427ED
:102BB000585FF3CF469537952795A795F0405395E5
:102BC000C9F77EF41F16BA0B620B730B840BBAF0B5
:102BD0009150A1F0FF0FBB1F661F771F881FC2F720
:102BE0000EC0BA0F621F731F841F48F48795779534
:102BF0006795B795F7959E3F08F0B3CF9395880FEB
:102C000008F09927EE0F979587950895D9D008F485
:102C100081E008950CD00FC107D140F0FED030F014
:102C200021F45F3F19F0F0C0511139C1F3C014D144
:102C300098F39923C9F35523B1F3951B550BBB2783
:102C4000AA2762177307840738F09F5F5F4F220F30
:102C5000331F441FAA1FA9F333D00E2E3AF0E0E829
:102C600030D091505040E695001CCAF729D0FE2F75
:102C700027D0660F771F881FBB1F26173707480707
:102C8000AB07B0E809F0BB0B802DBF01FF279358BD
:102C90005F4F2AF09E3F510568F0B6C000C15F3F0C
:102CA000ECF3983EDCF3869577956795B795F795A5
:102CB0009F5FC9F7880F911D9695879597F908959D
:102CC000E1E0660F771F881FBB1F62177307840739
:102CD000BA0720F0621B730B840BBA0BEE1F88F748
:102CE000E095089504D06894B111D9C00895BCD07E
:102CF00088F09F5790F0B92F9927B751A0F0D1F0E5
:102D0000660F771F881F991F1AF0BA95C9F712C06E
:102D1000B13081F0C3D0B1E00895C0C0672F782FE3
:102D20008827B85F39F0B93FCCF3869577956795DA
:102D3000B395D9F73EF490958095709561957F4F46
:102D40008F4F9F4F0895E89409C097FB3EF49095EC
:102D50008095709561957F4F8F4F9F4F9923A9F074
:102D6000F92F96E9BB279395F69587957795679503
:102D7000B795F111F8CFFAF4BB0F11F460FF1BC047
:102D80006F5F7F4F8F4F9F4F16C0882311F096E9DA
:102D900011C0772321F09EE8872F762F05C0662388
:102DA00071F096E8862F70E060E02AF09A95660F41
:102DB000771F881FDAF7880F9695879597F90895FA
:102DC000990F0008550FAA0BE0E8FEEF161617063C
:102DD000E807F907C0F012161306E407F50798F0A4
:102DE000621B730B840B950B39F40A2661F0232BBD
:102DF000242B252B21F408950A2609F4A140A69539
:102E00008FEF811D811D089597F99F6780E870E01D
:102E100060E008959FEF80EC089500240A94161650
:102E2000170618060906089500240A9412161306B8
:102E3000140605060895092E0394000C11F4882346
:102E400052F0BB0F40F4BF2B11F460FF04C06F5F62
:102E50007F4F8F4F9F4F089557FD9058440F551F38
:102E600059F05F3F71F04795880F97FB991F61F00C
:102E70009F3F79F087950895121613061406551F83
:102E8000F2CF4695F1DF08C0161617061806991FEF
:102E9000F1CF86957105610508940895E894BB27E4
:102EA00066277727CB0197F908958ADF08F48FEF1B
:102EB00008950BD0C0CFB1DF28F0B6DF18F095230E
:102EC00009F0A2CFA7CF1124EACFC6DFA0F3959FC8
:102ED000D1F3950F50E0551F629FF001729FBB2701
:102EE000F00DB11D639FAA27F00DB11DAA1F649FAD
:102EF0006627B00DA11D661F829F2227B00DA11D60
:102F0000621F739FB00DA11D621F839FA00D611DE5
:102F1000221F749F3327A00D611D231F849F600D06
:102F2000211D822F762F6A2F11249F5750408AF03F
:102F3000E1F088234AF0EE0FFF1FBB1F661F771FCB
:102F4000881F91505040A9F79E3F510570F05CCF0B
:102F5000A6CF5F3FECF3983EDCF3869577956795B7
:102F6000B795F795E7959F5FC1F7FE2B880F911DE9
:102F70009695879597F90895629FD001739FF00108
:102F8000829FE00DF11D649FE00DF11D929FF00DF9
:102F9000839FF00D749FF00D659FF00D9927729F30
:102FA000B00DE11DF91F639FB00DE11DF91FBD01BB
:102FB000CF0111240895A1E21A2EAA1BBB1BFD010B
:102FC0000DC0AA1FBB1FEE1FFF1FA217B307E40708
:102FD000F50720F0A21BB30BE40BF50B661F771F60
:102FE000881F991F1A9469F7609570958095909540
:102FF0009B01AC01BD01CF01089597FB092E052669
:103000000ED057FD04D0D7DF0AD0001C38F45095FD
:103010004095309521953F4F4F4F5F4F0895F6F7FC
:1030200090958095709561957F4F8F4F9F4F089534
:10303000EE0FFF1F0590F491E02D099410E0C6EC0F
:10304000D0E004C0FE010E941A182296C83CD107A5
:06305000C9F7F894FFCF60
:10305600200082040000000040413333F3400500A5
:103066000000204100002041DC050000DC050000D6
:1030760001000F270F270000B442DE05DE05DE053E
:10308600DE05DE05DE05DE05DE05DE05DE05DE0522
:10309600DE05DE05DE05DE05DE05DE054007000091
:1030A60040070000050001000103020405060708A9
:1030B600090A0B04050602070410204080000000E0
:0E30C60000D2147715681499147914C21400FE
:00000001FF
